:020000040050AA
:10000000000C40206D1E5000E313530003145300F6
:100010001D145300471453007114530093145300DC
:10002000951453009714530099145300AD1B5300BB
:100030009B145300B1145300B3145300C91453005C
:1000400085165300891653008D16530091165300E0
:1000500095165300991653009D165300A116530090
:10006000A5165300A9165300AD165300B116530040
:10007000B5165300B9165300BD165300C1165300F0
:10008000C5165300C9165300CD165300D1165300A0
:10009000D5165300D9165300DD165300E116530050
:1000A000E5165300E9165300ED165300F116530000
:1000B000F5165300F9165300FD16530001175300AF
:1000C000091753000D17530011175300151753004C
:1000D000191753001D1753002117530025175300FC
:1000E000791753007D17530081175300851753006C
:1000F000891753008D17530091175300951753001C
:10010000991753009D175300A1175300A5175300CB
:10011000A9175300AD175300B1175300B51753007B
:10012000B9175300BD175300C1175300C51753002B
:10013000C9175300CD175300D1175300D5175300DB
:10014000DD175300E1175300E5175300E91753007B
:10015000ED175300F1175300F5175300F91753002B
:10016000FD175300011853000518530009185300D8
:100170000D18530011185300151853001918530087
:100180001D18530021185300251853002918530037
:100190002D185300311853003518530039185300E7
:1001A0003D18530041185300451853004918530097
:1001B0004D18530051185300551853005918530047
:1001C0006118530065185300691853006D185300E7
:1001D0007118530075185300791853007D18530097
:1001E0008118530085185300891853008D18530047
:1001F0009118530095185300E91853003D19530006
:100200009119530095195300991953009D195300E2
:10021000A1195300A5195300A9195300AD19530092
:10022000B1195300B5195300B9195300BD19530042
:10023000C1195300C5195300C9195300CD195300F2
:10024000D5195300D9195300DD195300E119530092
:10025000E5195300E9195300ED195300F119530042
:10026000F5195300F9195300FD195300011A5300F1
:10027000051A5300091A53000D1A5300111A53009E
:10028000151A5300191A53001D1A5300211A53004E
:10029000251A5300291A53002D1A5300311A5300FE
:1002A000351A5300391A53003D1A5300411A5300AE
:1002B000451A5300491A53004D1A5300511A53005E
:1002C000591A53005D1A5300611A5300651A5300FE
:1002D000691A53006D1A5300711A5300751A5300AE
:1002E000791A53007D1A5300811A5300851A53005E
:1002F000891A53008D1A5300911A5300951A53000E
:10030000991A53009D1A5300A11A5300A51A5300BD
:10031000A91A5300AD1A5300B11A5300B51A53006D
:10032000B91A5300BD1A5300C11A5300C51A53001D
:10033000C91A5300CD1A5300D11A5300D51A5300CD
:10034000DD1A5300E11A5300E51A5300E91A53006D
:10035000ED1A5300F11A5300F51A5300F91A53001D
:10036000FD1A5300011B5300051B5300091B5300CA
:100370000D1B5300111B5300151B5300191B530079
:100380001D1B5300211B5300251B5300291B530029
:100390002D1B5300311B5300351B5300391B5300D9
:1003A0003D1B5300411B5300451B5300491B530089
:1003B0004D1B5300511B5300551B5300591B530039
:1003C000611B5300651B5300691B53006D1B5300D9
:1003D000711B5300751B5300791B53007D1B530089
:1003E000811B5300851B5300891B53008D1B530039
:1003F000911B5300951B5300991B53009D1B5300E9
:101000000020704770470020704700207047012083
:10101000704700207047EB23037000207047431E89
:10102000044A103012F8011B03F8011F8342F9D162
:101030000020704720C0530068B1012801D0002073
:1010400070474B1E054A103112F8010B03F8010FCF
:101050008B42F9D1F3E70A20704700BF20C053004C
:10106000054B1A6802701A68120A42705A88827018
:10107000DB78C37000207047AC184020054B5A68DD
:1010800002705A68120A4270DA888270DB79C37083
:1010900000207047AC184020054B9A6802709A688F
:1010A000120A42705A898270DB7AC370002070473E
:1010B000AC184020054BDA680270DA68120A4270F8
:1010C000DA898270DB7BC37000207047AC18402047
:1010D000054B1A6902701A69120A42705A8A8270A4
:1010E000DB7CC37000207047AC184020054B5A6968
:1010F00002705A69120A4270DA8A8270DB7DC3700C
:1011000000207047AC184020054B9A6902709A691C
:10111000120A42705A8B8270DB7EC37000207047C7
:10112000AC18402010B5054C204600F05FFA20684E
:1011300000F071FAC4E9000010BD00BFA8184020FB
:1011400010B5054C204600F051FA206800F063FA13
:101150002060A06010BD00BFA818402010B5054C4D
:10116000204600F043FA206800F055FA20606061E4
:1011700010BD00BFA818402010B5054C204600F057
:1011800035FA206800F047FA2060A06110BD00BF6A
:10119000A818402010B5054C204600F027FA20681A
:1011A00000F039FA2060E06110BD00BFA8184020AF
:1011B00010B5054C204600F019FA206800F02BFA13
:1011C0002060E06010BD00BFA818402010B5054C9D
:1011D000204600F00BFA206800F01DFA2060206124
:1011E00010BD00BFA818402008B507480AF070FDE0
:1011F00000F028FC054B1B68022B01D01FF05EFE9F
:10120000BDE8084025F032BD6CCE5300B4594020F3
:1012100013B50446072030F08DF80DF10701204684
:101220002CF008FE9DF80730022BF3D002B010BD61
:10123000022307B58DF807302DF07CFF0020FFF763
:10124000E7FF0DF1070101202CF0F4FD9DF80730B8
:101250003BB1002101202CF0EBFE002101202FF0FA
:101260000BF812F0A5FB11F08FFD15F043FC0348BD
:1012700032F0B0FF03B05DF804FB00BFE47054002F
:1012800008B52EF06DFE0020BDE80840FFF7C0BF96
:1012900008B527F097FB27F0ADFE27F053FA023888
:1012A000C0B20128F5D908BD08B5144827F0F0FCF4
:1012B000002027F061F9FFF7EBFF2CF0B5FC06F0FA
:1012C0001BFB0F4806F0A6FB0E4802F04DF80E4837
:1012D00004F0E4FF0D4830F0ABFD2CF065FA0C484B
:1012E00002F006FD0B4804F037FA0B4810F090FCB2
:1012F0000A48BDE8084016F0B5B800BF5C0D5400C0
:1013000090CA530070C25300B0C85300C853540071
:101310000CC553008CC85300D8D2530028F8530092
:1013200007B50DF107010DF1060025F08BFE32F037
:101330008BFBFFF7A5FF9DF80630502B03D003F081
:10134000EF03802B03D10121002000F018FE03B031
:101350005DF804FB07B50DF107010DF1060025F05E
:1013600071FE9DF80630802B01D0502B04D100F087
:101370003BFB03B05DF804FB902BFAD12A2025F04B
:1013800039FDF6E7022100200AF06ABB7FB5114B58
:10139000002240F2FE21104C0193029203900120A2
:1013A0000292029B8B4207D9039B013B0393039B51
:1013B000002BF5D104B070BD029B039E00FA03F32D
:1013C000019D334323436B400193029B01330293FE
:1013D000E7E700BF55AA55AAAAAAAA0030B5039DFF
:1013E00002818372C0E9005130BD10B50923094C58
:1013F00009490E20237006F07DFC38B1012010BD94
:101400000A20FFF7C3FF2378013B237020780028D0
:10141000F6D1F4E700104020C8184020054B064ADA
:101420001A6040F255525A6000221A8108229A72BC
:10143000FFF7DBBFC8184020011040200C4B1022E2
:1014400010B41A73020A0024D87342F0500259747F
:101450005C739A730A0A1C811A7403F10C025DF81A
:10146000044B1A60034A5A6006229A72FFF7BDBF06
:10147000C8184020F100DA982DE9F84F1D4C0123DF
:101480004FF0100BDFF8709063730B0E04F10C0A31
:101490004FF0000863F07F03062705466174A373CD
:1014A00021FA0BF384F80CB0E3730B0AC4F800A024
:1014B0002374C4F80490A4F80880A772FFF795FF7E
:1014C0000223064684F80CB063732B0E657463F038
:1014D0003F03A4F80880A772A37325FA0BF3E37304
:1014E0002B0AC4E900A92374FFF77FFF3043C0B281
:1014F000BDE8F88FC8184020F100DA98074B712238
:101500005A72022209335A70054A1360054B536020
:101510000023138108239372FFF767BF0010402058
:10152000C8184020F100DA9870B500240A4E41F244
:1015300057357455FFF772FF40F2FF712046FFF7F1
:101540007DFF6FF060412046FFF796FFFFF7D6FF63
:101550000123735570BD00BF0000294026F076B905
:1015600026F076B926F074B9704770470048704786
:101570003C0C54007047704770477047704708B97B
:1015800028F072BF7047012070477047704726F0FF
:101590003BB870477047704770477047704700BF4F
:1015A00008B525F0D7FCFFF77FFE0621002000F0EC
:1015B000E6FCBDE808402FF0D1BE002008B528F0B9
:1015C000B5FE28F021FF3328FBD128F0FFFE0020D4
:1015D000BDE8084028F0D2BE704707B568462FF036
:1015E000C1F9009803B05DF804FB704710B50446DC
:1015F000FFF7F3FF206010BD10B50446FFF7EDFFC5
:10160000001B10BD4CF25033584370474CF250331E
:10161000B0FBF3F070473223B0FBF3F070470000EB
:10162000094B1B681B6810B51C7831F045FD022C76
:1016300003D0032C01D0012C04D12046BDE810407A
:1016400031F00EBD10BD00BF98705400024B1B68F6
:101650001B68187831F03CBD9470540008B531F027
:1016600031FD044B1B681B6818700120BDE8084061
:1016700031F0EEBD94705400F0B585B00024012027
:1016800001AE25462146ADF80C403746CDE9014470
:1016900033F0A2FD304631F03FFD08B90A2D12D1DA
:1016A0007CB931F00FFDC307054654BF0120204629
:1016B00031F06EFD681CC0B231F00AFD284631F0F1
:1016C0000DFD05B0F0BDC7F109039DF8042003F836
:1016D000162017F8013BF12B05D10124032202212A
:1016E000012031F045FD0135EDB2D3E770B5054677
:1016F0000E4631F08FFD0446284631F091FD601909
:10170000307070BD70B505460E4631F08FFD044651
:10171000284631F091FD6019307070BD10B531F080
:1017200049FD04460130C0B231F04AFD2046BDE813
:10173000104031F04BBD00BF0020704700207047C3
:10174000002070470020704700207047002070473D
:10175000002070470020704770B51C880021E60803
:101760008DB2AE4204D824F0070400201C8070BD66
:10177000455C55540131F3E7C10710B5144605D552
:10178000012031F0D7FD2070002010BD820703D565
:10179000012031F0C3FDF6E7430703D5012031F006
:1017A000D5FDF0E710F00800EDD0012031F0DAFDB2
:1017B000E9E7042300200B707047002070470020E9
:1017C000704700207047000037B5094C68462578FF
:1017D00031F086FB10B99DF800302370054B0022D4
:1017E0001B681B681D705A801A7103B030BD00BFA2
:1017F000DB184020A070540007B5094A68461378EA
:101800000133DBB213708DF800300023ADF80230E5
:101810008DF8043031F0B8FB03B05DF804FB00BF75
:10182000DB18402038B50C4C022100200B4D0AF08B
:1018300017F9226829680132226001B101210820CC
:1018400025F0CAF82368322B04D12B68DB432B60C8
:101850000023236038BD00BFDC1840201410402056
:10186000704700BF002313B50DF107008DF8063057
:101870008DF8073031F026FD9DF80700094BEF2861
:101880001C6807D931F0F0FC9DF8072063681A70D6
:1018900002B010BD0DF1060131F01CFD9DF80620CF
:1018A000F4E700BF8C705400002307B50DF106006B
:1018B0008DF806308DF8073031F01AFD0DF1070173
:1018C0009DF8060031F01CFD044B9DF807201B68B5
:1018D0001B681A7003B05DF804FB00BF8C705400E5
:1018E00007B50DF1070031F049FD50B99DF80730FB
:1018F0000133DBB2044A12681268137003B05DF85A
:1019000004FB0023F6E700BF8470540000207047FA
:1019100000207047002070470021084633F05CBC6F
:101920000021022033F058BC0121022033F054BCC6
:1019300010B5044631F0C0FB022802D828B90020B7
:1019400010BD0328FBD1AA2300E055232370F6E73E
:1019500010B5044631F0B0FB022807D0032809D0A7
:10196000012809D100231846237002E0012300203A
:10197000237010BD0223FAE70123F4E737B50446CC
:1019800001A80D46FFF732FE0198FFF744FE2368D9
:10199000C31A2B60206003B030BD000025F0F7BAF9
:1019A0000B4B01381A780132D2B21A7007280DD8C1
:1019B000DFE800F00405060708090A0B70477047C6
:1019C000704770477047704770477047704700BF57
:1019D000E018402008B525F06FFE002008BD7047D4
:1019E000002070477047000007B5FFF7C3FD00F007
:1019F000BFFA25F029FF01A9002001F047FE019858
:101A000010B9012101F0FEFD6946002001F03EFD04
:101A1000009B032B07D10221002001F0E1FC0121F2
:101A2000002001F0DDFC064C02F03EFD2BF0C2FE72
:101A30000AF00AFF2378002BF6D028F015FDFCE70A
:101A400065314020202025F07BBD00BFFEE700006F
:101A5000424BD3F8342142F48052C3F83421D3F8F6
:101A6000342142F40052C3F83421D3F8042142F067
:101A70000102C3F804211A6842F4B54242F0700230
:101A80001A601A6842F4254242F00F021A60D3F835
:101A90000421D107FBD4D3F81421D204FBD52F4B5A
:101AA000D3F814219004FBD5D3F8302342F0005230
:101AB000C3F83023D3F8342342F00042C3F8342370
:101AC000D3F8342342F08072C3F83423D3F80423CC
:101AD00042F00102C3F804231A6842F4B54242F00E
:101AE00070021A601A6842F4254242F00F021A602E
:101AF0001A4A1346D2F80413C907FBD4D3F81023AB
:101B00009200FBD5D3F81423002AFBDA134BD3F849
:101B10001423D001FBD5D3F8302542F00052C3F88E
:101B20003025D3F8042542F00102C3F804251A68D1
:101B300042F4B54242F070021A601A6842F425423B
:101B400042F00F021A60054B1A46D3F80415C90774
:101B5000FBD4D2F810359B00FBD5704700C02D4058
:101B60005E4BD3F8042312F0706203D05C4B132257
:101B70001A60FEE75B4BC3F88020C3F88420196825
:101B800041F00041196041F23C0199601A61DA6844
:101B900042F08042DA609A6842F080629A60D3F83C
:101BA000802042F40032C3F88020D3F8842042F42D
:101BB0008032C3F884204C4A116841F00101116061
:101BC00051680029FCDA1A6822F000421A60454B7D
:101BD0005A685107FCD5D3F8802042F00042C3F880
:101BE0008020D3F8842042F00042C3F884203B4B8D
:101BF000D3F80C2342F48032C3F80C23D3F810231B
:101C000042F44032C3F81023D3F8182342F4403290
:101C1000C3F81823D3F8142342F48032C3F81423F2
:101C2000D3F81C2342F44032C3F81C232F4AC3F8D4
:101C30000023D3F804231201FBD52D4AC3F8402317
:101C4000264A1346D2F84413090E01F0160116294C
:101C5000F8D1D2F8481341F00041C2F848132449A2
:101C6000C2F88013D3F88423120E02F01602162A4B
:101C7000F8D1D3F8882342F00042C3F88823D3F880
:101C8000882542F48032C3F888251A4AC3F8802593
:101C9000124BD3F88425120E02F00902092AF8D15A
:101CA000D3F8882542F00042C3F88825D3F8C82528
:101CB00042F48032C3F8C8250E4AC3F8C025074A4B
:101CC000D2F8C4351B0E03F00903092BF8D1D2F862
:101CD000C83543F00043C2F8C835704700802D4036
:101CE000E418402000002E4000402D400400000871
:101CF000040000160400000908B51B4A1B4B1C49D0
:101D00008B4229D31B4B00211B4A934229D3FFF757
:101D10009FFE0024FFF724FF1849FE23184A1948A4
:101D20000B707E2313704FF400130360C0F8B431BE
:101D300001230B7013700C7013700B701370002262
:101D40002046013411462EF09FFC102CF7D100F0F4
:101D500077F8FFF73FFEFEE752F8040B43F8040B59
:101D6000CEE743F8041BD0E78082540000104020E7
:101D7000A8184020A8184020408140201C1329406A
:101D80008F132940BC02294041EA020303439B0709
:101D900010B509D0431E0A448A4200D110BD11F883
:101DA000014B03F8014FF7E7C2F38103022B2AD05E
:101DB000032B1AD0012B034620D022F00F020A4435
:101DC0008A4203F11003E9D00C68103143F8104C3B
:101DD00051F80C4C43F80C4C51F8084C43F8084CA3
:101DE00051F8044C43F8044CEAE7034651F8044B1D
:101DF00043F8044B51F8044B43F8044B51F8044B9F
:101E000043F8044BD9E70346F4E703460244934200
:101E100000D1704703F8011BF9E700BFFEE7FEE7BA
:101E20000000070024ED00E008ED00E00000500095
:101E3000000C402060EF00E050EF00E014ED00E007
:101E40004FF000005FF810C0CCF80000BFF34F8FD8
:101E5000BFF36F8F5FF81C10086840F40030086013
:101E6000BFF34F8FBFF36F8F7047FEE7002484F3FB
:101E70001088002484F314885FF0807484F303884E
:101E80005FF864005FF86450296840EA0101296046
:101E90004FF00151094A521A013A0020002309C1AA
:101EA000083AFCDA2EF02AFD5FF87CD05FF8880053
:101EB0005FF888100160FFF71FFFD6E7FFFF4020A3
:101EC000F8B5468805460C468F1997F825302BB98A
:101ED0008B6830461B68984787F8250097F82530AF
:101EE000012B02D04FF6FF70F8BDA36830465B6847
:101EF000984701281CD1A8884FF6FF712A8888428C
:101F0000224412D0194B1D6894F83A30C3EB0313E6
:101F100005EB8303DC68062303FB005323441B7992
:101F20001BB1137D012B08BF084601231375DBE7A6
:101F30000028D7D1E8884FF6FF712A8888422244CA
:101F400012D00A4B1D6894F83A30C3EB031305EB2B
:101F50008303DC68062303FB005323441B791BB176
:101F6000137D002B08BF08460023DFE7E818402058
:101F700008B500F037FC002380F8373008BDF7B50E
:101F80000546019100F02EFC90F83730019A012BA4
:101F900015D1816800230E8B9CB2A64201D8042380
:101FA00010E00C6904EBC3040133A788AF42F3D1FE
:101FB0000123214603B0BDE8F04000F017BC002B20
:101FC000EDD1012390F83A1002222A2003B0BDE897
:101FD000F04024F0E7BC70B505460C4600F002FC6A
:101FE00090F8373043B9012390F83A100E222A2096
:101FF000BDE8704024F0D6BC022C01D90523F3E7DC
:102000008368214628460122DE680E23B446BDE8D7
:1020100070406047F8B507460E4600F0E3FB90F8C5
:10202000373004468BB90123152294F83A102A2040
:1020300024F0B8FC94F83730012B05D10025A368B3
:10204000AAB2598B914204D8F8BD042EF2D90523C7
:10205000EAE75B69A9B203EBC1018B88BB4204D1FB
:1020600003233246204600F0C1FB0135E7E710B5F7
:1020700000F0B8FB90F8373043B990F83A100123DC
:1020800022222A20BDE8104024F08CBC8368022262
:1020900001210020DC682223A446BDE810406047EF
:1020A00070B505460C4600F09DFB90F8373043B9FB
:1020B000012390F83A1006222A20BDE8704024F04F
:1020C00071BC0B2C01D90523F3E783682146284610
:1020D0000522DE680623B446BDE87040604710B5AF
:1020E00000F080FB90F8373043B990F83A100123A4
:1020F00014222A20BDE8104024F054BC836800213B
:102100000422DC6808461423A446BDE8104060475A
:1021100070B505460C4600F065FB90F8373043B9C2
:10212000012390F83A1005222A20BDE8704024F0DF
:1021300039BC062C01D90523F3E7836821462846DC
:102140000022DE680523B446BDE87040604770B5E4
:10215000044600F047FB502C33D83F2C11D8122CEA
:1021600028D80E2C94BF0023012390F837207ABB87
:10217000012390F83A100F222A20BDE8704024F085
:1021800011BCA4F14003102B19D8DFE803F00918A3
:102190001818091818181809181818090918090022
:1021A0000123E2E701229A40104B1340003B18BF85
:1021B0000123DAE7A4F12003DBB2132BF2D90023C9
:1021C000D3E704F0EF03A3F1800253425341CCE77D
:1021D0000BB90523CDE78368214609220020DD687D
:1021E0000F23AC46BDE87040604700BF7D000D0086
:1021F00070B505460C4600F0F5FA90F8373043B953
:10220000012390F83A1010222A20BDE8704024F0F3
:10221000C9BB042C01D90523F3E78368214628466E
:102220000A22DE681023B446BDE87040604770B5EE
:10223000044600F0D7FA90F8373043B990F83A10D6
:10224000012324222A20BDE8704024F0ABBB836820
:102250000C2220460021DD682423AC46BDE87040F6
:10226000604770B505460C4600F0BCFA90F8373070
:1022700043B9012390F83A1016222A20BDE8704095
:1022800024F090BB082C01D90523F3E7836821468D
:1022900028460E22DE681623B446BDE8704060472B
:1022A00070B505460C4600F09DFA90F8373043B9FA
:1022B000012390F83A1017222A20BDE8704024F03C
:1022C00071BB082C01D90523F3E783682146284612
:1022D0000D22DE681723B446BDE8704060472DE943
:1022E000F84F012390F80290054688469945164616
:1022F000C3703BD11F4F4FF0000A96F83A304FF0B1
:102300000A0B3A68C3EB0313018802EB830302EB69
:1023100081029B68D45A96F83A103868C1EB0111D3
:102320002B8800EB810C00EB8303DCF808201344BE
:102330005B88A34202D85046BDE8F88F00EB440208
:10234000DCF804300134D35A50F821203146A4B2CD
:102350000BFB03231844FFF7B3FD4FF6FF739842BE
:102360001CBF4FF0010A08F80090D4E74FF0000AB4
:10237000E1E700BFE81840202DE9F04F002697B0B4
:102380000C46DFF880B2B2460590CDE90866CDE98B
:102390000A6694F83A30B2B2DBF80070C3EB03136C
:1023A00007EB8303198F914240D800252368984793
:1023B000ABB29A4500F21B8163689847236898473F
:1023C00094F83950636894F838609847012D0BD120
:1023D00023689847002384F8393063689847294672
:1023E00004F10C000FF03CFB012E40F008810025A9
:1023F0002368984704F11006636884F838509847BA
:102400002946254630460FF02BFB55F80C3B9847E4
:1024100015F8013BEA78B54243EA020305F8013CAE
:10242000F6D1636817B0BDE8F04F1847B5B2059A0A
:1024300012F80580B8F1010F1AD1DB6806220021DD
:1024400002FB05350DAB2222184607EB0509FFF705
:10245000DCFC7A5B07468DF85480ADF83820B9F87B
:102460000220ADF83A20002201929DF854300BB9B9
:1024700001368EE737F8238007EB8302013B528851
:102480008DF854300623029203FB08F2CDE90323B2
:10249000029B9DF854504345E7D994F83A1008F14F
:1024A0000108DBF80030C1EB0111039A1FFA88F82C
:1024B00003EB8101086910441A1892F80290009207
:1024C000B9F1010F29D0B9F1020F47D0B9F1000FCE
:1024D00040F08A80185A1379013B012B18D816ABAB
:1024E000CDF8049003EB4A030AF1010A1FFA8AFAB5
:1024F00023F8380C009BDB78012B02D1019B002BC9
:10250000B3D1039B06330393B9F1000FC0D0ACE7FE
:10251000A3689B6898470190ECE70135029A185A26
:10252000EDB2C96807EB850C8DF8545027F825806B
:10253000ACF80220049A02FB00109DF8541016AA71
:1025400001311D181B5AC9B28DF8541002EB8101DC
:1025500021F8243C6B8821F8223CCBE72168CDE9A7
:102560000630884794F83A10DBF80020C1EB0111DF
:10257000DDE90630185A52F821300A2101FB0030FB
:1025800021461044FFF79CFC6368814698474FF64C
:10259000FF73994528D00135029ADBF80010EDB29F
:1025A00007EB85038DF8545027F825805A8016AA2A
:1025B00094F83A30C3EB031301EB8303D868049B10
:1025C00003FB09009DF854304FF0010901330D1849
:1025D000095ADBB28DF8543002EB830323F8241C34
:1025E000698823F8221C85E74FF0000982E7A36879
:1025F00008AA9B6832F8150001359847D8E617B04D
:10260000BDE8F08FE81840202DE9F04186B000F0D9
:10261000E9F890F837300446EBB10025112200218B
:1026200001A82E46184F4FF0010833F0EAFD236849
:10263000984794F83A303A68C3EB031302EB8301EE
:10264000C88EA9B2884209D8636898471EB121464E
:1026500001A8FFF791FE06B0BDE8F081A8B252F8DC
:1026600023104FF00A0C01350CFB00132146D01843
:10267000FFF726FC4FF6FF7398421FBF06AB0126FB
:10268000C01800F8148CD4E7E8184020F0B5174BB8
:1026900001EBC10190F83A201B68C2EB021203EB78
:1026A00082025269114419440E7A012E1AD180F81F
:1026B00039604C1E1030033114F8015F012E10F800
:1026C000043C227908BF2B43A14203EA020300F82D
:1026D000043C037845EA030502EA050200F8012BF1
:1026E000EAD1F0BD012380F83830E2E7E818402055
:1026F00000F07CB810B5044608B9012010BD406A4E
:1027000033F060FF0128F8D1E26A094B9A42F4D114
:1027100003F146436FF4CF71A26AA3F57F130B4414
:102720009A42EAD1206B034BC01A18BF0120E5E79B
:102730005CDB6166C93861D7F7B50446274E38B906
:102740000146019001AA2A202FF0F2FA00B9019C5B
:1027500034603268224C3AB9022394F83A102A20A5
:1027600024F020F903B0F0BD1046FFF7C3FF054683
:1027700010B106230022F0E784F8370000F006FBD2
:1027800094F83A30284631680A25C3EB031301EB6D
:1027900083039E8E82B296420DD80025A368A8B20C
:1027A0009A8B824211D800230122C4E9033384F8B2
:1027B00037202387D6E71A6805FB002201308F18DF
:1027C0008A5A3F7A22441775E4E71B68984714FA3F
:1027D00085F3013583F82500E0E700BFE8184020C5
:1027E000541040200048704754104020F0B587B086
:1027F00007461D460C4601A800211646112233F05B
:1028000000FD3B689847032D06D8013D022D16D8E0
:10281000DFE805F017191900802D16D000243A467C
:1028200001A92046FFF75BFD04467B689847012C11
:1028300003D1394601A8FFF79FFD07B0F0BD6671CF
:10284000EDE7E680EBE7A671E9E72671E7E700BF71
:10285000024B5879831E5842584170471810402047
:10286000024B5879B0FA80F04009704718104020A8
:10287000F6E7034B93F82200B0FA80F04009704766
:1028800018104020024B588DB0FA80F04009704774
:1028900018104020024B588D431E58425841704733
:1028A00018104020054B93F83A00042803D0431E2B
:1028B0005842584170470120704700BF181040200F
:1028C000034B93F83A00C31E58425841704700BF6B
:1028D00018104020054B93F83200042803D0431E03
:1028E0005842584170470120704700BF18104020DF
:1028F000034B93F83200C31E58425841704700BF43
:1029000018104020024B588D831E58425841704782
:1029100018104020054B5A79022A04D1588D831E85
:102920005842584170470020704700BF181040209F
:10293000064B9A7A032A07D1588D023880B20128B3
:102940008CBF0020012070470020704718104020E5
:10295000044B588D023880B201288CBF0020012022
:10296000704700BF18104020054B5A8D042A04D12F
:10297000987A831E5842584170470020704700BF24
:1029800018104020044B5A7922B9588D031F584221
:10299000584170470020704718104020024B588D56
:1029A000831F58425841704718104020054B5A8DDC
:1029B000072A04D1987A431E584258417047002094
:1029C000704700BF18104020024BD878431E584271
:1029D0005841704718104020F6E7F5E7034B93F88D
:1029E0002100431E58425841704700BF1810402034
:1029F000034B93F82700431E58425841704700BFCD
:102A000018104020F4E7034B93F83700431E584258
:102A10005841704718104020F5E7034B93F82F00FA
:102A2000431E58425841704718104020F5E7DFE731
:102A3000054BDA78012A05D193F82700431E584246
:102A4000584170470020704718104020054B5A7AB3
:102A5000012A05D193F82700431E58425841704778
:102A60000020704718104020C2E7064B93F827203B
:102A7000012A04D1587A431E584258417047002019
:102A8000704700BF18104020D2E7B1E7EDE7024BD6
:102A900053F83030184700BFC8C05300024B03EB57
:102AA000C0004368184700BFC8C05300024B03EB87
:102AB0008000D0F890301847C8C05300012108B5F5
:102AC00008461FF0E1FF002008BD0121022008B5E3
:102AD0001FF0DAFF002008BD0121002008B51FF01B
:102AE000D3FF002008BD0021012008B51FF0CCFF56
:102AF000002008BD002108B508461FF0C5FF0020D2
:102B000008BD0021022008B51FF0BEFF002008BD4F
:102B100008B501201EF08CFC002008BD07210348E9
:102B200008B5FFF7B3FD002008BD00BF54104020DA
:102B30000621034808B5FFF7A9FD002008BD00BF26
:102B4000541040200521034808B5FFF79FFD0020E1
:102B500008BD00BF541040200421034808B5FFF70A
:102B600095FD002008BD00BF5410402003210348FC
:102B700008B5FFF78BFD002008BD00BF54104020B2
:102B80000221034808B5FFF781FD002008BD00BF02
:102B9000541040200121034808B5FFF777FD0020BD
:102BA00008BD00BF541040200021034808B5FFF7BE
:102BB0006DFD002008BD00BF5410402000215020B2
:102BC00024F008BA0021902024F004BA08B5FEF7DA
:102BD000D9FB002008BD072030F088B8042030F071
:102BE00085B8032030F082B8012030F07FB8002093
:102BF00030F07CB808B530F09BFE002008BD012005
:102C000030F066B8032030F063B8022030F060B8CE
:102C10000721002008B5FFF7B2F9002008BD042104
:102C2000002008B5FFF7ABF9002008BD0321002004
:102C300008B5FFF7A4F9002008BD0221002008B55F
:102C4000FFF79DF9002008BD002108B50846FFF7F1
:102C500096F9002008BD08B5FEF7EAFA002008BD85
:102C600008B5FEF7C1FA002008BD08B5FEF768FAFE
:102C7000002008BD08B5FEF755FA002008BD08B5CC
:102C8000FEF796FA002008BD08B5FEF767FA0020A7
:102C900008BD08B5FEF79AFA002008BD08B5FEF792
:102CA00079FA002008BD08B5FEF766FA002008BDD5
:102CB00008B5FEF74FFB002008BD08B5FEF730FB56
:102CC000002008BD08B51FF00FFE002008BD01213F
:102CD000002008B508F042FE002008BD2DE9F74F9E
:102CE00006461A4898460F4690F873301446012B52
:102CF0000ED1174B002500F13C0B03EB820203EBD6
:102D00004403D2F844A1B3F88091ABB2994503D8FB
:102D1000002003B0BDE8F08F0623A9B20A2C03FB04
:102D200001A10B790ED126FA03F303F001033BB1A5
:102D30008B783A465846CDE900830023FFF7D8FC4C
:102D40000135E2E79A1B53425341F0E71810402047
:102D5000C8C053001FB50C4C94F87330012B11D12F
:102D60000DF10F010DF10E002FF09EFF237A9DF85B
:102D70000F20A11D0193FF2304F13C000093802349
:102D8000FFF7B6FC04B010BD18104020404B186887
:102D9000404B2DE9F04F93F8762000253E4F991DCA
:102DA000C2EB0212AE46BC464FF0010800EB8202B5
:102DB0000E88013506313E4496F89E61FF2E1BBFFA
:102DC0009469361801F803EC365D1CBF01F8038CDA
:102DD00001F8026C052DEBD1304F00254FF0010AB0
:102DE00007F13C08A94657F8041B51B901350F2DCE
:102DF000F9D1998C614491F89E51FF2D1DD100218C
:102E000021E038F815B04FF0000E1FFA8EF65E453F
:102E1000ECD20E880EF1010E0631664496F89E61E2
:102E2000FF2E1BBF9469361801F8039C365D1CBF4A
:102E300001F803AC01F8016CE7E7D16901EB45014A
:102E4000415A5985012183F82710998D614491F8E1
:102E50009E11FF291BBF091895690021495D1CBF00
:102E600083F83210012183F82F10998E0CEB0104A6
:102E700094F89E11FF291BBF926940180022825CC2
:102E80001CBF83F83A20012283F83720BDE8F08F79
:102E9000E818402018104020C8C053000CC253004E
:102EA00007B5094890F87330012B0AD1837B00F1F4
:102EB0000C0100223C300193FF2300938023FFF795
:102EC00017FC03B05DF804FB1810402007B5094853
:102ED00090F87320012A09D1837B00F10C013C306A
:102EE0000193FF2300938023FFF702FC03B05DF8FA
:102EF00004FB00BF1810402007B5094890F8733054
:102F0000012B0AD1837B00F10C0102223C3001939A
:102F1000FF2300938023FFF7EBFB03B05DF804FB76
:102F20001810402007B5094890F87330012B0AD1DA
:102F3000837B00F10C0103223C300193FF230093BB
:102F40008023FFF7D5FB03B05DF804FB1810402089
:102F500007B5094890F87330012B0AD1837B00F143
:102F60000C0104223C300193FF2300938023FFF7E0
:102F7000BFFB03B05DF804FB1810402007B50948FB
:102F800090F87330012B0AD1837B00F10C010522EC
:102F90003C300193FF2300938023FFF7A9FB03B08C
:102FA0005DF804FB1810402007B5094890F873300D
:102FB000012B0AD1837B00F10C0106223C300193E6
:102FC000FF2300938023FFF793FB03B05DF804FB1E
:102FD0001810402007B5094890F87330012B0AD12A
:102FE000837B00F10C0107223C300193FF23009307
:102FF0008023FFF77DFB03B05DF804FB1810402031
:1030000007B5094890F87330012B0AD1837B00F192
:103010000C0108223C300193FF2300938023FFF72B
:1030200067FB03B05DF804FB1810402007B50948A2
:1030300090F87330012B0AD1837B00F10C01092237
:103040003C300193FF2300938023FFF751FB03B033
:103050005DF804FB1810402007B5094890F873305C
:10306000012B0AD1837B00F10C010A223C30019331
:10307000FF2300938023FFF73BFB03B05DF804FBC5
:103080001810402007B5094890F87330012B0AD179
:10309000837B00F10C010B223C300193FF23009352
:1030A0008023FFF725FB03B05DF804FB18104020D8
:1030B00007B5094890F87320012A09D1037D00F172
:1030C00012013C300193FF2300938023FFF710FB94
:1030D00003B05DF804FB00BF1810402007B5094895
:1030E00090F87330012B0AD1037D00F11201022206
:1030F0003C300193FF2300938023FFF7F9FA03B0DC
:103100005DF804FB1810402007B5094890F87330AB
:10311000012B0AD1037D00F1120103223C300193FF
:10312000FF2300938023FFF7E3FA03B05DF804FB6D
:103130001810402007B5094890F87330012B0AD1C8
:10314000837E00F1180102223C300193FF2300939B
:103150008023FFF7CDFA03B05DF804FB1810402080
:1031600007B5094890F87320012A09D1837E00F140
:1031700018013C300193FF2300938023FFF7B8FA36
:1031800003B05DF804FB00BF1810402007B50948E4
:1031900090F87330012B0AD1837E00F118010022D0
:1031A0003C300193FF2300938023FFF7A1FA03B083
:1031B0005DF804FB1810402007B50A4890F87330FA
:1031C000012B0BD190F8203000F11E0105223C307C
:1031D0000193FF2300938023FFF78AFA03B05DF881
:1031E00004FB00BF1810402007B5094890F8732071
:1031F000012A0AD190F8203000F11E013C300193E1
:10320000FF2300938023FFF773FA03B05DF804FBFC
:103210001810402007B50A4890F87330012B0BD1E5
:1032200090F8203000F11E0104223C300193FF236E
:1032300000938023FFF75CFA03B05DF804FB00BF46
:103240001810402007B50A4890F87330012B0BD1B5
:1032500090F8203000F11E0106223C300193FF233C
:1032600000938023FFF744FA03B05DF804FB00BF2E
:103270001810402007B50A4890F87330012B0BD185
:1032800090F8203000F11E0102223C300193FF2310
:1032900000938023FFF72CFA03B05DF804FB00BF16
:1032A0001810402007B50A4890F87330012B0BD155
:1032B00090F8203000F11E0103223C300193FF23DF
:1032C00000938023FFF714FA03B05DF804FB00BFFE
:1032D0001810402007B50A4890F87330012B0BD125
:1032E00090F8203000F11E0100223C300193FF23B2
:1032F00000938023FFF7FCF903B05DF804FB00BFE7
:103300001810402008B51E22112300213C2023F074
:1033100049FB012008BD08B51F22112300213C20D4
:1033200023F040FB012008BD10B5044608B9012078
:1033300010BD006833F046F90128F8D1A268074BA8
:103340009A42F4D1064B62681B689A42EFD1E0685A
:10335000044BC01A18BF0120EAE700BF102108F48F
:10336000C8C453007C2A02CD2DE9F041044638B987
:103370001423012200213C20BDE8F04123F012BBC0
:10338000FFF7D2FF0028F3D122694FF0020C104B57
:103390004FF0080E22440F491C6080465A60626953
:1033A0000D4D22449A60E26914440C4ADC60677C4B
:1033B00086B2B74203D801221A74BDE8F081013009
:1033C00042F804CB01F801EB45F8048BEFE700BFAE
:1033D000EC1840200C194020041940200819402006
:1033E000F8B5264E0446307C38B91E23032200214E
:1033F0003C2023F0D7FA0120F8BDF3685B7CA342A0
:1034000001D80F23F2E74B1E022B01D91523EDE75C
:10341000326804EB44030229D0694FEA830710584D
:1034200002EB83020244507A0AD003290DD001290D
:10343000E1D1134B5B689847003818BF0120DBE7E8
:10344000104B012243F82420F3E70D4B5B689847AB
:103450000C4B0022003843F8242018BF01203368A9
:10346000DA699A583B4413441B7A012B01BF064A80
:10347000135D43F008031355BEE700BFEC1840206E
:1034800000C55300041940200C19402038B5104BDA
:1034900005460C46187C38B91E23042200213C2026
:1034A00023F080FA012038BDDB685B7CAB4201D899
:1034B0000F23F2E711B914230422F0E730F04CF99E
:1034C000044B53F82530236030F048F90020EAE738
:1034D000EC184020081940202DE9FF47444B0D46C9
:1034E0000446197C994631B91E2305223C2023F05D
:1034F00059FA012477E01B68DB8C834203D832231E
:1035000005220021F2E70DB91423F9E72B68002BFF
:10351000FAD0D9F804200701AE8802EB0013D25983
:1035200012F0804F9A890CBF4FF008084FF0400806
:10353000964226D99B7B13F001011BD099071FD51A
:1035400046451ED946460B23052200213C2023F088
:1035500029FAD9F804303B4493F80A8093F804A080
:1035600030F0FAF8234B53F82830012B0CD030F010
:10357000F5F8BEE75A2305223C2023F001FAB8E70C
:103580001646FF2EE5D1B4E71B4B53F82830032B2A
:10359000EDD1D9E90031DA69C81953F802C00C221B
:1035A00012FB08C213441B7A3BB1144B13F80830CA
:1035B0001B0702D5437A012BD9D1CB59ADF80C406A
:1035C00002932B688DF80E60019330F0C7F830F04D
:1035D000C3F80B4B01A950461B689847041E18BF3F
:1035E000012430F0BBF8204604B0BDE8F08700BFEE
:1035F000EC18402008194020041940200C194020E4
:1036000000C553001D4B10B50446187C38B91E2365
:10361000092200213C2023F0C5F9012010BDDA6801
:10362000527CA24201D80F23F2E7032901D80229D4
:1036300001D11623ECE7124A52F824000128ECD1FC
:10364000104AB9B1032915D01B6842F82400DA6981
:1036500099580C2212FB041213441B7A012B0BD134
:1036600030F07AF8084A135D43F00803135530F040
:1036700075F801E042F824100020CFE7EC18402054
:1036800008194020041940200C1940200D4A10B59B
:10369000147C3CB91E230A2200213C2023F082F92D
:1036A000012010BDD268527C824201D80F23F2E77C
:1036B00011B914230A22F0E7034A52F8202000200F
:1036C0000A60EEE7EC18402004194020124B10B5B8
:1036D0001C7C3CB91E230D2200213C2023F062F902
:1036E000012010BD1B6893F82B40844201D81123A0
:1036F000F1E7022901D91223EDE71C6A0C2212FB23
:1037000000401C220344587A42430448BDE810405C
:103710008258187A104700BFEC184020E4C45300C8
:10372000124B10B51C7C3CB91E230E2200213C20FC
:1037300023F038F9012010BD08B91423F5E71B6800
:1037400093F82B208A4201D81123EEE71C6A0C2241
:1037500012FB01411C240B4405495A7A04FB021256
:103760000146187A5268BDE810401047EC18402016
:10377000E4C45300124A10B5147C1CB91E230F2256
:10378000002102E031B914230F223C2023F00AF972
:10379000012010BD136893F82B20824201D8112319
:1037A000EDE71C6A0C2212FB00401C240344054870
:1037B0005A7A04FB0202187A9268BDE8104010475A
:1037C000EC184020E4C45300124B10B51C7C3CB9EB
:1037D0001E23102200213C2023F0E4F8012010BD1C
:1037E0001B6893F82B40844201D81123F1E702298A
:1037F00001D91323EDE71C6A0C2212FB00401C24A4
:10380000034405485A7A04FB0202187AD268BDE8DC
:1038100010401047EC184020E4C453002DE9F04755
:103820001B4E0746317C41BB01251E2311223C2043
:1038300023F0B8F82846BDE8F0871A6A08FB04228E
:1038400098189B581F420AD0437A007A0AFB0393C8
:103850001B69984700284FF0010108BF002501347B
:10386000336893F82B20A242E7D80029E2D1102335
:1038700011223C2023F096F8DCE7002401254FF0CC
:103880000C08DFF8109021464FF01C0AE8E700BF53
:10389000EC184020E4C45300114B10B5197C31B929
:1038A0001E231A463C2023F07DF8012010BD1B6822
:1038B00093F82B20824203D811231E220021F1E726
:1038C000196A0C2212FB0010064903441C205A7A84
:1038D00000FB0212187A5269BDE81040104700BF81
:1038E000EC184020E4C45300114B10B5197C31B9D9
:1038F0001E231F223C2023F055F8012010BD1B6819
:1039000093F82B20824203D811231F220021F1E7D4
:10391000196A0C2212FB0010064903441C205A7A33
:1039200000FB0212187A9269BDE81040104700BFF0
:10393000EC184020E4C4530070B5174C217C31B919
:103940001E2313223C20BDE8704023F02BB82368CF
:10395000DB8C834203D80D2313220021F2E7626837
:10396000060102EB0010857A2FF0F6FE0B494A5D46
:1039700022F008024A552FF0F1FE63683344197AA9
:10398000FF2908D0064A02EBC10252681AB1D88852
:10399000BDE87040104770BDEC1840200C19402065
:1039A000CCC453002DE9F347654F3C7C14B91E236A
:1039B000142202E040B914231A4600213C2022F0D0
:1039C000F1FF02B0BDE8F087FB6805791B7CAB42D4
:1039D00001D80C23ECE70468A30004D4002C04DB1A
:1039E000584B23400BB10A23E2E7B1F80480B8F149
:1039F000400F01D90B23DBE70E68002EDBD03B68BC
:103A0000D9691944D1F804C00CEB45029A5E002A2A
:103A1000DFDB4D4AC968127A2A44062503EB4202CD
:103A200032F80C204FF6FF7C05FB021299184D88E6
:103A30006545C6D09A5A6245C3D0097989B9AA4268
:103A40004DD10C25996905FB02115D186D68AC42DA
:103A500007D05958B1F1FF3FB3D0AC42B1D38C423B
:103A6000AFD844790C20996900FB0233BD680B4440
:103A7000B3F808902FF070FE344B53F82430012B2C
:103A80005AD1334B53F8243023F00203012B53D186
:103A900005EB89072FF062FEADF80480BB78009635
:103AA000984528BF9846ADF804802FF055FE294A66
:103AB000135D190702D523F0080313552FF04EFEAE
:103AC000FB78FF2B3FF47DAF234A52F83330002BB5
:103AD0003FF477AF694635F82900984771E73FF71B
:103AE00070AFD3F818E091464FF00C0A09EB0501CE
:103AF00049100AFB013CF444DCF804C0644501D1E0
:103B00008AB2AEE734BF01F1FF3501F10109A945E1
:103B1000ECDD644538BF01F1FF318A423FF751AF18
:103B20000C2202FB013252F80E20551C3FF449AF23
:103B300094423FF646AFE3E72FF010FE41E700BFA7
:103B4000EC18402000F8FF3F00C553000819402042
:103B5000041940200C194020CCC45300124B10B55E
:103B6000197C044631B91E2316223C20BDE81040C2
:103B700022F018BFDB685B7C834203D80E23162239
:103B80000021F2E72FF0E8FD084B022243F8242041
:103B90000122074B43F824202FF0E0FD2046BDE82A
:103BA000104001F0BDB900BFEC18402008194020BA
:103BB0000419402030B40E4C0346257C35B91E2331
:103BC000172200213C2030BC22F0ECBEE468647C6B
:103BD000844201D80E23F3E74C1E022C01D9152391
:103BE000EEE7044C44F8231030BC01F0C3B900BF29
:103BF000EC184020081940200B4A10B4147C3CB942
:103C00001E23182200213C205DF8044B22F0CABE7E
:103C1000126892F82B20824201D81123F1E75DF857
:103C2000044B01F0CFB900BFEC184020094A117CC9
:103C300021B91E231A223C2022F0B4BE126892F849
:103C40002B20824203D811231A220021F3E701F02E
:103C500025BA00BFEC184020094A117C21B91E2367
:103C600020223C2022F09EBE126892F82B20824235
:103C700003D8112320220021F3E701F0CBB900BFC4
:103C8000EC184020094A117C21B91E2321223C2036
:103C900022F088BE126892F82B20824203D81123AA
:103CA00021220021F3E701F0D7B900BFEC18402032
:103CB00010B5044608B9012010BD006832F082FC3E
:103CC0000028F8D0A268074B9A42F4D1064B6268EC
:103CD0001B689A42EFD1E068044BC01A18BF01205C
:103CE000EAE700BFF9CF43F788C853000732086AF4
:103CF000002370B5214C06462375237738B912236B
:103D000000221F201146BDE8704022F04BBEFFF795
:103D1000CFFF054608B10523F2E7F36A602BFAD816
:103D2000174B726A1B682662991820832160B16A5A
:103D300001260A4466611344C4E90300C4E9013062
:103D4000104800F0E9FC0622294604F1840032F014
:103D500058FA0622294604F18A0032F052FA062265
:103D6000294604F1900032F04CFA6022294604F111
:103D7000240032F046FA267770BD00BF10194020AB
:103D800084C85300A4C5530070B5154E0146337F57
:103D90003BB90123012501221F2022F003FE284602
:103DA00070BD104B1C78044301D00223F2E72FF0C2
:103DB000CFFC337D013B012B10D8F57D022355B993
:103DC000F37501242FF0C6FC012CE8D10721064829
:103DD00000F0C8FCE3E725463376F2E70125F1E77A
:103DE0001019402064C85300A4C5530038B5114DC4
:103DF00001462B7F3BB90123012402221F2022F020
:103E0000D1FD204638BD0C4B1C78044301D0022361
:103E1000F2E72FF09DFC6B7D43F002036B75EB7DA9
:103E20000BB90123EB752FF095FC0821034800F036
:103E300099FCE6E71019402064C85300A4C553005C
:103E400038B5114D01462B7F3BB901230124FE22D9
:103E50001F2022F0A7FD204638BD0C4B1C780443E0
:103E600001D00223F2E72FF073FC6B7D43F00203D5
:103E70006B75EB7D0BB90323EB752FF06BFC082101
:103E8000034800F06FFCE6E71019402064C85300B7
:103E9000A4C5530038B5134D01462B7F3BB9012310
:103EA000012403221F2022F07DFD204638BD0E4B49
:103EB0001C78044301D00223F2E72FF049FC6B7D0C
:103EC00023F002036B75EB7D03F0FD03012B02BFB2
:103ED0002B7E2C76EB752FF03DFC0821034800F07B
:103EE00041FCE2E71019402064C85300A4C5530008
:103EF00070B5154E0146337F3BB9012301250C22D5
:103F00001F2022F04FFD284670BD104B1C78044343
:103F100001D00223F2E72FF01BFC337D033B022B81
:103F200010D8737D13F0010503D143F00103012480
:103F300073752FF00FFC012CE5D10021044800F02F
:103F400011FCE0E70125F4E71019402064C8530094
:103F5000A4C5530070B5154D01462B7F3BB9012315
:103F600001240D221F2022F01DFD204670BD104BA4
:103F70001C78044301D00223F2E72FF0E9FB2B7DEC
:103F8000033B022B0FD86B7D13F001060CD023F0FE
:103F900001036B752FF0DEFB002EE6D000210548F3
:103FA00000F0E0FBE1E726460124F3E7101940208A
:103FB00064C85300A4C5530070B5164E0D46337F38
:103FC00043B901230522014601241F2022F0EAFC07
:103FD000204670BD104B1C78044301D00223F1E74A
:103FE00011B912230522EFE7336A1B691BB923239A
:103FF00005222146E8E72FF0ABFB084B326A284642
:10400000DB7D31681269194432F0C2F82FF0A2FB4F
:10401000DEE700BF1019402064C8530066C8530093
:104020000A46014638B558B9104B1B78104C207F12
:1040300040B9012306221F2022F0B4FC012014E025
:104040000023F3E753EA010002D10A4B1D7F0DB9AB
:104050000223EFE71AB9122306220146EBE7012DEE
:10406000ECD121685B7DCB5C137038BD64C8530014
:104070001019402066C853000A46014610B558B9C9
:10408000104B1B78104C207F40B9012307221F20C2
:1040900022F088FC012013E00023F3E753EA01003B
:1040A00002D10A4B1B7F0BB90223EFE71AB9122387
:1040B00007220146EBE7012BECD1236A9B7F1370AB
:1040C00010BD00BF64C853001019402066C85300DB
:1040D00070B50D46014660B9114B1C78114E337F07
:1040E0004BB901230A2201241F2022F05BFC204649
:1040F00070BD0024F2E70C4301D00223F2E71DB9A2
:1041000012230A222146EEE72FF022FB336A3168A0
:104110002846DA8A32F03CF82FF01CFBE7E700BFB4
:1041200064C853001019402010B5134C237F43B9C5
:1041300001230B2201461F2022F034FC01231846E4
:1041400010BD0E4B1B78034301D00223F1E719B9D0
:1041500012230B220021EEE7002AF9D0207D02284D
:1041600006D0C41E022C05D8032414700870E6E79C
:104170000124FAE71370F9E71019402064C85300CE
:104180000F4B10B5197F31B901230F221F20BDE855
:10419000104022F007BC0B4A128A82420BD11B6AE4
:1041A0001A6912B1188B2EF0ADF801210648BDE84E
:1041B000104000F0D7BA03230F22FF21E6E700BF2B
:1041C0001019402066C85300A4C55300F7B5244D0C
:1041D0000C46297F31B9012314221F2022F0E2FB73
:1041E000012439E01F4E738A3146834203D00323F2
:1041F0001422FF21F1E70CB123681BB9122314220A
:10420000097EEAE7A3881BB12A6A1069984201D2A5
:104210002323F4E72B7D043B012BE1D86B68F77D6A
:104220000093D38AADF804302FF092FA0098A28858
:104230002168384431F0ACFF2FF08CFA2B6A6946C4
:10424000988BFFF749F904460028C9D12FF080FA6E
:10425000F3896B822FF07EFA204603B0F0BD00BFD9
:104260001019402066C853000A4B197F21B9012359
:1042700016221F2022F096BB074A1278024303D071
:10428000022316220146F4E71A6AD27F012A08BFE8
:104290005A7670471019402064C8530000207047B8
:1042A00002461E23124830B503FB0203114D9B7DCD
:1042B0002968CB5C13F0400014D01C2000FB025294
:1042C000507E012812D12A6A4C1C0731903214F812
:1042D000015F12F8013B8C4203EA050303D1181E6B
:1042E00018BF012030BD002BF1D0FBE70120F9E71A
:1042F00066C853001019402010B51F4C63893BB1AC
:10430000013B9BB263811BB90A211C4800F02AFAC9
:10431000A3893BB1013B9BB2A3811BB9062117487E
:1043200000F020FA638A63B12FF012FA638A013B2E
:1043300063822FF00FFA638A1BB902210F4800F045
:1043400011FA238A3BB1013B9BB223821BB90321A3
:104350000A4800F007FA2389012B0AD1A376013B12
:104360009BB223813BB904210448BDE8104000F012
:10437000F9B9002BF3D110BD10194020A4C553008A
:10438000F7B5194A034608460021156A4FF6FF762D
:104390000A460127303535F802CBB44514D033F83E
:1043A0001C408CB1013CA4B223F81C4064B903EB5F
:1043B000D20402F0070107FA01FC94F8601021EA28
:1043C0000C0184F860100121013292B2302AE2D14E
:1043D00039B16033694600930623ADF804302DF0FF
:1043E00085FF03B0F0BD00BF101940202DE9F04F4C
:1043F000044685B00E462FF0ABF904F1660704F1D0
:104400006C0506224FF0010A3946284631F0C0FEFD
:1044100038460622002131F0F4FE4FF0410B2FF018
:1044200099F9204B28461A6A002302F19007194691
:104430003032019210F801CB17F8012B1CEA020F61
:104440001FD0019A02EB430E00223EF8028B4FF67A
:10445000FF75A84512D00AFA02F515EA0C0F5FFAAB
:1044600085F90BD010F80D5C15EA090F02BF45EA7B
:104470000905012100F80D5C24F818B00132082A62
:10448000E3D10833302BD5D141B16034062302A9E2
:1044900030460294ADF80C302DF028FF05B0BDE891
:1044A000F08F00BF1019402013B50E4C217F012959
:1044B00016D1A37D019123F00203A375FFF71CFF22
:1044C000094800F08CF9019904F12400FFF78EFFF0
:1044D000019904F1240002B0BDE81040FFF750BF7D
:1044E00002B010BD10194020A4C55300094A01F1C3
:1044F000660301386C31126A903270B512F8015BB4
:1045000010F8016F1C7835402C4303F8014B8B42A7
:10451000F4D170BD1019402073B52D4C0D460646E0
:10452000217F31B9012310221F2022F03BFA02B073
:1045300070BD18B103231022FF21F5E735B12B68B8
:1045400023B1236AAA88DB8A9A4204D9214912231B
:104550001022097EE8E72FF0FBF8AA882968206876
:1045600031F016FE236ADB7F012B0BD02FF0F2F81F
:10457000236ADB7FB3B1174B5B7E012B12D0637EC6
:1045800083B1D4E73046FFF78BFE0128054605D1FD
:10459000214651F8240B0230FFF7A8FF2FF0DAF87C
:1045A000012DE5D1236A93F82120012A0BD11A6944
:1045B0000849ADF80420C97D2268588B0A44694631
:1045C00000922DF093FE0921034800F0CBF8AEE7EE
:1045D0001019402066C85300A4C5530037B5104DCC
:1045E0000C46286A026962B10E4B2268D97DA38805
:1045F0000A44008B5B1A69460092ADF804302DF036
:104600007BFE2B6ADB7F012B08D12FF0A1F82068FD
:1046100005490230FFF76AFF2FF09CF803B030BD68
:104620001019402066C8530034194020426943687D
:1046300070B50569545C2A5D013A2A550D466C1C1B
:104640009A78944208D3013A9A70DA788A4284BF01
:1046500002F1FF32DA7070BD4269165D5655E5B25F
:10466000EDE770B5466804460268337803EB8303D0
:1046700002EB83035B7BFF2B00D170BD03EB830256
:104680002568337005EB8205AB7BFF2B03D0A26856
:1046900052F8233098476B7BEDE72DE9F74F4768D9
:1046A000002403684FF0FF0A97F8008026464FF079
:1046B000010B054608EB88088946019203EB880840
:1046C0002FF046F8BB78A34200D94EB12FF042F844
:1046D000019B304689F800A01C7003B0BDE8F08F44
:1046E0006B6913F804A0D8F804300BFA0AF21A42E6
:1046F00004D021462846FFF799FFE3E7D8F80030B9
:104700001A4206D0FB78A34201D8631CFB70012635
:10471000D8E70134E4B2D5E738B543680021C27E5A
:1047200004461A70FF225A700A46257EC8B2854296
:1047300012D89A70DA701B78226803EB830302EBBD
:1047400083039B7BFF2B03D0A26852F8233098474A
:104750002046BDE8384084E7656901312A5425695F
:104760002A54E2E770B505460C4646682EF0F0FF85
:104770002B691B5D4BB9B3786A69D454B3780133A4
:10478000B3702A69135D01331355BDE870402EF0F4
:10479000E1BF70B505460E4644682EF0D9FF2B697F
:1047A0009B5D83B9A378E2789A4210D3A378013352
:1047B000A3702A69935D01339355E3786A69D654EF
:1047C000E3780133E370BDE870402EF0C3BF6A693F
:1047D000D11811F8011CD154013BDBB2E3E72DE9FC
:1047E000F3474368002504460DF107020DF1060169
:1047F000DD70FFF752FF012803D0284602B0BDE864
:10480000F0872EF0A5FF9DF8071020460026FFF741
:104810000DFF2EF09FFFD4F804909DF806A099F8A4
:10482000003089F8013099F801704FF000082368D2
:1048300007EB8707404603EB87077B7C984526D22A
:1048400080B1F379FF2B2DD133681A78A36853F820
:10485000223098470125EDB20DF107020DF1060156
:104860002046C6E7BE6806EBC8067379534509D1F2
:10487000B279FF2A09D0E36853F822309847431EE3
:104880005842584108F10108D7E70120FAE700280B
:10489000D7D13B7BFF2B89F80130C4D1003D18BF35
:1048A0000125D8E765682B786A789A4209D10027F4
:1048B00033799F4214D3F37920462B70FFF7D1FE52
:1048C000C8E703EB8303276807EB8307FB7BFF2B1A
:1048D00003D0A26852F8233098473B7B2B70E2E765
:1048E0003368DA5D0137A36853F822309847DFE771
:1048F000044A537DDB075FBF034B1B8803F1FF3383
:10490000138170471019402066C85300034B18826A
:1049100018B903210248FFF73CBF70471019402027
:10492000A4C55300F8B5154C0023154DFF21154EB5
:104930006375F77D60682361A38138442B681A6929
:1049400031F05FFC2B682068FF211A69384431F090
:1049500058FC2B686268997F737DD1542B68DB7F8C
:10496000012B05D1B27D61688B5C43F040038B5411
:1049700000236376A3602361F8BD00BF10194020B7
:104980003019402066C8530038B50A4C257D2EF0FA
:10499000DFFE0023E37523762EF0DCFE0123022DDB
:1049A000237505D1044B187EBDE8384029F064B862
:1049B00038BD00BF1019402066C85300064B10B523
:1049C000187E29F02DF80423102200211F20BDE8B5
:1049D000104021F0E7BF00BF66C85300024B587D6E
:1049E000C0F34000704700BF1019402038B50F4C8D
:1049F0000F4D637D287E13F0010F04BF2B882381A8
:104A000029F024F8E37D012B09D1237D013B012B03
:104A100005D8AB7D04216068184431F04AFB0023BF
:104A20006383A37D43F00103A37538BD10194020B3
:104A300066C8530010B50A4C637DDB070AD4094BE6
:104A40001B68988AFFF762FF074B1A88DB88228170
:104A5000638110BD00232382A360E381F9E700BFD7
:104A6000101940203019402066C8530040E710B5A7
:104A7000084C637DDB075FBF074B1B8803F1FF33E7
:104A800023812EF065FE00236382BDE810402EF0E6
:104A900061BE00BF1019402066C85300054B1B685B
:104AA00093F82030012B03BF034B587DC0F3400027
:104AB000002070473019402010194020014B03227C
:104AC0001A75704710194020024B1889B0FA80F00F
:104AD00040097047101940207047064B1B6893F837
:104AE000203023B9044B587DC0F3400070470020AC
:104AF000704700BF3019402010194020014B1B683F
:104B0000988A03E730194020FFF7E7BFFFF7F6BFA9
:104B10007047EDE6014B00221A82704710194020C1
:104B2000094B07B5187E0190FCF756FD074B01981D
:104B30001B68DB7F012B04D103B05DF804EB00F0B0
:104B400023BE03B05DF804FB66C853003019402053
:104B500010B5084C23895BB9617D11F0010107D1C3
:104B6000112313221F2021F01DFF034B1B882381DB
:104B700010BD00BF1019402066C85300014B04222D
:104B80001A757047101940207047B1E6034B587DE5
:104B900080F00200C0F34000704700BF10194020B1
:104BA000024B587DC04300F00100704710194020AF
:104BB00070477047FFF7EABF704799E638B5174C62
:104BC000174DA37D698803F0FD03A181A37509BB7F
:104BD00006211448FFF7DDFD05232375637D13F0DF
:104BE00001020CD1A17DC9070ED59B070CD52B89DD
:104BF00053B103210B48E3812282FFF7CAFDA37D55
:104C000023F00103A37538BD074B1B68988AFFF793
:104C10007DFEF4E743F00803A375DDE7101940209B
:104C200066C85300A4C5530030194020034B9A7D39
:104C300022F008029A750022DA60704710194020AD
:104C4000044B5A7D92075DBF9889B0FA80F0400905
:104C50000020704710194020044B587D10F00200CE
:104C60001EBF9889B0FA80F04009704710194020A3
:104C700038B52EF06DFD0B4C00230B4DE3752376FC
:104C80002EF068FDAB88287E63810223237528F00F
:104C900009FFAB7D042160681844BDE8384031F05D
:104CA00019BA00BF1019402066C85300FFF796BE1E
:104CB000704737B5274CA07D10F0020030D16368F3
:104CC0006946254D00932B68DB8AADF80430FFF769
:104CD00085FC2B686946988BFEF7FEFB054660B99C
:104CE0000123E3762EF034FD1C4BDB8963822EF02A
:104CF00031FDA37D43F00203A375638B93B9A37DBC
:104D00001A0709D5154B5B8801339BB2A3811BB9E8
:104D100006211348FFF73DFD0123238203B030BD78
:104D20000125EAE7E3898BB155B9013B0B4A9BB2F8
:104D3000E3811BB15089FFF7E9FDEFE79089FAE7BE
:104D4000A37D9B07E8D5054B5889F4E7034B988969
:104D5000F1E700BF101940203019402066C8530009
:104D6000A4C55300034B5B7DDB0701D4FFF7A1BF54
:104D7000704700BF101940200E4B1B6870B51B68B0
:104D8000164600EB800205460C4603EB8203D87BF7
:104D9000FEF79CFC08480E2303FB0505A97A1CB10D
:104DA000022C14BF012402240B1B5C425C413470B2
:104DB00070BD00BF201A4020261A402038B5094B8C
:104DC00000EB800204460D461B681B6803EB820360
:104DD000D87BFEF789FD0E23034803FB0404637BA5
:104DE0002B7038BD201A4020261A402000EB80008E
:104DF000F8B50F4684000025074E33681B681A1962
:104E0000127CAA4200D8F8BD1B593946585D0135BD
:104E1000FEF7F8FBF1E700BF201A4020F8B500EBE1
:104E200080000D4E00250D4F84000E443B681B682A
:104E30001A19127CAA4201D80120F8BD1B59585DED
:104E400000F0C6FF064B1A5C16F8013C9A4201D1ED
:104E50000135EBE70020F0E7ACC85300201A4020F2
:104E6000341A40202DE9F743174B00EB8006044627
:104E70001746B6000025DFF8589003EB0108D9F873
:104E800000301B689A19127CAA4206D82046FFF708
:104E9000C5FF387003B0BDE8F0839B590191585DA0
:104EA00000F096FF094B01991A5C18F8013C9A42F0
:104EB00007D0D9F800301B689B59585DFEF790FA6F
:104EC00001990135DBE700BFACC85300341A40201C
:104ED000201A40202DE9F74300EB80060025044608
:104EE0000D4FB600DFF83480A9463B681B6898195F
:104EF000007C854204D3204603B0BDE8F043B1E70F
:104F00009B59585D0135CDE9001200F061FF08F8AA
:104F10000090DDE90012E8E7201A4020341A402012
:104F2000114B10B51979044631B9012304228C20A4
:104F3000BDE8104021F036BD00F036FF012803D156
:104F4000042300211A46F2E7204600F02DFF0E222E
:104F5000064B02FB00300123C371204600F038FFEE
:104F6000034B03221A5410BD201A4020261A402059
:104F7000341A4020104B70B50C461979054631B9EA
:104F8000012307228C20BDE8704021F00BBD00F00A
:104F90000BFF012803D1042307220021F2E7611E41
:104FA0002846022996BF054B00245C5C00F010FFE8
:104FB000034B1C5470BD00BF201A4020ACC85300E6
:104FC000341A4020114B70B50C461979054631B999
:104FD000012309228C20BDE8704021F0E3BC00F0E1
:104FE000D9FE012803D1052309220021F2E71CB1D3
:104FF000022C14BF01240224284600F0CBFE044BEF
:105000000E2202FB0030847270BD00BF201A4020C7
:10501000261A40200E4B10B51979044631B90123E8
:1050200008228C20BDE8104021F0BCBC00F0B2FE8C
:10503000012803D1052308220021F2E7204600F0D1
:10504000A9FE044B0E2202FB00300123037310BDA6
:10505000201A4020261A40200E4B10B5197904461C
:1050600031B901230A228C20BDE8104021F09ABCFE
:1050700000F090FE012803D105230A220021F2E767
:10508000204600F087FE044B0E2202FB0030012375
:10509000437310BD201A4020261A40200E4B10B535
:1050A0001979044631B9012306228C20BDE810404D
:1050B00021F078BC00F06EFE012803D10523062202
:1050C0000021F2E7204600F065FE00F04DFEBDE84D
:1050D0001040FFF7C9B800BF201A4020174B70B529
:1050E0001E7905460C463EB90123032231468C2029
:1050F00021F058FC012017E011B902230322F6E742
:1051000000F03EFE0146B0B1284600F023FE0C4BF5
:105110000E2202FB00304378022B06D0032B08D06E
:10512000012BE7D10020207070BD012300202370E7
:10513000FAE70223FAE703231A46D8E7201A4020A9
:10514000261A4020522809D84F2812D8322810D0C9
:10515000403803288CBF002001207047662804D8FF
:105160005F2894BF00200120704780F08000012854
:10517000F0E7012070472DE9F74F0446CD488B46F4
:105180009246016880468B880AB901339BB2CA4FA8
:105190000E2504EB840905FB04754FEA8909AB80F1
:1051A0008B796B720BF0F006502E00F0B5810ED8A3
:1051B000302E5AD0402E00F00D81102E2DD003B08D
:1051C000BDE8F08F4226B346ECE76126FBE7602E90
:1051D00000F00B82802EF2D1BBF1810F00F09E8295
:1051E000BBF1820F00F0AA82BBF1800FE7D1002350
:1051F0000DF10702022120468DF80730FFF76AFE05
:105200009DF80730012B00F087822EF09DFA0E20CA
:1052100000FB047484F806B046E1204600F0A4FDCB
:105220000221FCF775FF03212046FFF7DFFD2EF07A
:105230008BFA0E23032203FB04735A7030229A71F7
:10524000D8F800301B68994499F8113053B9B9F86F
:105250000A30BAF1000F01D101339BB20E2202FBDA
:1052600004777B802EF072FA97E0ABF1300BBBF144
:10527000060FA4D801A353F82BF000BF9952500099
:10528000BF515000BF515000C9525000455350000B
:105290005D535000A5535000204600F065FD0121EC
:1052A000FCF736FF01212046FFF7A0FD0E2303FB8C
:1052B000047702237B702023BB71204600F054FD4D
:1052C0007E4906F073FB7AE70023D8F800202046D9
:1052D0008DF807302B7A1268FF2B9B464A4418BF83
:1052E0000133968818BF2B7200F03EFD0321FCF7B6
:1052F0000FFFD8F800301B684B44988910B1032188
:105300001BF099FF01212046FFF770FD2EF01CFADB
:105310003223B345EB80D8F800301B684B4434BFD0
:10532000DB881B896B802EF011FA0DF10702012139
:105330002046FFF797FD9DF80730012B7FF43FAF24
:10534000342640E72EF000FA0E2303FB04770223F5
:105350007B703323BB712EF0F9F9AEE703212046B1
:10536000FFF744FD2EF0F0F90E2303FB047703232F
:105370007B703023BB71D8F800301B68994499F8D2
:10538000113013B9B9F80A307B802EF0DFF92046CE
:1053900000F0EAFC0221FCF7BBFE204600F0E4FC32
:1053A00047498EE72EF0D0F90E203123002500FB6F
:1053B0000474A37125722EF0C9F9D8F800301B6867
:1053C0009944B9F80C0000283FF4F9AE29461BF0C7
:1053D00032FFF4E6ABF1400BBBF1060F3FF6EFAE48
:1053E000DFE80BF0040C1B32487286002046412691
:1053F00000F0BAFC0021FCF78BFEE4E6D8F80030A0
:105400001B684B44DB7BFF2B3FF4DCAE2D4B1B5D5D
:10541000012B14BF42266026D5E600230DF10702BA
:10542000022120468DF80730FFF754FD9DF8073024
:10543000012B07D02EF088F90E20402300FB0474C6
:10544000A37131E04326BEE600230DF107020321DC
:1054500020468DF80730FFF73DFD9DF80730012B02
:1054600006D02EF071F90E20412300FB0474E7E70B
:105470004426A8E6D8F800301B684B44DB7BFF2BA2
:1054800000F03681012300210DF107022046AB72A6
:105490008DF80710FFF770FC9DF80730012B06D040
:1054A0002EF052F94223AB712EF050F987E64526D3
:1054B00089E600BF201A4020261A4020B110402063
:1054C000B0104020AFC8530000230DF107020221A5
:1054D00020468DF807300123AB72FFF74DFC9DF895
:1054E0000730012B00F004812EF02EF94323DAE778
:1054F0000E2303FB04777D782EF026F901237B70C1
:105500001023BB712EF022F9002D3FF458AE204637
:1055100000F02AFC8F49D4E6ABF1500BBBF1040F2D
:105520003FF64DAEDFE80BF0030D21374B00D8F806
:1055300000301B684B44DB7BFF2B14BF51265226E7
:1055400041E6012300210DF107022046AB728DF8E0
:105550000710FFF711FC9DF80730012B03D02EF048
:10556000F3F850239FE752262DE600230DF10702A2
:10557000022120468DF80730FFF7ACFC9DF807307C
:10558000012B06D02EF0E0F80E20512300FB04740E
:1055900056E7532617E600230DF1070201212046A6
:1055A000EB718DF80730FFF795FC9DF80730012B64
:1055B00003D02EF0C9F8522375E7542603E60E25D2
:1055C00000230321204605FB04752B72FFF70EFC18
:1055D000204600F0C9FB0221FCF79AFD2EF0B4F83A
:1055E00003236B703023AB712AE6ABF1600BBBF188
:1055F000060F3FF6E4ADDFE80BF004152B3F546ACD
:105600007D0000232B73D8F800301B684B44D87BF7
:10561000FEF742F92B7B012B3FF4D7AD2EF094F827
:10562000602340E700230DF10702022120468DF898
:105630000730FFF74FFC9DF80730012B06D02EF006
:1056400083F80E20612300FB0474F9E66226BAE5B4
:10565000012300210DF107022046AB728DF80710DF
:10566000FFF78AFB9DF80730012B03D02EF06CF872
:10567000622318E76326A6E500230DF10702022145
:1056800020468DF807300123AB72FFF775FB9DF8BC
:105690000730012B03D02EF057F8632303E764266D
:1056A00091E500230DF10702032120468DF8073014
:1056B000FFF710FC9DF80730012B06D02EF044F8C0
:1056C0000E20642300FB0474BAE665267BE5002304
:1056D0000DF1070120466B738DF80730FFF76EFB65
:1056E0009DF80730012B03D02EF02EF86523DAE663
:1056F000462668E500230DF1070120466B738DF8FF
:105700000730FFF75BFB9DF80730012B3FF45BADE3
:105710002EF01AF86623C6E6812654E500230DF123
:105720000702012120468DF80730FFF7D3FB9DF8D3
:105730000730012B7FF469AD822644E52046032122
:10574000FFF754FB2EF000F80E20312300FB047409
:1057500076E600BF251A4020024620B90146022302
:105760008C2021F01FB9064B002206499A711A803D
:10577000DA720123086010460B714021FFF7FBBC71
:10578000261A4020201A4020174B70B5197904467C
:1057900031B901230B228C20BDE8704021F002B901
:1057A00000F0EEFA014608B90323F3E720460E2481
:1057B00000F0D0FA05462DF0C7FF0C4B04FB053472
:1057C000E67A1EB1BDE870402DF0C0BFA379312B41
:1057D000F8D10123E3722DF0B9FF3246802128462B
:1057E000FFF7C9FCE67270BD201A4020261A40203F
:1057F0000023012813700FD0022817D038B9A1F167
:105800003003012B01D9332902D1302313707047A3
:105810002029FCD14023F9E7A1F13003012BF4D971
:105820003329F2D01029F2D15023EFE71029FBD011
:105830002029ECD11023E9E7224BF7B50E46197960
:10584000044639B9012302228C2021F0ABF8012053
:1058500003B0F0BD00F094FA014608B90323F2E763
:10586000022E03D9082302220021EDE72046164D1F
:1058700000F070FA0E270446002307FB04578DF84A
:1058800007302DF061FFFB7A53B90DF10702B979AA
:105890003046FFF7ADFF9DF807300BB10123FB72D7
:1058A0000E236343EF18EE542DF050FF9DF80710C0
:1058B00029B100222046FFF75EFC0023FB72002086
:1058C000C6E700BF201A4020261A40202DE9F341E8
:1058D00004464FF00E08B84E002308FB04F88DF87C
:1058E00005302DF031FF06EB0807FB7A23B12DF0D0
:1058F0002DFF02B0BDE8F0810123FB722DF026FFE1
:105900007B88BD7916F808000BB1013B7B800E2720
:105910000DF10502294607FB0467B7F80280FFF77F
:1059200067FF9DF805304BB9FB79012B13D1A5F129
:105930003003012B0FD833238DF805309DF8051067
:1059400019B101222046FFF716FC0E20002300FBB0
:105950000464E372CDE7332D04D1B8F1000FEDD12B
:105960003523E9E7302D04D1B8F1000FE6D1362315
:10597000E2E72846FFF7E6FB01280146DED105F005
:10598000F007502F51D0602F6CD0402F40F0A980ED
:10599000A5F140020E23032A0AD8DFE802F0363EC2
:1059A000022F03FB04639B7A13B945238DF805305E
:1059B0009DF80530002BC1D10E2303FB04618A88BA
:1059C0000AB1013A8A8003FB046399880029B5D1A2
:1059D0005B7A002B40F0A780204600F0C5F90A232F
:1059E000014605228C2020F0DDFF322D04D085F009
:1059F0008005012D00F2958040239DE703FB0463A1
:105A00009B7A022BD4D14623D0E702212046FFF710
:105A100005FA0128CCD14323C8E703212046FFF72C
:105A2000FDF90128C4D14423C0E7512D0BD0522DDC
:105A300011D0502DBCD10E2303FB04639B7A002BA5
:105A4000B6D15223B2E702212046FFF7E7F9012839
:105A5000AED15323AAE72046FFF7E0F90128A7D1EA
:105A60005423A3E7A5F160020E23062AA0D8DFE89D
:105A700002F0040B131A222B300003FB04631B7B80
:105A8000012B95D1612391E702212046FFF7C6F94A
:105A900001288DD1622389E703FB04639B7A002BE5
:105AA00086D1632382E703FB04639B7A022B7FF496
:105AB0007FAF64237AE703212046FFF7AFF901287F
:105AC0007FF476AF652371E703FB04635B7B012BF7
:105AD00098E703FB04635B7B012B7FF469AF6023D2
:105AE00064E7802D0CD0812D13D0322D7FF460AF70
:105AF0002046FFF793F901287FF45AAF342355E786
:105B000002212046FFF78AF901287FF451AF812353
:105B10004CE72046FFF782F901287FF449AF822342
:105B200044E7412308E7502F8DF8061000F0A980C4
:105B3000602F51D0402F40F0D380403D8DF80710AA
:105B4000032D10D8DFE805F02B3C021F0DF10702F2
:105B500000212046FFF710F99DF80730012B02D1F4
:105B600045238DF805309DF80530002B7FF4E6AE17
:105B70000E2303FB04635A7A013A5A720F4A1268E1
:105B800092889A80DAE60DF1070202212046FFF79B
:105B9000F3F89DF80730012BE5D14623E1E70DF13D
:105BA000070202212046FFF75DF99DF80730012B1F
:105BB000D9D14323D5E700BF261A4020201A402020
:105BC0000DF1070203212046FFF74CF99DF807303D
:105BD000012BC8D14423C4E7603D8DF80710062D82
:105BE000C1D8DFE805F00416222E3A3C4200534BA0
:105BF0001A6804EB8403126802EB8303D87BFDF779
:105C00004BFE0E2303FB04631B7B012BABD16123F3
:105C1000A7E70DF1070202212046FFF723F99DF8BF
:105C20000730012B9FD162239BE70DF10702002172
:105C30002046FFF7A1F89DF80730012B93D163238D
:105C40008FE70DF1070202212046FFF795F89DF836
:105C50000730012B87D1642383E7662381E70DF1A9
:105C600007012046FFF7AAF893E70DF10701204648
:105C7000FFF7A4F89DF80730012B7FF474AF602381
:105C80006FE7512D8DF8071010D0522D1BD0502DDD
:105C90007FF469AF0DF107022046FFF76DF89DF81C
:105CA0000730012B7FF45FAF52235AE70DF1070253
:105CB00002212046FFF7D6F89DF80730012B7FF42C
:105CC00052AF53234DE70DF1070201212046FFF7A4
:105CD000C9F89DF80730012B7FF445AF542340E706
:105CE000802D11D0812D1CD0322D7FF43CAF0DF1D1
:105CF000060201212046FFF7B5F89DF80630012B7A
:105D00007FF431AF34232CE70DF106020221204647
:105D1000FFF7A8F89DF80630012B7FF424AF81230C
:105D20001FE70DF1060201212046FFF79BF89DF8C1
:105D30000630012B7FF417AF822312E7201A402090
:105D4000034B1B79012B02D10020FFF7BFBD704729
:105D5000201A4020034B1B681B689B7B181A18BF36
:105D600001207047201A4020044B00EB80001B6884
:105D70001B6803EB8000807B704700BF201A402027
:105D8000034B1B681B689B7B1B1A5842584170478A
:105D9000201A4020034B1B681B68DB7B181A18BFB6
:105DA00001207047201A4020084B1B681A68002306
:105DB00010B5147CD9B28C4201D8012010BD1168F5
:105DC000C95C01338142F5D10020F7E7201A402059
:105DD000084B02461B681968002330B50C7CD8B20A
:105DE000844201D8012004E00D68ED5C0133954246
:105DF000F5D130BD201A40200C4B002273B51B6832
:105E0000182644890546D86906FB04340DF10603BB
:105E1000ADF806200444A0892CF086FA30F0020385
:105E200004BFBDF80630EB8002B070BD381A4020C8
:105E3000022904D1824214BF0020012070470728A4
:105E400003D8481E18BF01207047182805D920F034
:105E50001003202B05D04028EDE7034BC340DB07A0
:105E6000F9D50120704700BF0011110110B504469B
:105E700008B9012010BD006830F0A4FB0128F8D15A
:105E8000A268074B9A42F4D1064B62681B689A429B
:105E9000EFD1E068044BC01A18BF0120EAE700BF49
:105EA000271D911134CA5300FE21F04690F85B2063
:105EB000002322F006020361838280F85B204FF604
:105EC0000172C365A0F86020064A8360A0F8A03084
:105ED000A0F8E230C0E9003313780BB1013B137036
:105EE000704700BF3C1A402070B503891A26858888
:105EF000ED1A144B1A68ADB24389946906FB03434B
:105F00001A44147C14B1033C18BF0124C388AB426B
:105F100003D3937D00200B7070BD507E0138001BB1
:105F2000C0B2B3FBF0F35BB1947D98B29C4202D255
:105F3000002C18BF2046FF28034628BFFF23E9E7AF
:105F40000120E8E7381A4020028983889B1AC2881A
:105F50009BB29A4213B5044610D20DF10701FFF728
:105F6000C3FF48B994F85D009DF8073098428CBF94
:105F70000020012002B010BD0020FBE70120F9E75E
:105F80003D4B1A684389D169F0B5182404FB03130B
:105F90001A44137C1BB1137D80F8A230012390F8C2
:105FA0005C20612A1DD0622A51D0602A16D1027964
:105FB0001C46511C1944C9B2082989BF591CC11873
:105FC0002418002589BFCBB202F00F0250FA81F1EC
:105FD00084F8A250013381F8A220DBB280F8A1300E
:105FE000F0BD81885C1C9A1C0579B1F5805F00EBDF
:105FF0000306D2B250FA84F44FEA112120D31027BD
:10600000024486F8A270002684F8A26082F8A2609A
:10601000DA1C50FA82F282F8A2601A1D50FA82F25B
:1060200082F8A2105A1D063350FA82F282F8A2506A
:10603000DAB2012380F85E3080F85D301346CDE798
:1060400041F0100186F8A21084F8A250F1E790F810
:106050006020C118013342F020040132DBB202F0AB
:106060000F0281F8A24080F8602090F85E20013293
:1060700080F85E20B2E700BF381A4020F7B590F8EC
:10608000A13004460BB9FFF77BFFE388002B3FD11B
:10609000694620460093ADF80430FFF7ADFE18B90D
:1060A000E388002B08BF0220E688002E2ED023892B
:1060B0001827A2886189D21A164B186892B294F8F0
:1060C000A130C56907FB010120462944897DC91A11
:1060D000A233CDB2234469469542009388BFD5B21E
:1060E000AE4236BFF5B201260026AFB2ADF804705D
:1060F000FFF782FE50B994F8A130002E1D44238989
:1061000008BF02203B4484F8A150238103B0F0BDB6
:106110000120C9E7381A402030B593B19C88023A73
:10612000012A20D8022922D0082C0DD8012908BF25
:10613000082443B39A889C80A2300021944227D837
:1061400030BD90F8A140EAE70C2C12D9102C12D9DE
:10615000142C12D9182C12D9202C12D9312C34BF5E
:1061600030244024E5E7002918BF0824E1E7402453
:10617000DFE70C24DDE71024DBE71424D9E718243B
:10618000D7E72024D5E790F8A12080F8A140D3E7F5
:106190001BB11D68A9540132D0E78354FBE71FB53A
:1061A0000C4B0446ADF80C201A6843891A20029162
:1061B00000FB032391690DF106020B4402A95889E3
:1061C0002CF0ACF820B9BDF80630E38004B010BD67
:1061D0000023FAE7381A4020F8B505460E46144663
:1061E00022B91146BDE8F840FFF7D9BFC38897B27E
:1061F000934203D3224631462846F3E70022114654
:10620000FFF7CDFF18B9EB88BB42F3D20220F8BDEF
:10621000F8B590F85C500446174646898DB10129BF
:106220000ED105F06005402D33D11B4B1A681A239F
:10623000916903FB06230B44394658892CF07EF8FC
:1062400000252DF07DFA94F859302046202B02BF0E
:1062500094F85B3023F0010384F85B30FFF726FEEF
:10626000012D05D194F85A3013B1002384F85A3027
:106270002DF068FA012D0ED1074B18211B6801FB88
:106280000636DA6939461644B089BDE8F8402CF084
:106290005BB80D46D5E7F8BD381A40202DE9F04728
:1062A000054638B90323012200212320BDE8F04729
:1062B00020F078BBFFF7DAFD044610B101231A463F
:1062C000F2E7224E2DF03CFA3560214D2F78012F58
:1062D0001BBF204B27462C701C7018BF01242DF0CB
:1062E00031FA012F14D0012C2BD10021E4241A4FB4
:1062F000884620E00122013708FB00901146FFF795
:1063000087FF3368F8B293F830308342F2D8EAE777
:1063100000274FF0E408DFF84090F2E704FB00703C
:10632000FFF7C4FD013190F85B3080F85A8023F00C
:10633000010380F85B303368C8B293F83030834291
:10634000ECD801232B70BDE8F08700BF381A40203D
:106350003D1A40203C1A4020441A402090F85C30FE
:1063600003F06003402B10B411D10A4B1A241968B2
:1063700043898A6904FB03131344DB7D2BB9012293
:1063800001215DF8044BFFF743BF0722F8E75DF8F2
:10639000044B7047381A402073B51D4B044690F8E3
:1063A0005C200D461968438902F0600040281AD12C
:1063B0001A26886906FB031303441889D5B12B6894
:1063C0000093AB88ADF8043002F06702694642F0F2
:1063D000100284F85C20FDF77FF898B90DB984F8B5
:1063E000A15002B070BD1826C86906FB0313034410
:1063F0005889E3E794F8A130ADF8043004F1A20322
:106400000093E1E7012220461146FFF701FFE8E78C
:10641000381A4020F0B51D4F1A26438993B03C68C6
:1064200005465E43A36933441C44237C1BB1237D92
:106430008DF80830012312AA28461A4402F8401C9D
:1064400012A95A1C51FA82F295F85D1002F8401C0C
:106450009A1C033312A9DBB251FA82F2217EADF805
:10646000043002AB02F8401C00936B46E27CA17C36
:10647000FFF752FE3B68694628469A6933449B5AA7
:106480002B61FFF789FF13B0F0BD00BF381A402021
:106490001D4B30B41A681A254389946905FB032300
:1064A0002344DB7BFF2B26D0184AE42404FB032380
:1064B00093F85C3003F09803102B1CD1042905D00D
:1064C00006290FD00023C380CD2300E0CC2380F821
:1064D0005C3030BC70474C23302180F85C3030BCDD
:1064E000FFF798BFCE23F2E700233221C3804D236C
:1064F00080F85C30F3E70429EDD00629F4D14E236F
:10650000312180F85C30EAE7381A4020441A4020F4
:1065100090F85F2030B472B1084A1A2503691168F7
:1065200042898C6905FB0212125B934203D8062153
:1065300030BCFFF7ADBF30BC704700BF381A4020F9
:10654000164B10B51A68044643891A20916900FB5E
:106550000323A21D0B44A18858892BF0D9FE0328E0
:1065600016D8DFE800F0180C120294F85C30412BCA
:1065700005D105212046FFF78BFF012010BD012228
:1065800000212046FFF744FEF7E70020E080F5E712
:1065900001221146F5E70020F0E700BF381A40203D
:1065A00038B590F85C300446412B18D0422B3CD0D3
:1065B000402B39D1012590F8A12000F1A20180F8EB
:1065C0005A50FFF709FE024620B1022829D00122C5
:1065D000114600E029462046FFF71AFE21E001237C
:1065E00090F8A12000F1A20180F85A30FFF7F4FDE5
:1065F00028B10228EBD12046FFF78AFF11E094F87A
:10660000A13004F15D01228984F8A10020461344E1
:106610002381FFF769FC0028EDD104212046FFF714
:1066200037FF002384F85A3038BD0123002280F858
:106630005A301146FFF7B3FD0028DAD12046FFF7A4
:1066400083FC0028E9D1D6E701292DE9F041044671
:1066500047892E4D02D0FFF711FD28602D6845B106
:10666000022D3ED0012220461146BDE8F041FFF741
:10667000CFBD274A182663891068904606FB03039E
:10668000C1690B44DE7BFF2E0BD0224AE42303FBBF
:10669000062393F85C5005F09805A5F110035D42C0
:1066A0005D4118225743CB19C11800232046CA7CEC
:1066B000897CFFF731FD94F85C30A5B1A3F160024D
:1066C000012A08D8E421134A01FB06222169126934
:1066D000914238BF226103F0670363F0770384F8C7
