:020000040050AA
:10000000000C4020351E50000312530023125300F1
:100010003D1253006712530091125300B312530064
:10002000B5125300B7125300B9125300CD19530043
:10003000BB125300D1125300D3125300E9125300E4
:10004000A5145300A9145300AD145300B114530068
:10005000B5145300B9145300BD145300C114530018
:10006000C5145300C9145300CD145300D1145300C8
:10007000D5145300D9145300DD145300E114530078
:10008000E5145300E9145300ED145300F114530028
:10009000F5145300F9145300FD14530001155300D7
:1000A00005155300091553000D1553001115530084
:1000B00015155300191553001D1553002115530034
:1000C000291553002D1553003115530035155300D4
:1000D000391553003D155300411553004515530084
:1000E000991553009D155300A1155300A5155300F4
:1000F000A9155300AD155300B1155300B5155300A4
:10010000B9155300BD155300C1155300C515530053
:10011000C9155300CD155300D1155300D515530003
:10012000D9155300DD155300E1155300E5155300B3
:10013000E9155300ED155300F1155300F515530063
:10014000FD15530001165300051653000916530000
:100150000D165300111653001516530019165300AF
:100160001D1653002116530025165300291653005F
:100170002D1653003116530035165300391653000F
:100180003D165300411653004516530049165300BF
:100190004D1653005116530055165300591653006F
:1001A0005D1653006116530065165300691653001F
:1001B0006D165300711653007516530079165300CF
:1001C0008116530085165300891653008D1653006F
:1001D0009116530095165300991653009D1653001F
:1001E000A1165300A5165300A9165300AD165300CF
:1001F000B1165300B5165300091753005D1753008D
:10020000B1175300B5175300B9175300BD1753006A
:10021000C1175300C5175300C9175300CD1753001A
:10022000D1175300D5175300D9175300DD175300CA
:10023000E1175300E5175300E9175300ED1753007A
:10024000F5175300F9175300FD1753000118530019
:1002500005185300091853000D18530011185300C6
:1002600015185300191853001D1853002118530076
:1002700025185300291853002D1853003118530026
:1002800035185300391853003D18530041185300D6
:1002900045185300491853004D1853005118530086
:1002A00055185300591853005D1853006118530036
:1002B00065185300691853006D18530071185300E6
:1002C000791853007D185300811853008518530086
:1002D000891853008D185300911853009518530036
:1002E000991853009D185300A1185300A5185300E6
:1002F000A9185300AD185300B1185300B518530096
:10030000B9185300BD185300C1185300C518530045
:10031000C9185300CD185300D1185300D5185300F5
:10032000D9185300DD185300E1185300E5185300A5
:10033000E9185300ED185300F1185300F518530055
:10034000FD185300011953000519530009195300F2
:100350000D195300111953001519530019195300A1
:100360001D19530021195300251953002919530051
:100370002D19530031195300351953003919530001
:100380003D195300411953004519530049195300B1
:100390004D19530051195300551953005919530061
:1003A0005D19530061195300651953006919530011
:1003B0006D195300711953007519530079195300C1
:1003C0008119530085195300891953008D19530061
:1003D0009119530095195300991953009D19530011
:1003E000A1195300A5195300A9195300AD195300C1
:1003F000B1195300B5195300B9195300BD19530071
:101000000020704770470020704700207047012083
:10101000704700207047EB23037000207047431E89
:10102000044A103012F8011B03F8011F8342F9D162
:101030000020704720BE530068B1012801D0002075
:1010400070474B1E054A103112F8010B03F8010FCF
:101050008B42F9D1F3E70A20704700BF20BE53004E
:10106000054B1A6802701A68120A42705A88827018
:10107000DB78C37000207047A4184020054B5A68E5
:1010800002705A68120A4270DA888270DB79C37083
:1010900000207047A4184020054B9A6802709A6897
:1010A000120A42705A898270DB7AC370002070473E
:1010B000A4184020054BDA680270DA68120A427000
:1010C000DA898270DB7BC37000207047A41840204F
:1010D000054B1A6902701A69120A42705A8A8270A4
:1010E000DB7CC37000207047A4184020054B5A6970
:1010F00002705A69120A4270DA8A8270DB7DC3700C
:1011000000207047A4184020054B9A6902709A6924
:10111000120A42705A8B8270DB7EC37000207047C7
:10112000A418402010B5054C204600F05DFA206858
:1011300000F06FFAC4E9000010BD00BFA018402005
:1011400010B5054C204600F04FFA206800F061FA17
:101150002060A06010BD00BFA018402010B5054C55
:10116000204600F041FA206800F053FA20606061E8
:1011700010BD00BFA018402010B5054C204600F05F
:1011800033FA206800F045FA2060A06110BD00BF6E
:10119000A018402010B5054C204600F025FA206824
:1011A00000F037FA2060E06110BD00BFA0184020B9
:1011B00010B5054C204600F017FA206800F029FA17
:1011C0002060E06010BD00BFA018402010B5054CA5
:1011D000204600F009FA206800F01BFA2060206128
:1011E00010BD00BFA018402008B507480AF0ACFCAD
:1011F00000F00CFC054B1B68022B01D01FF06EFDAC
:10120000BDE8084025F042BC6CCC5300AC594020EE
:1012100013B5044607202FF09DFF0DF1070120466E
:101220002CF018FD9DF80730022BF3D002B010BD52
:10123000022307B58DF807302DF08CFE0020FFF754
:10124000E7FF0DF1070101202CF004FD9DF80730A8
:101250003BB1002101202CF0FBFD002101202EF0EC
:101260001BFF12F0B5FA11F09FFC15F053FB034879
:1012700032F0BEFE03B05DF804FB00BF4C715400B9
:1012800008B52EF07DFD0020BDE80840FFF7C0BF87
:1012900008B527F0A7FA27F0BDFD27F063F902385B
:1012A000C0B20128F5D908BD08B5144827F000FCE4
:1012B000002027F071F8FFF7EBFF2CF0C5FB06F0DC
:1012C000FFFA0F4806F08AFB0E4802F031F80E488C
:1012D00004F0C8FF0D4830F0BBFC2CF075F90C4849
:1012E00002F0EAFC0B4804F01BFA0B4810F0A0FBDC
:1012F0000A48BDE8084015F0C5BF00BF540B5400B4
:1013000090C8530070C05300B0C65300C051540081
:101310000CC353008CC65300D0D0530020F65300AA
:1013200007B50DF107010DF1060025F09BFD32F028
:1013300099FAFFF7A5FF9DF80630502B03D003F074
:10134000EF03802B03D10121002000F0FCFD03B04E
:101350005DF804FB07B50DF107010DF1060025F05E
:1013600081FD9DF80630802B01D0502B04D100F078
:101370001FFB03B05DF804FB902BFAD12A2025F067
:1013800049FCF6E7704700BF7FB5114B002240F2E1
:10139000FE21104C01930292039001200292029BC5
:1013A0008B4207D9039B013B0393039B002BF5D191
:1013B00004B070BD029B039E00FA03F3019D33430A
:1013C00023436B400193029B01330293E7E700BF85
:1013D00055AA55AAAAAAAA0030B5039D0281837214
:1013E000C0E9005130BD10B50923094C09490E2050
:1013F000237006F063FC38B1012010BD0A20FFF70E
:10140000C3FF2378013B237020780028F6D1F4E74E
:1014100000104020C0184020054B064A1A6040F2D8
:1014200055525A6000221A8108229A72FFF7DBBFD8
:10143000C0184020011040200C4B102210B41A7329
:10144000020A0024D87342F0500259745C739A73F4
:101450000A0A1C811A7403F10C025DF8044B1A602D
:10146000034A5A6006229A72FFF7BDBFC018402097
:10147000F100DA982DE9F84F1D4C01234FF0100BC5
:10148000DFF8709063730B0E04F10C0A4FF0000844
:1014900063F07F03062705466174A37321FA0BF3FB
:1014A00084F80CB0E3730B0AC4F800A02374C4F8EA
:1014B0000490A4F80880A772FFF795FF0223064660
:1014C00084F80CB063732B0E657463F03F03A4F8CB
:1014D0000880A772A37325FA0BF3E3732B0AC4E900
:1014E00000A92374FFF77FFF3043C0B2BDE8F88F37
:1014F000C0184020F100DA98074B71225A7202227C
:1015000009335A70054A1360054B53600023138159
:1015100008239372FFF767BF00104020C0184020D7
:10152000F100DA9870B500240A4E41F2573574552F
:10153000FFF772FF40F2FF712046FFF77DFF6FF06B
:1015400060412046FFF796FFFFF7D6FF0123735552
:1015500070BD00BF0000294026F088B826F088B88A
:1015600026F086B87047704700487047340A540028
:101570007047704770477047704708B928F084BEBD
:101580007047012070477047704725F04DBF704786
:101590007047704770477047704700BF08B525F027
:1015A000E9FBFFF781FE0621002000F0CCFCBDE83E
:1015B00008402FF0E3BD002008B528F0C7FD28F053
:1015C00033FE3328FBD128F011FE0020BDE808408F
:1015D00028F0E4BD704707B568462FF0D3F80098AF
:1015E00003B05DF804FB704710B50446FFF7F3FF46
:1015F000206010BD10B50446FFF7EDFF001B10BDC5
:101600004CF25033584370474CF25033B0FBF3F078
:1016100070473223B0FBF3F070470000094B1B68A2
:101620001B6810B51C7831F055FC022C03D0032C3C
:1016300001D0012C04D12046BDE8104031F01EBC81
:1016400010BD00BF00715400024B1B681B68187866
:1016500031F04CBCFC70540008B531F041FC044B37
:101660001B681B6818700120BDE8084031F0FEBC03
:10167000FC705400F0B585B00024012001AE254671
:101680002146ADF80C403746CDE9014433F0B2FCB9
:10169000304631F04FFC08B90A2D12D17CB931F037
:1016A0001FFCC307054654BF0120204631F07EFCD5
:1016B000681CC0B231F01AFC284631F01DFC05B0A0
:1016C000F0BDC7F109039DF8042003F8162017F8B0
:1016D000013BF12B05D1012403220221012031F02D
:1016E00055FC0135EDB2D3E770B505460E4631F035
:1016F0009FFC0446284631F0A1FC6019307070BD93
:1017000070B505460E4631F09FFC0446284631F080
:10171000A1FC6019307070BD10B531F059FC044661
:101720000130C0B231F05AFC2046BDE8104031F023
:101730005BBC00BF0020704700207047002070474E
:10174000002070470020704700207047002070473D
:101750000020704770B51C880021E6088DB2AE42AB
:1017600004D824F0070400201C8070BD455C55544B
:101770000131F3E7C10710B5144605D5012031F05A
:10178000E7FC2070002010BD820703D5012031F056
:10179000D3FCF6E7430703D5012031F0E5FCF0E781
:1017A00010F00800EDD0012031F0EAFCE9E7042355
:1017B00000200B7070470020704700207047002009
:1017C0007047000037B5094C6846257831F096FA25
:1017D00010B99DF800302370054B00221B681B6870
:1017E0001D705A801A7103B030BD00BFD31840205D
:1017F0000871540007B5094A684613780133DBB213
:1018000013708DF800300023ADF802308DF80430ED
:1018100031F0C8FA03B05DF804FB00BFD3184020D4
:101820000121082024F0E8BF70470000002313B511
:101830000DF107008DF806308DF8073031F050FCBF
:101840009DF80700094BEF281C6807D931F01AFCF6
:101850009DF8072063681A7002B010BD0DF10601F3
:1018600031F046FC9DF80620F4E700BFF470540008
:10187000002307B50DF106008DF806308DF807300E
:1018800031F044FC0DF107019DF8060031F046FCF3
:10189000044B9DF807201B681B681A7003B05DF8A5
:1018A00004FB00BFF470540007B50DF1070031F0E0
:1018B00073FC50B99DF807300133DBB2044A12685B
:1018C0001268137003B05DF804FB0023F6E700BF55
:1018D000EC705400002070470020704700207047D3
:1018E0000021084633F086BB0021022033F082BB82
:1018F0000121022033F07EBB10B5044631F0EAFA34
:10190000022802D828B9002010BD0328FBD1AA2341
:1019100000E055232370F6E710B5044631F0DAFAFB
:10192000022807D0032809D0012809D1002318462E
:10193000237002E001230020237010BD0223FAE788
:101940000123F4E737B5044601A80D46FFF74CFE26
:101950000198FFF75EFE2368C31A2B60206003B076
:1019600030BD000025F023BA0B4B01381A78013244
:10197000D2B21A7007280DD8DFE800F00405060778
:1019800008090A0B704770477047704770477047E7
:1019900070477047704700BFD418402008B525F045
:1019A0009BFD002008BD7047002070477047000075
:1019B00007B5FFF7DDFD00F0BFFA25F055FE01A9E0
:1019C000002001F047FE019810B9012101F0FEFD51
:1019D0006946002001F03EFD009B032B07D1022148
:1019E000002001F0E1FC0121002001F0DDFC064CAB
:1019F00002F03EFD2BF0EEFD0AF036FE2378002BC0
:101A0000F6D028F041FCFCE75D314020202025F095
:101A1000A7BC00BFFEE70000424BD3F8342142F4DC
:101A20008052C3F83421D3F8342142F40052C3F871
:101A30003421D3F8042142F00102C3F804211A68CA
:101A400042F4B54242F070021A601A6842F425422C
:101A500042F00F021A60D3F80421D107FBD4D3F867
:101A60001421D204FBD52F4BD3F814219004FBD5BD
:101A7000D3F8302342F00052C3F83023D3F8342394
:101A800042F00042C3F83423D3F8342342F080728A
:101A9000C3F83423D3F8042342F00102C3F804232B
:101AA0001A6842F4B54242F070021A601A6842F4B1
:101AB000254242F00F021A601A4A1346D2F8041364
:101AC000C907FBD4D3F810239200FBD5D3F8142315
:101AD000002AFBDA134BD3F81423D001FBD5D3F83B
:101AE000302542F00052C3F83025D3F8042542F0E7
:101AF0000102C3F804251A6842F4B54242F07002AC
:101B00001A601A6842F4254242F00F021A60054B2F
:101B10001A46D3F80415C907FBD4D2F810359B0038
:101B2000FBD5704700C02D405E4BD3F8042312F064
:101B3000706203D05C4B13221A60FEE75B4BC3F864
:101B40008020C3F88420196841F00041196041F2F7
:101B50003C0199601A61DA6842F08042DA609A6862
:101B600042F080629A60D3F8802042F40032C3F8D9
:101B70008020D3F8842042F48032C3F884204C4A79
:101B8000116841F00101116051680029FCDA1A68FE
:101B900022F000421A60454B5A685107FCD5D3F831
:101BA000802042F00042C3F88020D3F8842042F025
:101BB0000042C3F884203B4BD3F80C2342F480321C
:101BC000C3F80C23D3F8102342F44032C3F8102397
:101BD000D3F8182342F44032C3F81823D3F814235F
:101BE00042F48032C3F81423D3F81C2342F4403269
:101BF000C3F81C232F4AC3F80023D3F8042312018F
:101C0000FBD52D4AC3F84023264A1346D2F8441385
:101C1000090E01F016011629F8D1D2F8481341F047
:101C20000041C2F848132449C2F88013D3F8842332
:101C3000120E02F01602162AF8D1D3F8882342F0C9
:101C40000042C3F88823D3F8882542F48032C3F8D1
:101C500088251A4AC3F88025124BD3F88425120E22
:101C600002F00902092AF8D1D3F8882542F000428F
:101C7000C3F88825D3F8C82542F48032C3F8C825B4
:101C80000E4AC3F8C025074AD2F8C4351B0E03F02C
:101C90000903092BF8D1D2F8C83543F00043C2F844
:101CA000C835704700802D40D818402000002E40D5
:101CB00000402D4004000008040000160400000944
:101CC00008B51B4A1B4B1C498B4229D31B4B0021D7
:101CD0001B4A934229D3FFF79FFE0024FFF724FFFE
:101CE0001849FE23184A19480B707E2313704FF4CD
:101CF00000130360C0F8B43101230B7013700C7033
:101D000013700B70137000222046013411462EF020
:101D1000CBFB102CF7D100F077F8FFF73FFEFEE782
:101D200052F8040B43F8040BCEE743F8041BD0E74A
:101D3000E082540000104020A0184020A01840204D
:101D4000208140201C1329408F132940BC022940C8
:101D500041EA020303439B0710B509D0431E0A441E
:101D60008A4200D110BD11F8014B03F8014FF7E78B
:101D7000C2F38103022B2AD0032B1AD0012B034676
:101D800020D022F00F020A448A4203F11003E9D066
:101D90000C68103143F8104C51F80C4C43F80C4CC3
:101DA00051F8084C43F8084C51F8044C43F8044CE3
:101DB000EAE7034651F8044B43F8044B51F8044B4F
:101DC00043F8044B51F8044B43F8044BD9E703465E
:101DD000F4E703460244934200D1704703F8011B25
:101DE000F9E700BFFEE7FEE70000070024ED00E092
:101DF00008ED00E000005000000C402060EF00E023
:101E000050EF00E014ED00E04FF000005FF810C06C
:101E1000CCF80000BFF34F8FBFF36F8F5FF81C103B
:101E2000086840F400300860BFF34F8FBFF36F8F36
:101E30007047FEE7002484F31088002484F314889C
:101E40005FF0807484F303885FF864005FF8645087
:101E5000296840EA010129604FF00151094A521AEC
:101E6000013A0020002309C1083AFCDA2EF056FCA2
:101E70005FF87CD05FF888005FF888100160FFF79A
:101E80001FFFD6E7FFFF4020F8B5468805460C4601
:101E90008F1997F825302BB98B6830461B68984707
:101EA00087F8250097F82530012B02D04FF6FF70F8
:101EB000F8BDA36830465B68984701281CD1A88804
:101EC0004FF6FF712A888842224412D0194B1D68B0
:101ED00094F83A30C3EB031305EB8303DC68062365
:101EE00003FB005323441B791BB1137D012B08BF57
:101EF000084601231375DBE70028D7D1E8884FF6A1
:101F0000FF712A888842224412D00A4B1D6894F837
:101F10003A30C3EB031305EB8303DC68062303FBB2
:101F2000005323441B791BB1137D002B08BF0846C7
:101F30000023DFE7DC18402008B500F037FC002361
:101F400080F8373008BDF7B50546019100F02EFC4A
:101F500090F83730019A012B15D1816800230E8B40
:101F60009CB2A64201D8042310E00C6904EBC30420
:101F70000133A788AF42F3D10123214603B0BDE866
:101F8000F04000F017BC002BEDD1012390F83A107F
:101F900002222A2003B0BDE8F04024F013BC70B543
:101FA00005460C4600F002FC90F8373043B9012397
:101FB00090F83A100E222A20BDE8704024F002BCAE
:101FC000022C01D90523F3E7836821462846012224
:101FD000DE680E23B446BDE870406047F8B507469A
:101FE0000E4600F0E3FB90F8373004468BB901232E
:101FF000152294F83A102A2024F0E4FB94F83730A4
:10200000012B05D10025A368AAB2598B914204D8AF
:10201000F8BD042EF2D90523EAE75B69A9B203EB08
:10202000C1018B88BB4204D103233246204600F015
:10203000C1FB0135E7E710B500F0B8FB90F8373089
:1020400043B990F83A10012322222A20BDE810401B
:1020500024F0B8BB8368022201210020DC6822231F
:10206000A446BDE81040604770B505460C4600F038
:102070009DFB90F8373043B9012390F83A100622BF
:102080002A20BDE8704024F09DBB0B2C01D905230C
:10209000F3E78368214628460522DE680623B44616
:1020A000BDE87040604710B500F080FB90F8373015
:1020B00043B990F83A10012314222A20BDE81040B9
:1020C00024F080BB836800210422DC6808461423C6
:1020D000A446BDE81040604770B505460C4600F0C8
:1020E00065FB90F8373043B9012390F83A10052288
:1020F0002A20BDE8704024F065BB062C01D90523D9
:10210000F3E78368214628460022DE680523B446AB
:10211000BDE87040604770B5044600F047FB502CA6
:1021200033D83F2C11D8122C28D80E2C94BF002362
:10213000012390F837207ABB012390F83A100F2240
:102140002A20BDE8704024F03DBBA4F14003102BD1
:1021500019D8DFE803F00918181809181818180911
:1021600018181809091809000123E2E701229A400A
:10217000104B1340003B18BF0123DAE7A4F1200302
:10218000DBB2132BF2D90023D3E704F0EF03A3F162
:10219000800253425341CCE70BB90523CDE7836856
:1021A000214609220020DD680F23AC46BDE87040BF
:1021B000604700BF7D000D0070B505460C4600F07D
:1021C000F5FA90F8373043B9012390F83A1010220D
:1021D0002A20BDE8704024F0F5BA042C01D905236B
:1021E000F3E78368214628460A22DE681023B446B6
:1021F000BDE87040604770B5044600F0D7FA90F82B
:10220000373043B990F83A10012324222A20BDE840
:10221000704024F0D7BA83680C2220460021DD6884
:102220002423AC46BDE87040604770B505460C46B7
:1022300000F0BCFA90F8373043B9012390F83A1017
:1022400016222A20BDE8704024F0BCBA082C01D91F
:102250000523F3E78368214628460E22DE6816230D
:10226000B446BDE87040604770B505460C4600F0C6
:102270009DFA90F8373043B9012390F83A101722AD
:102280002A20BDE8704024F09DBA082C01D905230E
:10229000F3E78368214628460D22DE681723B446FB
:1022A000BDE8704060472DE9F84F012390F8029097
:1022B0000546884699451646C3703BD11F4F4FF0DF
:1022C000000A96F83A304FF00A0B3A68C3EB031352
:1022D000018802EB830302EB81029B68D45A96F8D3
:1022E0003A103868C1EB01112B8800EB810C00EB30
:1022F0008303DCF8082013445B88A34202D85046CD
:10230000BDE8F88F00EB4402DCF804300134D35A06
:1023100050F821203146A4B20BFB03231844FFF7E9
:10232000B3FD4FF6FF7398421CBF4FF0010A08F847
:102330000090D4E74FF0000AE1E700BFDC1840202E
:102340002DE9F04F002697B00C46DFF880B2B24678
:102350000590CDE90866CDE90A6694F83A30B2B244
:10236000DBF80070C3EB031307EB8303198F914273
:1023700040D8002523689847ABB29A4500F21B81EC
:10238000636898472368984794F83950636894F8CD
:1023900038609847012D0BD123689847002384F8B3
:1023A000393063689847294604F10C000FF068FA49
:1023B000012E40F0088100252368984704F110069B
:1023C000636884F8385098472946254630460FF010
:1023D00057FA55F80C3B984715F8013BEA78B54297
:1023E00043EA020305F8013CF6D1636817B0BDE883
:1023F000F04F1847B5B2059A12F80580B8F1010FF1
:102400001AD1DB680622002102FB05350DAB222222
:10241000184607EB0509FFF7DCFC7A5B07468DF8E9
:102420005480ADF83820B9F80220ADF83A200022E7
:1024300001929DF854300BB901368EE737F82380AE
:1024400007EB8302013B52888DF854300623029239
:1024500003FB08F2CDE90323029B9DF8545043454A
:10246000E7D994F83A1008F10108DBF80030C1EB25
:102470000111039A1FFA88F803EB810108691044DF
:102480001A1892F802900092B9F1010F29D0B9F10F
:10249000020F47D0B9F1000F40F08A80185A137923
:1024A000013B012B18D816ABCDF8049003EB4A037F
:1024B0000AF1010A1FFA8AFA23F8380C009BDB782C
:1024C000012B02D1019B002BB3D1039B0633039355
:1024D000B9F1000FC0D0ACE7A3689B6898470190A2
:1024E000ECE70135029A185AEDB2C96807EB850C82
:1024F0008DF8545027F82580ACF80220049A02FB8E
:1025000000109DF8541016AA01311D181B5AC9B2AB
:102510008DF8541002EB810121F8243C6B8821F8DE
:10252000223CCBE72168CDE90630884794F83A1081
:10253000DBF80020C1EB0111DDE90630185A52F832
:1025400021300A2101FB003021461044FFF79CFC9A
:102550006368814698474FF6FF73994528D0013547
:10256000029ADBF80010EDB207EB85038DF85450AA
:1025700027F825805A8016AA94F83A30C3EB031343
:1025800001EB8303D868049B03FB09009DF85430DA
:102590004FF0010901330D18095ADBB28DF85430A0
:1025A00002EB830323F8241C698823F8221C85E7A7
:1025B0004FF0000982E7A36808AA9B6832F815006B
:1025C00001359847D8E617B0BDE8F08FDC184020F9
:1025D0002DE9F04186B000F0E9F890F83730044674
:1025E000EBB100251122002101A82E46184F4FF013
:1025F000010833F014FD2368984794F83A303A689C
:10260000C3EB031302EB8301C88EA9B2884209D839
:10261000636898471EB1214601A8FFF791FE06B0F6
:10262000BDE8F081A8B252F823104FF00A0C013532
:102630000CFB00132146D018FFF726FC4FF6FF7362
:1026400098421FBF06AB0126C01800F8148CD4E7CF
:10265000DC184020F0B5174B01EBC10190F83A208F
:102660001B68C2EB021203EB820252691144194447
:102670000E7A012E1AD180F839604C1E10300331C9
:1026800014F8015F012E10F8043C227908BF2B4397
:10269000A14203EA020300F8043C037845EA03057B
:1026A00002EA050200F8012BEAD1F0BD012380F80F
:1026B0003830E2E7DC18402000F07CB810B5044662
:1026C00008B9012010BD406A33F08AFE0128F8D114
:1026D000E26A094B9A42F4D103F146436FF4CF7199
:1026E000A26AA3F57F130B449A42EAD1206B034BF5
:1026F000C01A18BF0120E5E75CDB6166C93861D705
:10270000F7B50446274E38B90146019001AA2A20A0
:102710002FF01EFA00B9019C34603268224C3AB99D
:10272000022394F83A102A2024F04CF803B0F0BDAC
:102730001046FFF7C3FF054610B106230022F0E75D
:1027400084F8370000F006FB94F83A3028463168E8
:102750000A25C3EB031301EB83039E8E82B29642DC
:102760000DD80025A368A8B29A8B824211D8002305
:102770000122C4E9033384F837202387D6E71A6897
:1027800005FB002201308F188A5A3F7A22441775C0
:10279000E4E71B68984714FA85F3013583F82500B0
:1027A000E0E700BFDC184020501040200048704790
:1027B00050104020F0B587B007461D460C4601A8D2
:1027C00000211646112233F02AFC3B689847032D5E
:1027D00006D8013D022D16D8DFE805F017191900BB
:1027E000802D16D000243A4601A92046FFF75BFD54
:1027F00004467B689847012C03D1394601A8FFF7AE
:102800009FFD07B0F0BD6671EDE7E680EBE7A671CE
:10281000E9E72671E7E700BF024B5879831E58426B
:102820005841704714104020024B5879B0FA80F09C
:102830004009704714104020F6E7034B93F822003C
:10284000B0FA80F04009704714104020024B588DB8
:10285000B0FA80F04009704714104020024B588DA8
:10286000431E58425841704714104020054B93F8BE
:102870003A00042803D0431E5842584170470120B3
:10288000704700BF14104020034B93F83A00C31E5A
:1028900058425841704700BF14104020054B93F830
:1028A0003200042803D0431E58425841704701208B
:1028B000704700BF14104020034B93F83200C31E32
:1028C00058425841704700BF14104020024B588DA9
:1028D000831E58425841704714104020054B5A79C6
:1028E000022A04D1588D831E584258417047002057
:1028F000704700BF14104020064B9A7A032A07D174
:10290000588D023880B201288CBF0020012070470A
:102910000020704714104020044B588D023880B2BC
:1029200001288CBF00200120704700BF14104020F8
:10293000054B5A8D042A04D1987A831E5842584177
:1029400070470020704700BF14104020044B5A7994
:1029500022B9588D031F58425841704700207047D4
:1029600014104020024B588D831F58425841704725
:1029700014104020054B5A8D072A04D1987A431E23
:102980005842584170470020704700BF1410402043
:10299000024BD878431E58425841704714104020CB
:1029A000F6E7F5E7034B93F82100431E58425841E0
:1029B000704700BF14104020034B93F82700431EBC
:1029C00058425841704700BF14104020F4E7034BB1
:1029D00093F83700431E5842584170471410402066
:1029E000F5E7034B93F82F00431E584258417047B8
:1029F00014104020F5E7DFE7054BDA78012A05D10E
:102A000093F82700431E58425841704700207047F2
:102A100014104020054B5A7A012A05D193F827005B
:102A2000431E584258417047002070471410402000
:102A3000C2E7064B93F82720012A04D1587A431E97
:102A40005842584170470020704700BF1410402082
:102A5000D2E7B1E7EDE7024B53F83030184700BF3B
:102A6000C8BE5300024B03EBC0004368184700BFC9
:102A7000C8BE5300024B03EB8000D0F890301847DB
:102A8000C8BE5300012108B508461FF00DFF002005
:102A900008BD0121022008B51FF006FF002008BD77
:102AA0000121002008B51FF0FFFE002008BD002115
:102AB000012008B51FF0F8FE002008BD002108B570
:102AC00008461FF0F1FE002008BD0021022008B5D5
:102AD0001FF0EAFE002008BD08B501201EF0B8FB7B
:102AE000002008BD0721034808B5FFF7B3FD00200B
:102AF00008BD00BF501040200621034808B5FFF76D
:102B0000A9FD002008BD00BF50104020052103484A
:102B100008B5FFF79FFD002008BD00BF5010402002
:102B20000421034808B5FFF795FD002008BD00BF4C
:102B3000501040200321034808B5FFF78BFD00200B
:102B400008BD00BF501040200221034808B5FFF720
:102B500081FD002008BD00BF501040200121034826
:102B600008B5FFF777FD002008BD00BF50104020DA
:102B70000021034808B5FFF76DFD002008BD00BF28
:102B8000501040200021502024F034B90021902022
:102B900024F030B908B5FEF7F5FB002008BD07208A
:102BA0002FF0B4BF04202FF0B1BF03202FF0AEBF31
:102BB00001202FF0ABBF00202FF0A8BF08B530F0E8
:102BC000C5FD002008BD01202FF092BF03202FF08B
:102BD0008FBF02202FF08CBF0721002008B5FFF720
:102BE000B2F9002008BD0421002008B5FFF7ABF9B9
:102BF000002008BD0321002008B5FFF7A4F900203C
:102C000008BD0221002008B5FFF79DF9002008BD8E
:102C1000002108B50846FFF796F9002008BD08B561
:102C2000FEF706FB002008BD08B5FEF7DDFA002020
:102C300008BD08B5FEF784FA002008BD08B5FEF708
:102C400071FA002008BD08B5FEF7B2FA002008BDF1
:102C500008B5FEF783FA002008BD08B5FEF7B6FAFE
:102C6000002008BD08B5FEF795FA002008BD08B59C
:102C7000FEF782FA002008BD08B5FEF76BFB0020C6
:102C800008BD08B5FEF74CFB002008BD08B51FF0D5
:102C90003BFD002008BD0121002008B508F0F8FD2B
:102CA000002008BD2DE9F74F06461A4898460F4602
:102CB00090F873301446012B0ED1174B002500F10C
:102CC0003C0B03EB820203EB4403D2F844A1B3F8BC
:102CD0008091ABB2994503D8002003B0BDE8F08FD6
:102CE0000623A9B20A2C03FB01A10B790ED126FA07
:102CF00003F303F001033BB18B783A465846CDE924
:102D000000830023FFF7D8FC0135E2E79A1B53420A
:102D10005341F0E714104020C8BE53001FB50C4CBF
:102D200094F87330012B11D10DF10F010DF10E004C
:102D30002FF0CAFE237A9DF80F20A11D0193FF23D7
:102D400004F13C0000938023FFF7B6FC04B010BDF3
:102D500014104020404B1868404B2DE9F04F93F879
:102D6000762000253E4F991DC2EB0212AE46BC46AE
:102D70004FF0010800EB82020E88013506313E4417
:102D800096F89E61FF2E1BBF9469361801F803EC7C
:102D9000365D1CBF01F8038C01F8026C052DEBD1E8
:102DA000304F00254FF0010A07F13C08A94657F8BB
:102DB000041B51B901350F2DF9D1998C614491F85B
:102DC0009E51FF2D1DD1002121E038F815B04FF0A4
:102DD000000E1FFA8EF65E45ECD20E880EF1010E43
:102DE0000631664496F89E61FF2E1BBF9469361823
:102DF00001F8039C365D1CBF01F803AC01F8016CBF
:102E0000E7E7D16901EB4501415A5985012183F872
:102E10002710998D614491F89E11FF291BBF091855
:102E200095690021495D1CBF83F83210012183F8A8
:102E30002F10998E0CEB010494F89E11FF291BBFF3
:102E4000926940180022825C1CBF83F83A2001225C
:102E500083F83720BDE8F08FDC18402014104020A4
:102E6000C8BE53000CC0530007B5094890F8733032
:102E7000012B0AD1837B00F10C0100223C3001932D
:102E8000FF2300938023FFF717FC03B05DF804FBDA
:102E90001410402007B5094890F87320012A09D181
:102EA000837B00F10C013C300193FF2300938023CE
:102EB000FFF702FC03B05DF804FB00BF14104020D4
:102EC00007B5094890F87330012B0AD1837B00F1D4
:102ED0000C0102223C300193FF2300938023FFF773
:102EE000EBFB03B05DF804FB1410402007B5094864
:102EF00090F87330012B0AD1837B00F10C0103227F
:102F00003C300193FF2300938023FFF7D5FB03B0F0
:102F10005DF804FB1410402007B5094890F87330A1
:102F2000012B0AD1837B00F10C0104223C30019378
:102F3000FF2300938023FFF7BFFB03B05DF804FB82
:102F40001410402007B5094890F87330012B0AD1BE
:102F5000837B00F10C0105223C300193FF23009399
:102F60008023FFF7A9FB03B05DF804FB1410402099
:102F700007B5094890F87330012B0AD1837B00F123
:102F80000C0106223C300193FF2300938023FFF7BE
:102F900093FB03B05DF804FB1410402007B509480B
:102FA00090F87330012B0AD1837B00F10C010722CA
:102FB0003C300193FF2300938023FFF77DFB03B098
:102FC0005DF804FB1410402007B5094890F87330F1
:102FD000012B0AD1837B00F10C0108223C300193C4
:102FE000FF2300938023FFF767FB03B05DF804FB2A
:102FF0001410402007B5094890F87330012B0AD10E
:10300000837B00F10C0109223C300193FF230093E4
:103010008023FFF751FB03B05DF804FB1410402040
:1030200007B5094890F87330012B0AD1837B00F172
:103030000C010A223C300193FF2300938023FFF709
:103040003BFB03B05DF804FB1410402007B50948B2
:1030500090F87330012B0AD1837B00F10C010B2215
:103060003C300193FF2300938023FFF725FB03B03F
:103070005DF804FB1410402007B5094890F8732050
:10308000012A09D1037D00F112013C300193FF2395
:1030900000938023FFF710FB03B05DF804FB00BF33
:1030A0001410402007B5094890F87330012B0AD15D
:1030B000037D00F1120102223C300193FF230093B3
:1030C0008023FFF7F9FA03B05DF804FB14104020E9
:1030D00007B5094890F87330012B0AD1037D00F140
:1030E000120103223C300193FF2300938023FFF75A
:1030F000E3FA03B05DF804FB1410402007B509485B
:1031000090F87330012B0AD1837E00F1180102225E
:103110003C300193FF2300938023FFF7CDFA03B0E7
:103120005DF804FB1410402007B5094890F873209F
:10313000012A09D1837E00F118013C300193FF235D
:1031400000938023FFF7B8FA03B05DF804FB00BFDB
:103150001410402007B5094890F87330012B0AD1AC
:10316000837E00F1180100223C300193FF2300937D
:103170008023FFF7A1FA03B05DF804FB1410402090
:1031800007B50A4890F87330012B0BD190F8203026
:1031900000F11E0105223C300193FF2300938023A0
:1031A000FFF78AFA03B05DF804FB00BF141040205B
:1031B00007B5094890F87320012A0AD190F8203009
:1031C00000F11E013C300193FF2300938023FFF7A1
:1031D00073FA03B05DF804FB1410402007B50A48E9
:1031E00090F87330012B0BD190F8203000F11E01C4
:1031F00004223C300193FF2300938023FFF75CFA05
:1032000003B05DF804FB00BF1410402007B50A4866
:1032100090F87330012B0BD190F8203000F11E0193
:1032200006223C300193FF2300938023FFF744FAEA
:1032300003B05DF804FB00BF1410402007B50A4836
:1032400090F87330012B0BD190F8203000F11E0163
:1032500002223C300193FF2300938023FFF72CFAD6
:1032600003B05DF804FB00BF1410402007B50A4806
:1032700090F87330012B0BD190F8203000F11E0133
:1032800003223C300193FF2300938023FFF714FABD
:1032900003B05DF804FB00BF1410402007B50A48D6
:1032A00090F87330012B0BD190F8203000F11E0103
:1032B00000223C300193FF2300938023FFF7FCF9A9
:1032C00003B05DF804FB00BF1410402008B51E22B7
:1032D000112300213C2023F075FA012008BD08B518
:1032E0001F22112300213C2023F06CFA012008BD8D
:1032F00010B5044608B9012010BD006833F070F81D
:103300000128F8D1A268074B9A42F4D1064B6268B3
:103310001B689A42EFD1E068044BC01A18BF012025
:10332000EAE700BF102108F4C8C253007C2A02CD8E
:103330002DE9F041044638B91423012200213C2034
:10334000BDE8F04123F03EBAFFF7D2FF0028F3D1E9
:1033500022694FF0020C104B4FF0080E22440F4927
:103360001C6080465A6062690D4D22449A60E26991
:1033700014440C4ADC60677C86B2B74203D8012251
:103380001A74BDE8F081013042F804CB01F801EB7A
:1033900045F8048BEFE700BFE018402000194020FB
:1033A000F8184020FC184020F8B5264E0446307C22
:1033B00038B91E23032200213C2023F003FA012008
:1033C000F8BDF3685B7CA34201D80F23F2E74B1EE4
:1033D000022B01D91523EDE7326804EB44030229DF
:1033E000D0694FEA8307105802EB83020244507AF7
:1033F0000AD003290DD00129E1D1134B5B6898470E
:10340000003818BF0120DBE7104B012243F82420CD
:10341000F3E70D4B5B6898470C4B0022003843F8EC
:10342000242018BF01203368DA699A583B441344BA
:103430001B7A012B01BF064A135D43F008031355A5
:10344000BEE700BFE018402000C35300F81840203A
:103450000019402038B5104B05460C46187C38B989
:103460001E23042200213C2023F0ACF9012038BDAA
:10347000DB685B7CAB4201D80F23F2E711B9142360
:103480000422F0E730F076F8044B53F8253023603F
:1034900030F072F80020EAE7E0184020FC184020E5
:1034A0002DE9FF47444B0D460446197C994631B936
:1034B0001E2305223C2023F085F9012477E01B68B8
:1034C000DB8C834203D8322305220021F2E70DB9B9
:1034D0001423F9E72B68002BFAD0D9F80420070150
:1034E000AE8802EB0013D25912F0804F9A890CBFBC
:1034F0004FF008084FF04008964226D99B7B13F006
:1035000001011BD099071FD546451ED946460B23FE
:10351000052200213C2023F055F9D9F804303B4422
:1035200093F80A8093F804A030F024F8234B53F862
:103530002830012B0CD030F01FF8BEE75A230522AB
:103540003C2023F02DF9B8E71646FF2EE5D1B4E76D
:103550001B4B53F82830032BEDD1D9E90031DA6940
:10356000C81953F802C00C2212FB08C213441B7A7C
:103570003BB1144B13F808301B0702D5437A012BDB
:10358000D9D1CB59ADF80C4002932B688DF80E6061
:1035900001932FF0F1FF2FF0EDFF0B4B01A95046E7
:1035A0001B689847041E18BF01242FF0E5FF204632
:1035B00004B0BDE8F08700BFE0184020FC184020B0
:1035C000F81840200019402000C353001D4B10B5CF
:1035D0000446187C38B91E23092200213C2023F020
:1035E000F1F8012010BDDA68527CA24201D80F2305
:1035F000F2E7032901D8022901D11623ECE7124A88
:1036000052F824000128ECD1104AB9B1032915D091
:103610001B6842F82400DA6999580C2212FB041244
:1036200013441B7A012B0BD12FF0A4FF084A135D22
:1036300043F0080313552FF09FFF01E042F82410D8
:103640000020CFE7E0184020FC184020F818402068
:10365000001940200D4A10B5147C3CB91E230A22E3
:1036600000213C2023F0AEF8012010BDD268527C2E
:10367000824201D80F23F2E711B914230A22F0E79E
:10368000034A52F8202000200A60EEE7E0184020AC
:10369000F8184020124B10B51C7C3CB91E230D229B
:1036A00000213C2023F08EF8012010BD1B6893F808
:1036B0002B40844201D81123F1E7022901D91223BA
:1036C000EDE71C6A0C2212FB00401C220344587ACE
:1036D00042430448BDE810408258187A104700BFA2
:1036E000E0184020E4C25300124B10B51C7C3CB9DA
:1036F0001E230E2200213C2023F064F8012010BD7F
:1037000008B91423F5E71B6893F82B208A4201D8E7
:103710001123EEE71C6A0C2212FB01411C240B440E
:1037200005495A7A04FB02120146187A5268BDE82C
:1037300010401047E0184020E4C25300124A10B570
:10374000147C1CB91E230F22002102E031B914237E
:103750000F223C2023F036F8012010BD136893F8A7
:103760002B20824201D81123EDE71C6A0C2212FBA8
:1037700000401C24034405485A7A04FB0202187ACC
:103780009268BDE810401047E0184020E4C25300A2
:10379000124B10B51C7C3CB91E23102200213C208A
:1037A00023F010F8012010BD1B6893F82B408442D1
:1037B00001D81123F1E7022901D91323EDE71C6A8F
:1037C0000C2212FB00401C24034405485A7A04FBD7
:1037D0000202187AD268BDE810401047E018402075
:1037E000E4C253002DE9F0471B4E0746317C41BB34
:1037F00001251E2311223C2022F0E4FF2846BDE8CB
:10380000F0871A6A08FB042298189B581F420AD0B6
:10381000437A007A0AFB03931B69984700284FF00C
:10382000010108BF00250134336893F82B20A24220
:10383000E7D80029E2D1102311223C2022F0C2FF58
:10384000DCE7002401254FF00C08DFF8109021463A
:103850004FF01C0AE8E700BFE0184020E4C2530024
:10386000114B10B5197C31B91E231A463C2022F0A9
:10387000A9FF012010BD1B6893F82B20824203D8BA
:1038800011231E220021F1E7196A0C2212FB0010FD
:10389000064903441C205A7A00FB0212187A526926
:1038A000BDE81040104700BFE0184020E4C25300BC
:1038B000114B10B5197C31B91E231F223C2022F078
:1038C00081FF012010BD1B6893F82B20824203D892
:1038D00011231F220021F1E7196A0C2212FB0010AC
:1038E000064903441C205A7A00FB0212187A926996
:1038F000BDE81040104700BFE0184020E4C253006C
:1039000070B5174C217C31B91E2313223C20BDE831
:10391000704022F057BF2368DB8C834203D80D230D
:1039200013220021F2E76268060102EB0010857A9B
:103930002FF020FE0B494A5D22F008024A552FF075
:103940001BFE63683344197AFF2908D0064A02EB4C
:10395000C10252681AB1D888BDE87040104770BDE6
:10396000E018402000194020CCC253002DE9F34755
:10397000654F3C7C14B91E23142202E040B9142385
:103980001A4600213C2022F01DFF02B0BDE8F0875E
:10399000FB6805791B7CAB4201D80C23ECE704687B
:1039A000A30004D4002C04DB584B23400BB10A23A2
:1039B000E2E7B1F80480B8F1400F01D90B23DBE74F
:1039C0000E68002EDBD03B68D9691944D1F804C0D9
:1039D0000CEB45029A5E002ADFDB4D4AC968127A79
:1039E0002A44062503EB420232F80C204FF6FF7CF6
:1039F00005FB021299184D886545C6D09A5A624552
:103A0000C3D0097989B9AA424DD10C25996905FB22
:103A100002115D186D68AC4207D05958B1F1FF3FF3
:103A2000B3D0AC42B1D38C42AFD844790C20996961
:103A300000FB0233BD680B44B3F808902FF09AFDE9
:103A4000344B53F82430012B5AD1334B53F82430E4
:103A500023F00203012B53D105EB89072FF08CFDD6
:103A6000ADF80480BB780096984528BF9846ADF81D
:103A700004802FF07FFD294A135D190702D523F03A
:103A8000080313552FF078FDFB78FF2B3FF47DAF33
:103A9000234A52F83330002B3FF477AF694635F8AC
:103AA0002900984771E73FF770AFD3F818E09146C7
:103AB0004FF00C0A09EB050149100AFB013CF444E4
:103AC000DCF804C0644501D18AB2AEE734BF01F12D
:103AD000FF3501F10109A945ECDD644538BF01F16D
:103AE000FF318A423FF751AF0C2202FB013252F8FC
:103AF0000E20551C3FF449AF94423FF646AFE3E732
:103B00002FF03AFD41E700BFE018402000F8FF3FEA
:103B100000C35300FC184020F81840200019402032
:103B2000CCC25300124B10B5197C044631B91E2388
:103B300016223C20BDE8104022F044BEDB685B7CCE
:103B4000834203D80E2316220021F2E72FF012FD44
:103B5000084B022243F824200122074B43F824207B
:103B60002FF00AFD2046BDE8104001F0BDB900BFAE
:103B7000E0184020FC184020F818402030B40E4CCB
:103B80000346257C35B91E23172200213C2030BC7A
:103B900022F018BEE468647C844201D80E23F3E767
:103BA0004C1E022C01D91523EEE7044C44F82310D7
:103BB00030BC01F0C3B900BFE0184020FC18402021
:103BC0000B4A10B4147C3CB91E23182200213C205F
:103BD0005DF8044B22F0F6BD126892F82B20824269
:103BE00001D81123F1E75DF8044B01F0CFB900BF14
:103BF000E0184020094A117C21B91E231A223C20DA
:103C000022F0E0BD126892F82B20824203D81123E3
:103C10001A220021F3E701F025BA00BFE018402086
:103C2000094A117C21B91E2320223C2022F0CABD62
:103C3000126892F82B20824203D8112320220021FF
:103C4000F3E701F0CBB900BFE0184020094A117C2E
:103C500021B91E2321223C2022F0B4BD126892F823
:103C60002B20824203D8112321220021F3E701F007
:103C7000D7B900BFE018402010B5044608B90120AC
:103C800010BD006832F0ACFB0028F8D0A268074BEA
:103C90009A42F4D1064B62681B689A42EFD1E06801
:103CA000044BC01A18BF0120EAE700BFF9CF43F761
:103CB00088C653000732086A002370B5214C0646B7
:103CC0002375237738B9122300221F201146BDE83F
:103CD000704022F077BDFFF7CFFF054608B10523FE
:103CE000F2E7F36A602BFAD8174B726A1B682662F8
:103CF000991820832160B16A01260A446661134441
:103D0000C4E90300C4E90130104800F0E9FC0622D0
:103D1000294604F1840032F082F90622294604F192
:103D20008A0032F07CF90622294604F1900032F034
:103D300076F96022294604F1240032F070F92677E2
:103D400070BD00BF0419402084C65300A4C35300B3
:103D500070B5154E0146337F3BB901230125012281
:103D60001F2022F02FFD284670BD104B1C78044305
:103D700001D00223F2E72FF0F9FB337D013B012B49
:103D800010D8F57D022355B9F37501242FF0F0FB0F
:103D9000012CE8D10721064800F0C8FCE3E72546DE
:103DA0003376F2E70125F1E70419402064C6530099
:103DB000A4C3530038B5114D01462B7F3BB90123F5
:103DC000012402221F2022F0FDFC204638BD0C4BAE
:103DD0001C78044301D00223F2E72FF0C7FB6B7D70
:103DE00043F002036B75EB7D0BB90123EB752FF0EC
:103DF000BFFB0821034800F099FCE6E704194020C6
:103E000064C65300A4C3530038B5114D01462B7F3F
:103E10003BB901230124FE221F2022F0D3FC2046BF
:103E200038BD0C4B1C78044301D00223F2E72FF07D
:103E30009DFB6B7D43F002036B75EB7D0BB9032398
:103E4000EB752FF095FB0821034800F06FFCE6E7C7
:103E50000419402064C65300A4C3530038B5134D61
:103E600001462B7F3BB90123012403221F2022F0AE
:103E7000A9FC204638BD0E4B1C78044301D0022318
:103E8000F2E72FF073FB6B7D23F002036B75EB7D84
:103E900003F0FD03012B02BF2B7E2C76EB752FF078
:103EA00067FB0821034800F041FCE2E704194020C9
:103EB00064C65300A4C3530070B5154E0146337F4A
:103EC0003BB9012301250C221F2022F07BFC284650
:103ED00070BD104B1C78044301D00223F2E72FF091
:103EE00045FB337D033B022B10D8737D13F0010596
:103EF00003D143F00103012473752FF039FB012C2A
:103F0000E5D10021044800F011FCE0E70125F4E7C9
:103F10000419402064C65300A4C3530070B5154D66
:103F200001462B7F3BB9012301240D221F2022F0E3
:103F300049FC204670BD104B1C78044301D002237D
:103F4000F2E72FF013FB2B7D033B022B0FD86B7D89
:103F500013F001060CD023F001036B752FF008FB62
:103F6000002EE6D00021054800F0E0FBE1E7264600
:103F70000124F3E70419402064C65300A4C353008E
:103F800070B5164E0D46337F43B901230522014615
:103F900001241F2022F016FC204670BD104B1C7817
:103FA000044301D00223F1E711B912230522EFE700
:103FB000336A1B691BB9232305222146E8E72FF04A
:103FC000D5FA084B326A2846DB7D316812691944FC
:103FD00031F0ECFF2FF0CCFADEE700BF04194020EF
:103FE00064C6530066C653000A46014638B558B940
:103FF000104B1B78104C207F40B9012306221F2054
:1040000022F0E0FB012014E00023F3E753EA010073
:1040100002D10A4B1D7F0DB90223EFE71AB9122313
:1040200006220146EBE7012DECD121685B7DCB5CDC
:10403000137038BD64C653000419402066C653008F
:104040000A46014610B558B9104B1B78104C207F1A
:1040500040B9012307221F2022F0B4FB012013E006
:104060000023F3E753EA010002D10A4B1B7F0BB98F
:104070000223EFE71AB9122307220146EBE7012BCF
:10408000ECD1236A9B7F137010BD00BF64C6530040
:104090000419402066C6530070B50D46014660B94C
:1040A000114B1C78114E337F4BB901230A22012496
:1040B0001F2022F087FB204670BD0024F2E70C434E
:1040C00001D00223F2E71DB912230A222146EEE7AE
:1040D0002FF04CFA336A31682846DA8A31F066FFED
:1040E0002FF046FAE7E700BF64C6530004194020EA
:1040F00010B5134C237F43B901230B2201461F2027
:1041000022F060FB0123184610BD0E4B1B780343C1
:1041100001D00223F1E719B912230B220021EEE7A7
:10412000002AF9D0207D022806D0C41E022C05D812
:10413000032414700870E6E70124FAE71370F9E726
:104140000419402064C653000F4B10B5197F31B9D4
:1041500001230F221F20BDE8104022F033BB0B4A81
:10416000128A82420BD11B6A1A6912B1188B2DF088
:10417000D9FF01210648BDE8104000F0D7BA03235B
:104180000F22FF21E6E700BF0419402066C6530056
:10419000A4C35300F7B5244D0C46297F31B9012340
:1041A00014221F2022F00EFB012439E01F4E738AD7
:1041B0003146834203D003231422FF21F1E70CB1DF
:1041C00023681BB912231422097EEAE7A3881BB1D6
:1041D0002A6A1069984201D22323F4E72B7D043B1D
:1041E000012BE1D86B68F77D0093D38AADF80430DA
:1041F0002FF0BCF90098A2882168384431F0D6FE2F
:104200002FF0B6F92B6A6946988BFFF749F90446F7
:104210000028C9D12FF0AAF9F3896B822FF0A8F9F1
:10422000204603B0F0BD00BF0419402066C653000D
:104230000A4B197F21B9012316221F2022F0C2BA8E
:10424000074A1278024303D0022316220146F4E7FC
:104250001A6AD27F012A08BF5A7670470419402093
:1042600064C653000020704702461E23124830B532
:1042700003FB0203114D9B7D2968CB5C13F04000CA
:1042800014D01C2000FB0252507E012812D12A6A51
:104290004C1C0731903214F8015F12F8013B8C423C
:1042A00003EA050303D1181E18BF012030BD002BFF
:1042B000F1D0FBE70120F9E766C65300041940205E
:1042C00010B51F4C63893BB1013B9BB263811BB9A5
:1042D0000A211C4800F02AFAA3893BB1013B9BB29A
:1042E000A3811BB90621174800F020FA638A63B145
:1042F0002FF03CF9638A013B63822FF039F9638A1E
:104300001BB902210F4800F011FA238A3BB1013B8F
:104310009BB223821BB903210A4800F007FA2389C4
:10432000012B0AD1A376013B9BB223813BB9042127
:104330000448BDE8104000F0F9B9002BF3D110BDDE
:1043400004194020A4C35300F7B5194A0346084690
:104350000021156A4FF6FF760A460127303535F8F9
:1043600002CBB44514D033F81C408CB1013CA4B24C
:1043700023F81C4064B903EBD20402F0070107FAEA
:1043800001FC94F8601021EA0C0184F8601001210E
:10439000013292B2302AE2D139B1603369460093DA
:1043A0000623ADF804302DF0B1FE03B0F0BD00BF20
:1043B000041940202DE9F04F044685B00E462FF039
:1043C000D5F804F1660704F16C0506224FF0010AE6
:1043D0003946284631F0EAFD38460622002131F000
:1043E0001EFE4FF0410B2FF0C3F8204B28461A6AEF
:1043F000002302F1900719463032019210F801CBE8
:1044000017F8012B1CEA020F1FD0019A02EB430E92
:1044100000223EF8028B4FF6FF75A84512D00AFA2B
:1044200002F515EA0C0F5FFA85F90BD010F80D5C58
:1044300015EA090F02BF45EA0905012100F80D5CE4
:1044400024F818B00132082AE3D10833302BD5D133
:1044500041B16034062302A930460294ADF80C3015
:104460002DF054FE05B0BDE8F08F00BF04194020C8
:1044700013B50E4C217F012916D1A37D019123F0A4
:104480000203A375FFF71CFF094800F08CF901999E
:1044900004F12400FFF78EFF019904F1240002B01B
:1044A000BDE81040FFF750BF02B010BD0419402016
:1044B000A4C35300094A01F1660301386C31126A42
:1044C000903270B512F8015B10F8016F1C7835401E
:1044D0002C4303F8014B8B42F4D170BD04194020EA
:1044E00073B52D4C0D460646217F31B901231022AC
:1044F0001F2022F067F902B070BD18B1032310220B
:10450000FF21F5E735B12B6823B1236AAA88DB8A3E
:104510009A4204D9214912231022097EE8E72FF09C
:1045200025F8AA882968206831F040FD236ADB7FDE
:10453000012B0BD02FF01CF8236ADB7FB3B1174B94
:104540005B7E012B12D0637E83B1D4E73046FFF748
:104550008BFE0128054605D1214651F8240B023077
:10456000FFF7A8FF2FF004F8012DE5D1236A93F897
:104570002120012A0BD11A690849ADF80420C97D10
:104580002268588B0A44694600922DF0BFFD09212C
:10459000034800F0CBF8AEE70419402066C653008C
:1045A000A4C3530037B5104D0C46286A026962B1A6
:1045B0000E4B2268D97DA3880A44008B5B1A69469A
:1045C0000092ADF804302DF0A7FD2B6ADB7F012BA4
:1045D00008D12EF0CBFF206805490230FFF76AFFB3
:1045E0002EF0C6FF03B030BD0419402066C653004C
:1045F000281940204269436870B50569545C2A5DFA
:10460000013A2A550D466C1C9A78944208D3013A17
:104610009A70DA788A4284BF02F1FF32DA7070BD94
:104620004269165D5655E5B2EDE770B54668044639
:104630000268337803EB830302EB83035B7BFF2B7E
:1046400000D170BD03EB83022568337005EB820552
:10465000AB7BFF2B03D0A26852F8233098476B7BCB
:10466000EDE72DE9F74F4768002403684FF0FF0A94
:1046700097F8008026464FF0010B054608EB8808A6
:104680008946019203EB88082EF070FFBB78A342A5
:1046900000D94EB12EF06CFF019B304689F800A086
:1046A0001C7003B0BDE8F08F6B6913F804A0D8F854
:1046B00004300BFA0AF21A4204D021462846FFF7CA
:1046C00099FFE3E7D8F800301A4206D0FB78A342FE
:1046D00001D8631CFB700126D8E70134E4B2D5E7AA
:1046E00038B543680021C27E04461A70FF225A7012
:1046F0000A46257EC8B2854212D89A70DA701B78B5
:10470000226803EB830302EB83039B7BFF2B03D025
:10471000A26852F8233098472046BDE8384084E725
:10472000656901312A5425692A54E2E770B50546C6
:104730000C4646682EF01AFF2B691B5D4BB9B37807
:104740006A69D454B3780133B3702A69135D0133B5
:104750001355BDE870402EF00BBF70B505460E46F0
:1047600044682EF003FF2B699B5D83B9A378E27840
:104770009A4210D3A3780133A3702A69935D013361
:104780009355E3786A69D654E3780133E370BDE862
:1047900070402EF0EDBE6A69D11811F8011CD15499
:1047A000013BDBB2E3E72DE9F3474368002504460C
:1047B0000DF107020DF10601DD70FFF752FF012830
:1047C00003D0284602B0BDE8F0872EF0CFFE9DF85A
:1047D000071020460026FFF70DFF2EF0C9FED4F883
:1047E00004909DF806A099F8003089F8013099F8F6
:1047F00001704FF00008236807EB8707404603EB82
:1048000087077B7C984526D280B1F379FF2B2DD189
:1048100033681A78A36853F8223098470125EDB21F
:104820000DF107020DF106012046C6E7BE6806EB52
:10483000C8067379534509D1B279FF2A09D0E368D4
:1048400053F822309847431E5842584108F1010856
:10485000D7E70120FAE70028D7D13B7BFF2B89F867
:104860000130C4D1003D18BF0125D8E765682B7819
:104870006A789A4209D1002733799F4214D3F37999
:1048800020462B70FFF7D1FEC8E703EB83032768B0
:1048900007EB8307FB7BFF2B03D0A26852F8233082
:1048A00098473B7B2B70E2E73368DA5D0137A368FA
:1048B00053F822309847DFE7044A537DDB075FBF98
:1048C000034B1B8803F1FF33138170470419402009
:1048D00066C65300034B188218B903210248FFF73C
:1048E0003CBF704704194020A4C35300F8B5154CD1
:1048F0000023154DFF21154E6375F77D6068236118
:10490000A38138442B681A6931F089FB2B68206831
:10491000FF211A69384431F082FB2B686268997F65
:10492000737DD1542B68DB7F012B05D1B27D61688B
:104930008B5C43F040038B5400236376A3602361B8
:10494000F8BD00BF041940202419402066C653005A
:1049500038B50A4C257D2EF009FE0023E375237639
:104960002EF006FE0123022D237505D1044B187E7F
:10497000BDE8384028F090BF38BD00BF0419402082
:1049800066C65300064B10B5187E28F059FF042365
:10499000102200211F20BDE8104021F013BF00BFEE
:1049A00066C65300024B587DC0F34000704700BFFD
:1049B0000419402038B50F4C0F4D637D287E13F04D
:1049C000010F04BF2B88238128F050FFE37D012BCA
:1049D00009D1237D013B012B05D8AB7D0421606803
:1049E000184431F074FA00236383A37D43F001037C
:1049F000A37538BD0419402066C6530010B50A4C93
:104A0000637DDB070AD4094B1B68988AFFF762FFB6
:104A1000074B1A88DB882281638110BD0023238223
:104A2000A360E381F9E700BF041940202419402066
:104A300066C6530040E710B5084C637DDB075FBFD7
:104A4000074B1B8803F1FF3323812EF08FFD0023DA
:104A50006382BDE810402EF08BBD00BF04194020DA
:104A600066C65300054B1B6893F82030012B03BF2B
:104A7000034B587DC0F340000020704724194020AC
:104A800004194020014B03221A7570470419402075
:104A9000024B1889B0FA80F0400970470419402091
:104AA0007047064B1B6893F8203023B9044B587DA0
:104AB000C0F3400070470020704700BF2419402019
:104AC00004194020014B1B68988A03E724194020F1
:104AD000FFF7E7BFFFF7F6BF7047EDE6014B002297
:104AE0001A82704704194020094B07B5187E0190BF
:104AF000FCF770FD074B01981B68DB7F012B04D18D
:104B000003B05DF804EB00F023BE03B05DF804FBD6
:104B100066C653002419402010B5084C23895BB9A0
:104B2000617D11F0010107D1112313221F2021F013
:104B300049FE034B1B88238110BD00BF0419402090
:104B400066C65300014B04221A75704704194020B1
:104B50007047B1E6034B587D80F00200C0F340007F
:104B6000704700BF04194020024B587DC04300F03D
:104B7000010070470419402070477047FFF7EABFF3
:104B8000704799E638B5174C174DA37D698803F037
:104B9000FD03A181A37509BB06211448FFF7DDFDC4
:104BA00005232375637D13F001020CD1A17DC90794
:104BB0000ED59B070CD52B8953B103210B48E381FC
:104BC0002282FFF7CAFDA37D23F00103A37538BD40
:104BD000074B1B68988AFFF77DFEF4E743F0080354
:104BE000A375DDE70419402066C65300A4C3530033
:104BF00024194020034B9A7D22F008029A75002266
:104C0000DA60704704194020044B5A7D92075DBF5B
:104C10009889B0FA80F040090020704704194020BC
:104C2000044B587D10F002001EBF9889B0FA80F046
:104C3000400970470419402038B52EF097FC0B4C02
:104C400000230B4DE37523762EF092FCAB88287E73
:104C500063810223237528F035FEAB7D0421606853
:104C60001844BDE8384031F043B900BF0419402072
:104C700066C65300FFF796BE704737B5274CA07D38
:104C800010F0020030D163686946254D00932B680F
:104C9000DB8AADF80430FFF785FC2B686946988BFA
:104CA000FEF7FEFB054660B90123E3762EF05EFCBD
:104CB0001C4BDB8963822EF05BFCA37D43F0020377
:104CC000A375638B93B9A37D1A0709D5154B5B8830
:104CD00001339BB2A3811BB906211348FFF73DFDA9
:104CE0000123238203B030BD0125EAE7E3898BB1BC
:104CF00055B9013B0B4A9BB2E3811BB15089FFF7C9
:104D0000E9FDEFE79089FAE7A37D9B07E8D5054B1E
:104D10005889F4E7034B9889F1E700BF0419402054
:104D20002419402066C65300A4C35300034B5B7D87
:104D3000DB0701D4FFF7A1BF704700BF0419402073
:104D40000E4B1B6870B51B68164600EB80020546CB
:104D50000C4603EB8203D87BFEF79CFC08480E232D
:104D600003FB0505A97A1CB1022C14BF01240224FF
:104D70000B1B5C425C41347070BD00BF181A4020B0
:104D80001E1A402038B5094B00EB800204460D4640
:104D90001B681B6803EB8203D87BFEF789FD0E239B
:104DA000034803FB0404637B2B7038BD181A4020B2
:104DB0001E1A402000EB8000F8B50F468400002545
:104DC000074E33681B681A19127CAA4200D8F8BD36
:104DD0001B593946585D0135FEF7F8FBF1E700BF76
:104DE000181A4020F8B500EB80000D4E00250D4F3D
:104DF00084000E443B681B681A19127CAA4201D831
:104E00000120F8BD1B59585D00F0C6FF064B1A5C27
:104E100016F8013C9A4201D10135EBE70020F0E79A
:104E2000ACC65300181A40202C1A40202DE9F74335
:104E3000174B00EB800604461746B6000025DFF846
:104E4000589003EB0108D9F800301B689A19127CBE
:104E5000AA4206D82046FFF7C5FF387003B0BDE868
:104E6000F0839B590191585D00F096FF094B019921
:104E70001A5C18F8013C9A4207D0D9F800301B6838
:104E80009B59585DFEF790FA01990135DBE700BFA9
:104E9000ACC653002C1A4020181A40202DE9F743C5
:104EA00000EB8006002504460D4FB600DFF8348085
:104EB000A9463B681B689819007C854204D32046AC
:104EC00003B0BDE8F043B1E79B59585D0135CDE92A
:104ED000001200F061FF08F80090DDE90012E8E739
:104EE000181A40202C1A4020114B10B5197904468D
:104EF00031B9012304228C20BDE8104021F062BCAE
:104F000000F036FF012803D1042300211A46F2E7FE
:104F1000204600F02DFF0E22064B02FB003001233D
:104F2000C371204600F038FF034B03221A5410BD12
:104F3000181A40201E1A40202C1A4020104B70B521
:104F40000C461979054631B9012307228C20BDE8AA
:104F5000704021F037BC00F00BFF012803D104237F
:104F600007220021F2E7611E2846022996BF054B61
:104F700000245C5C00F010FF034B1C5470BD00BFAC
:104F8000181A4020ACC653002C1A4020114B70B5A3
:104F90000C461979054631B9012309228C20BDE858
:104FA000704021F00FBC00F0D9FE012803D1052389
:104FB00009220021F2E71CB1022C14BF01240224B3
:104FC000284600F0CBFE044B0E2202FB0030847218
:104FD00070BD00BF181A40201E1A40200E4B10B59D
:104FE0001979044631B9012308228C20BDE810400C
:104FF00021F0E8BB00F0B2FE012803D1052308220E
:105000000021F2E7204600F0A9FE044B0E2202FB2D
:1050100000300123037310BD181A40201E1A4020CF
:105020000E4B10B51979044631B901230A228C20A0
:10503000BDE8104021F0C6BB00F090FE012803D16E
:1050400005230A220021F2E7204600F087FE044BE8
:105050000E2202FB00300123437310BD181A4020BA
:105060001E1A40200E4B10B51979044631B90123A0
:1050700006228C20BDE8104021F0A4BB00F06EFE9B
:10508000012803D1052306220021F2E7204600F083
:1050900065FE00F04DFEBDE81040FFF7C9B800BF47
:1050A000181A4020174B70B51E7905460C463EB9BC
:1050B0000123032231468C2021F084FB012017E0DC
:1050C00011B902230322F6E700F03EFE0146B0B11B
:1050D000284600F023FE0C4B0E2202FB00304378E2
:1050E000022B06D0032B08D0012BE7D10020207023
:1050F00070BD012300202370FAE70223FAE703239F
:105100001A46D8E7181A40201E1A4020522809D8FB
:105110004F2812D8322810D0403803288CBF0020E6
:1051200001207047662804D85F2894BF0020012022
:10513000704780F080000128F0E7012070472DE9DA
:10514000F74F0446CD488B469246016880468B88CF
:105150000AB901339BB2CA4F0E2504EB840905FB43
:1051600004754FEA8909AB808B796B720BF0F006FE
:10517000502E00F0B5810ED8302E5AD0402E00F0BF
:105180000D81102E2DD003B0BDE8F08F4226B3461E
:10519000ECE76126FBE7602E00F00B82802EF2D157
:1051A000BBF1810F00F09E82BBF1820F00F0AA825A
:1051B000BBF1800FE7D100230DF107020221204649
:1051C0008DF80730FFF76AFE9DF80730012B00F0DD
:1051D00087822EF0C7F90E2000FB047484F806B015
:1051E00046E1204600F0A4FD0221FCF775FF0321F3
:1051F0002046FFF7DFFD2EF0B5F90E23032203FB57
:1052000004735A7030229A71D8F800301B689944A0
:1052100099F8113053B9B9F80A30BAF1000F01D139
:1052200001339BB20E2202FB04777B802EF09CF9A7
:1052300097E0ABF1300BBBF1060FA4D801A353F8F4
:105240002BF000BF61525000875150008751500031
:10525000915250000D535000255350006D53500093
:10526000204600F065FD0121FCF736FF01212046B4
:10527000FFF7A0FD0E2303FB047702237B7020239E
:10528000BB71204600F054FD7E4906F029FB7AE709
:105290000023D8F8002020468DF807302B7A1268BA
:1052A000FF2B9B464A4418BF0133968818BF2B72C8
:1052B00000F03EFD0321FCF70FFFD8F800301B681B
:1052C0004B44988910B103211BF0C5FE01212046F3
:1052D000FFF770FD2EF046F93223B345EB80D8F886
:1052E00000301B684B4434BFDB881B896B802EF079
:1052F0003BF90DF1070201212046FFF797FD9DF8CC
:105300000730012B7FF43FAF342640E72EF02AF917
:105310000E2303FB047702237B703323BB712EF033
:1053200023F9AEE703212046FFF744FD2EF01AF9DA
:105330000E2303FB047703237B703023BB71D8F863
:1053400000301B68994499F8113013B9B9F80A3044
:105350007B802EF009F9204600F0EAFC0221FCF7E0
:10536000BBFE204600F0E4FC47498EE72EF0FAF839
:105370000E203123002500FB0474A37125722EF04A
:10538000F3F8D8F800301B689944B9F80C000028ED
:105390003FF4F9AE29461BF05EFEF4E6ABF1400B9C
:1053A000BBF1060F3FF6EFAEDFE80BF0040C1B324B
:1053B000487286002046412600F0BAFC0021FCF726
:1053C0008BFEE4E6D8F800301B684B44DB7BFF2BF8
:1053D0003FF4DCAE2D4B1B5D012B14BF4226602633
:1053E000D5E600230DF10702022120468DF8073093
:1053F000FFF754FD9DF80730012B07D02EF0B2F8CF
:105400000E20402300FB0474A37131E04326BEE666
:1054100000230DF10702032120468DF80730FFF726
:105420003DFD9DF80730012B06D02EF09BF80E2095
:10543000412300FB0474E7E74426A8E6D8F80030CF
:105440001B684B44DB7BFF2B00F0368101230021DE
:105450000DF107022046AB728DF80710FFF770FCC4
:105460009DF80730012B06D02EF07CF84223AB715B
:105470002EF07AF887E6452689E600BF181A402004
:105480001E1A4020AD104020AC104020AFC6530083
:1054900000230DF10702022120468DF80730012379
:1054A000AB72FFF74DFC9DF80730012B00F0048133
:1054B0002EF058F84323DAE70E2303FB04777D78B8
:1054C0002EF050F801237B701023BB712EF04CF8A6
:1054D000002D3FF458AE204600F02AFC8F49D4E658
:1054E000ABF1500BBBF1040F3FF64DAEDFE80BF014
:1054F000030D21374B00D8F800301B684B44DB7B91
:10550000FF2B14BF5126522641E6012300210DF145
:1055100007022046AB728DF80710FFF711FC9DF8CB
:105520000730012B03D02EF01DF850239FE75226A1
:105530002DE600230DF10702022120468DF80730E9
:10554000FFF7ACFC9DF80730012B06D02EF00AF8CF
:105550000E20512300FB047456E7532617E6002360
:105560000DF1070201212046EB718DF80730FFF79E
:1055700095FC9DF80730012B03D02DF0F3FF52234B
:1055800075E7542603E60E2500230321204605FB7C
:1055900004752B72FFF70EFC204600F0C9FB0221B8
:1055A000FCF79AFD2DF0DEFF03236B703023AB7107
:1055B0002AE6ABF1600BBBF1060F3FF6E4ADDFE886
:1055C0000BF004152B3F546A7D0000232B73D8F891
:1055D00000301B684B44D87BFEF742F92B7B012B34
:1055E0003FF4D7AD2DF0BEFF602340E700230DF15F
:1055F0000702022120468DF80730FFF74FFC9DF887
:105600000730012B06D02DF0ADFF0E20612300FBEB
:105610000474F9E66226BAE5012300210DF10702C0
:105620002046AB728DF80710FFF78AFB9DF8073014
:10563000012B03D02DF096FF622318E76326A6E521
:1056400000230DF10702022120468DF807300123C7
:10565000AB72FFF775FB9DF80730012B03D02DF0DF
:1056600081FF632303E7642691E500230DF1070220
:10567000032120468DF80730FFF710FC9DF8073016
:10568000012B06D02DF06EFF0E20642300FB047466
:10569000BAE665267BE500230DF1070120466B7312
:1056A0008DF80730FFF76EFB9DF80730012B03D014
:1056B0002DF058FF6523DAE6462668E500230DF154
:1056C000070120466B738DF80730FFF75BFB9DF8F1
:1056D0000730012B3FF45BAD2DF044FF6623C6E697
:1056E000812654E500230DF10702012120468DF8A3
:1056F0000730FFF7D3FB9DF80730012B7FF469AD2E
:10570000822644E520460321FFF754FB2DF02AFFB3
:105710000E20312300FB047476E600BF1D1A4020E2
:10572000024620B9014602238C2021F04BB8064BDB
:10573000002206499A711A80DA7201230860104625
:105740000B714021FFF7FBBC1E1A4020181A4020A5
:10575000174B70B51979044631B901230B228C20FF
:10576000BDE8704021F02EB800F0EEFA014608B90D
:105770000323F3E720460E2400F0D0FA05462DF06F
:10578000F1FE0C4B04FB0534E67A1EB1BDE8704017
:105790002DF0EABEA379312BF8D10123E3722DF06D
:1057A000E3FE324680212846FFF7C9FCE67270BD51
:1057B000181A40201E1A40200023012813700FD011
:1057C000022817D038B9A1F13003012B01D93329B0
:1057D00002D13023137070472029FCD14023F9E710
:1057E000A1F13003012BF4D93329F2D01029F2D1E1
:1057F0005023EFE71029FBD02029ECD11023E9E753
:10580000224BF7B50E461979044639B90123022215
:105810008C2020F0D7FF012003B0F0BD00F094FAF7
:10582000014608B90323F2E7022E03D90823022216
:105830000021EDE72046164D00F070FA0E270446D1
:10584000002307FB04578DF807302DF08BFEFB7A01
:1058500053B90DF10702B9793046FFF7ADFF9DF856
:1058600007300BB10123FB720E236343EF18EE5494
:105870002DF07AFE9DF8071029B100222046FFF78F
:105880005EFC0023FB720020C6E700BF181A402010
:105890001E1A40202DE9F34104464FF00E08B84E81
:1058A000002308FB04F88DF805302DF05BFE06EBB5
:1058B0000807FB7A23B12DF057FE02B0BDE8F08156
:1058C0000123FB722DF050FE7B88BD7916F808008D
:1058D0000BB1013B7B800E270DF10502294607FB2A
:1058E0000467B7F80280FFF767FF9DF805304BB9F2
:1058F000FB79012B13D1A5F13003012B0FD83323F2
:105900008DF805309DF8051019B101222046FFF7EA
:1059100016FC0E20002300FB0464E372CDE7332D58
:1059200004D1B8F1000FEDD13523E9E7302D04D1D2
:10593000B8F1000FE6D13623E2E72846FFF7E6FB91
:1059400001280146DED105F0F007502F51D0602F1D
:105950006CD0402F40F0A980A5F140020E23032A0D
:105960000AD8DFE802F0363E022F03FB04639B7A7D
:1059700013B945238DF805309DF80530002BC1D1B2
:105980000E2303FB04618A880AB1013A8A8003FB73
:10599000046399880029B5D15B7A002B40F0A78079
:1059A000204600F0C5F90A23014605228C2020F08C
:1059B00009FF322D04D085F08005012D00F295807D
:1059C00040239DE703FB04639B7A022BD4D146233B
:1059D000D0E702212046FFF705FA0128CCD1432366
:1059E000C8E703212046FFF7FDF90128C4D144236D
:1059F000C0E7512D0BD0522D11D0502DBCD10E230C
:105A000003FB04639B7A002BB6D15223B2E7022139
:105A10002046FFF7E7F90128AED15323AAE7204635
:105A2000FFF7E0F90128A7D15423A3E7A5F160020D
:105A30000E23062AA0D8DFE802F0040B131A222B4B
:105A4000300003FB04631B7B012B95D1612391E79D
:105A500002212046FFF7C6F901288DD1622389E78C
:105A600003FB04639B7A002B86D1632382E703FB4D
:105A700004639B7A022B7FF47FAF64237AE70321D0
:105A80002046FFF7AFF901287FF476AF652371E771
:105A900003FB04635B7B012B98E703FB04635B7BE5
:105AA000012B7FF469AF602364E7802D0CD0812D3A
:105AB00013D0322D7FF460AF2046FFF793F9012811
:105AC0007FF45AAF342355E702212046FFF78AF9C5
:105AD00001287FF451AF81234CE72046FFF782F97C
:105AE00001287FF449AF822344E7412308E7502F80
:105AF0008DF8061000F0A980602F51D0402F40F0A3
:105B0000D380403D8DF80710032D10D8DFE805F055
:105B10002B3C021F0DF1070200212046FFF710F970
:105B20009DF80730012B02D145238DF805309DF8F3
:105B30000530002B7FF4E6AE0E2303FB04635A7A94
:105B4000013A5A720F4A126892889A80DAE60DF189
:105B5000070202212046FFF7F3F89DF80730012BDA
:105B6000E5D14623E1E70DF1070202212046FFF7C8
:105B70005DF99DF80730012BD9D14323D5E700BF4C
:105B80001E1A4020181A40200DF10702032120465A
:105B9000FFF74CF99DF80730012BC8D14423C4E727
:105BA000603D8DF80710062DC1D8DFE805F004161A
:105BB000222E3A3C4200534B1A6804EB84031268CD
:105BC00002EB8303D87BFDF74BFE0E2303FB04633C
:105BD0001B7B012BABD16123A7E70DF1070202214B
:105BE0002046FFF723F99DF80730012B9FD1622350
:105BF0009BE70DF1070200212046FFF7A1F89DF871
:105C00000730012B93D163238FE70DF107020221A7
:105C10002046FFF795F89DF80730012B87D16423C4
:105C200083E7662381E70DF107012046FFF7AAF815
:105C300093E70DF107012046FFF7A4F89DF8073020
:105C4000012B7FF474AF60236FE7512D8DF807109F
:105C500010D0522D1BD0502D7FF469AF0DF10702EB
:105C60002046FFF76DF89DF80730012B7FF45FAFFA
:105C700052235AE70DF1070202212046FFF7D6F81A
:105C80009DF80730012B7FF452AF53234DE70DF100
:105C9000070201212046FFF7C9F89DF80730012BC4
:105CA0007FF445AF542340E7802D11D0812D1CD0C7
:105CB000322D7FF43CAF0DF1060201212046FFF7A3
:105CC000B5F89DF80630012B7FF431AF34232CE773
:105CD0000DF1060202212046FFF7A8F89DF80630D4
:105CE000012B7FF424AF81231FE70DF10602012170
:105CF0002046FFF79BF89DF80630012B7FF417AF85
:105D0000822312E7181A4020034B1B79012B02D182
:105D10000020FFF7BFBD7047181A4020034B1B68D7
:105D20001B689B7B181A18BF01207047181A402067
:105D3000044B00EB80001B681B6803EB8000807B3A
:105D4000704700BF181A4020034B1B681B689B7BE1
:105D50001B1A584258417047181A4020034B1B68C1
:105D60001B68DB7B181A18BF01207047181A4020E7
:105D7000084B1B681A68002310B5147CD9B28C42FA
:105D800001D8012010BD1168C95C01338142F5D1F1
:105D90000020F7E7181A4020084B02461B681968D4
:105DA000002330B50C7CD8B2844201D8012004E035
:105DB0000D68ED5C01339542F5D130BD181A4020D5
:105DC0000C4B002273B51B68182644890546D86918
:105DD00006FB04340DF10603ADF806200444A08947
:105DE0002CF0B2F930F0020304BFBDF80630EB80AE
:105DF00002B070BD301A4020022904D1824214BF83
:105E0000002001207047072803D8481E18BF012032
:105E10007047182805D920F01003202B05D0402802
:105E2000EDE7034BC340DB07F9D50120704700BF06
:105E30000011110110B5044608B9012010BD006819
:105E400030F0CEFA0128F8D1A268074B9A42F4D17B
:105E5000064B62681B689A42EFD1E068044BC01A97
:105E600018BF0120EAE700BF271D911134C8530075
:105E7000FE21F04690F85B20002322F00602036129
:105E8000838280F85B204FF60172C365A0F8602022
:105E9000064A8360A0F8A030A0F8E230C0E90033E1
:105EA00013780BB1013B1370704700BF341A4020C8
:105EB00070B503891A268588ED1A144B1A68ADB29D
:105EC0004389946906FB03431A44147C14B1033CD0
:105ED00018BF0124C388AB4203D3937D00200B700D
:105EE00070BD507E0138001BC0B2B3FBF0F35BB154
:105EF000947D98B29C4202D2002C18BF2046FF2805
:105F0000034628BFFF23E9E70120E8E7301A4020D5
:105F1000028983889B1AC2889BB29A4213B50446B1
:105F200010D20DF10701FFF7C3FF48B994F85D00E7
:105F30009DF8073098428CBF0020012002B010BDB0
:105F40000020FBE70120F9E73D4B1A684389D1693E
:105F5000F0B5182404FB03131A44137C1BB1137D02
:105F600080F8A230012390F85C20612A1DD0622ABB
:105F700051D0602A16D102791C46511C1944C9B26D
:105F8000082989BF591CC1182418002589BFCBB224
:105F900002F00F0250FA81F184F8A250013381F827
:105FA000A220DBB280F8A130F0BD81885C1C9A1C75
:105FB0000579B1F5805F00EB0306D2B250FA84F4A4
:105FC0004FEA112120D31027024486F8A270002640
:105FD00084F8A26082F8A260DA1C50FA82F282F899
:105FE000A2601A1D50FA82F282F8A2105A1D0633DE
:105FF00050FA82F282F8A250DAB2012380F85E30C1
:1060000080F85D301346CDE741F0100186F8A2100C
:1060100084F8A250F1E790F86020C118013342F0F3
:1060200020040132DBB202F00F0281F8A24080F8B6
:10603000602090F85E20013280F85E20B2E700BF59
:10604000301A4020F7B590F8A13004460BB9FFF79D
:106050007BFFE388002B3FD1694620460093ADF8D3
:106060000430FFF7ADFE18B9E388002B08BF02200B
:10607000E688002E2ED023891827A2886189D21A9B
:10608000164B186892B294F8A130C56907FB01015C
:1060900020462944897DC91AA233CDB223446946DA
:1060A0009542009388BFD5B2AE4236BFF5B2012605
:1060B0000026AFB2ADF80470FFF782FE50B994F835
:1060C000A130002E1D44238908BF02203B4484F8E0
:1060D000A150238103B0F0BD0120C9E7301A402050
:1060E00030B593B19C88023A012A20D8022922D0E7
:1060F000082C0DD8012908BF082443B39A889C8036
:10610000A2300021944227D830BD90F8A140EAE7A0
:106110000C2C12D9102C12D9142C12D9182C12D9DB
:10612000202C12D9312C34BF30244024E5E700293B
:1061300018BF0824E1E74024DFE70C24DDE7102442
:10614000DBE71424D9E71824D7E72024D5E790F813
:10615000A12080F8A140D3E71BB11D68A9540132EA
:10616000D0E78354FBE71FB50C4B0446ADF80C2079
:106170001A6843891A20029100FB032391690DF1EB
:1061800006020B4402A958892BF0D8FF20B9BDF8AC
:106190000630E38004B010BD0023FAE7301A402037
:1061A000F8B505460E46144622B91146BDE8F8403A
:1061B000FFF7D9BFC38897B2934203D32246314633
:1061C0002846F3E700221146FFF7CDFF18B9EB8808
:1061D000BB42F3D20220F8BDF8B590F85C500446FB
:1061E000174646898DB101290ED105F06005402D75
:1061F00033D11B4B1A681A23916903FB06230B4406
:10620000394658892BF0AAFF00252DF0A7F994F8FC
:1062100059302046202B02BF94F85B3023F0010355
:1062200084F85B30FFF726FE012D05D194F85A3033
:1062300013B1002384F85A302DF092F9012D0ED1BC
:10624000074B18211B6801FB0636DA6939461644EC
:10625000B089BDE8F8402BF087BF0D46D5E7F8BD03
:10626000301A40202DE9F047054638B903230122B2
:1062700000212320BDE8F04720F0A4BAFFF7DAFDA3
:10628000044610B101231A46F2E7224E2DF066F9BA
:106290003560214D2F78012F1BBF204B27462C70D6
:1062A0001C7018BF01242DF05BF9012F14D0012CB4
:1062B0002BD10021E4241A4F884620E00122013727
:1062C00008FB00901146FFF787FF3368F8B293F898
:1062D00030308342F2D8EAE700274FF0E408DFF8D5
:1062E0004090F2E704FB0070FFF7C4FD013190F825
:1062F0005B3080F85A8023F0010380F85B3033680C
:10630000C8B293F830308342ECD801232B70BDE83B
:10631000F08700BF301A4020351A4020341A402040
:106320003C1A402090F85C3003F06003402B10B41E
:1063300011D10A4B1A24196843898A6904FB031393
:106340001344DB7D2BB9012201215DF8044BFFF7DB
:1063500043BF0722F8E75DF8044B7047301A40202E
:1063600073B51D4B044690F85C200D4619684389AF
:1063700002F0600040281AD11A26886906FB031330
:1063800003441889D5B12B680093AB88ADF804306D
:1063900002F06702694642F0100284F85C20FDF7C3
:1063A0007FF898B90DB984F8A15002B070BD1826D5
:1063B000C86906FB031303445889E3E794F8A13046
:1063C000ADF8043004F1A2030093E1E70122204676
:1063D0001146FFF701FFE8E7301A4020F0B51D4FE6
:1063E0001A26438993B03C6805465E43A36933444B
:1063F0001C44237C1BB1237D8DF80830012312AA95
:1064000028461A4402F8401C12A95A1C51FA82F27A
:1064100095F85D1002F8401C9A1C033312A9DBB2F8
:1064200051FA82F2217EADF8043002AB02F8401C32
:1064300000936B46E27CA17CFFF752FE3B68694605
:1064400028469A6933449B5A2B61FFF789FF13B0A2
:10645000F0BD00BF301A40201D4B30B41A681A2519
:106460004389946905FB03232344DB7BFF2B26D060
:10647000184AE42404FB032393F85C3003F09803E8
:10648000102B1CD1042905D006290FD00023C3806E
:10649000CD2300E0CC2380F85C3030BC70474C2327
:1064A000302180F85C3030BCFFF798BFCE23F2E794
:1064B00000233221C3804D2380F85C30F3E70429A8
:1064C000EDD00629F4D14E23312180F85C30EAE783
:1064D000301A40203C1A402090F85F2030B472B14E
:1064E000084A1A250369116842898C6905FB021262
:1064F000125B934203D8062130BCFFF7ADBF30BC1E
:10650000704700BF301A4020164B10B51A68044679
:1065100043891A20916900FB0323A21D0B44A18823
:1065200058892BF005FE032816D8DFE800F0180C78
:10653000120294F85C30412B05D105212046FFF76B
:106540008BFF012010BD012200212046FFF744FEF1
:10655000F7E70020E080F5E701221146F5E700208B
:10656000F0E700BF301A402038B590F85C300446A0
:10657000412B18D0422B3CD0402B39D1012590F82B
:10658000A12000F1A20180F85A50FFF709FE02464F
:1065900020B1022829D00122114600E029462046D8
:1065A000FFF71AFE21E0012390F8A12000F1A201DB
:1065B00080F85A30FFF7F4FD28B10228EBD12046CD
:1065C000FFF78AFF11E094F8A13004F15D01228900
:1065D00084F8A100204613442381FFF769FC0028BA
:1065E000EDD104212046FFF737FF002384F85A300D
:1065F00038BD0123002280F85A301146FFF7B3FD61
:106600000028DAD12046FFF783FC0028E9D1D6E73D
:1066100001292DE9F041044647892E4D02D0FFF7AC
:1066200011FD28602D6845B1022D3ED00122204683
:106630001146BDE8F041FFF7CFBD274A1826638910
:106640001068904606FB0303C1690B44DE7BFF2EF6
:106650000BD0224AE42303FB062393F85C5005F099
:106660009805A5F110035D425D4118225743CB19EF
:10667000C11800232046CA7C897CFFF731FD94F8BD
:106680005C30A5B1A3F16002012A08D8E421134AC5
:1066900001FB062221691269914238BF226103F091
:1066A000670363F0770384F85C30BDE8F081D8F8C5
:1066B000002003F067032046D1693A4443F01003F9
:1066C000525A002184F85C302261BDE8F041FFF7A6
:1066D00047BE00BF381A4020301A40203C1A4020E4
