S00F0000434F525445584D5F53330000E9
S32100500000000C402053105000CB115000EB11500005125000311250005D1250003E
S3210050001C7F12500083125000871250008B125000AD1950008F125000A5125000C8
S32100500038A9125000BF12500085145000891450008D145000911450009514500075
S32100500054991450009D145000A1145000A5145000A9145000AD145000B1145000FB
S32100500070B5145000B9145000BD145000C1145000C5145000C9145000CD1450001B
S3210050008CD1145000D5145000D9145000DD145000E1145000E5145000E91450003B
S321005000A8ED145000F1145000F5145000F9145000FD145000011550000915500055
S321005000C40D1550001115500015155000191550001D155000211550002515500058
S321005000E0791550007D1550008115500085155000891550008D1550009115500048
S321005000FC95155000991550009D155000A1155000A5155000A9155000AD15500068
S32100500118B1155000B5155000B9155000BD155000C1155000C5155000C915500087
S32100500134CD155000D1155000D5155000DD155000E1155000E5155000E915500097
S32100500150ED155000F1155000F5155000F9155000FD1550000116500005165000A9
S3210050016C091650000D1650001116500015165000191650001D16500021165000C4
S3210050018825165000291650002D1650003116500035165000391650003D165000E4
S321005001A44116500045165000491650004D16500051165000551650005916500004
S321005001C06116500065165000691650006D16500071165000751650007916500008
S321005001DC7D1650008116500085165000891650008D165000911650009516500028
S321005001F8E91650003D1750009117500095175000991750009D175000A1175000A2
S32100500214A5175000A9175000AD175000B1175000B5175000B9175000BD175000D0
S32100500230C1175000C5175000C9175000CD175000D5175000D9175000DD175000E4
S3210050024CE1175000E5175000E9175000ED175000F1175000F5175000F9175000F4
S32100500268FD1750000118500005185000091850000D18500011185000151850000E
S32100500284191850001D1850002118500025185000291850002D185000311850002D
S321005002A035185000391850003D1850004118500045185000491850004D1850004D
S321005002BC51185000591850005D1850006118500065185000691850006D18500055
S321005002D87118500075185000791850007D18500081185000851850008918500071
S321005002F48D1850009118500095185000991850009D185000A1185000A518500091
S32100500310A9185000AD185000B1185000B5185000B9185000BD185000C1185000B0
S3210050032CC5185000C9185000CD185000D1185000D5185000DD185000E1185000C8
S32100500348E5185000E9185000ED185000F1185000F5185000F9185000FD185000D4
S321005003640119500005195000091950000D195000111950001519500019195000ED
S321005003801D1950002119500025195000291950002D19500031195000351950000D
S3210050039C391950003D1950004119500045195000491950004D195000511950002D
S321005003B855195000591950006119500065195000691950006D1950007119500039
S321005003D475195000791950007D1950008119500085195000891950008D19500051
S315005003F09119500095195000991950009D195000A7
S32100501000000000000000070024ED00E008ED00E000005000000C402060EF00E0C6
S3210050101C50EF00E014ED00E04FF000005FF810C0CCF80000BFF34F8FBFF36F8FF8
S321005010385FF81C10086840F400300860BFF34F8FBFF36F8F7047FFF7FEBF0024B9
S3210050105484F31088002484F314885FF0807484F303885FF864005FF86450296848
S3210050107040EA010129604FF001510A4A521A521E0020002309C1083AFCDA00F083
S3210050108C11F85FF87CD05FF888005FF88810016001F05AFBFFF7D5BFFFFF4020E9
S321005010A834EF00E088ED00E0EFF3148020F0040080F31488BFF36F8F5FF81810B6
S321005010C4086840F4700008605FF82810086820F0404008605FF8301008684FF6FB
S321005010E0FF72CFF60F7200EA0200086070474EF68851CEF200010B6843F47002E2
S321005010FC0A60BFF34F8FBFF36F8FF1EE102A20E90C0020ED200B0B607047000050
S321005011186846704780F3148870470000EFF3108072B670474FF0080C00DF704700
S321005011344FF00A0C00DF70474FF00B0C00DF70474FF0160C00DF70474FF0010C2F
S3210050115000DF70474FF0090C00DF7047811C500071B64FEA0010EFF3118C4FEA98
S3210050116C1C1C80F311886046EC462DE9F14FEFF3038545F0807560B4C2F800D06D
S32100501188002B18BF9D465FF834E0DCF80400DCF8006016F0010FFFD161B608474D
S321005011A424ED00E0F1FFFFFF049553002CED00E028ED00E034ED00E038ED00E01A
S321005011C0CD13500010100000FEE771B602B501F07BF9BDE802404FF008005FF8C0
S321005011DC38C0DCF800204FF0000300F0B6B871B64FF00C005FF844C0DCF8002054
S321005011F8CCF800204FF0000300F0A9B871B65FF854C0DCF800205FF858301B6826
S3210050121402F0FF00CCF800004FF010005FF860C012EA0C0F40F0548000F093B897
S3210050123071B65FF880C0DCF800205FF880301B6802F47F40CCF800004FF0140044
S3210050124C5FF88CC012EA0C0F40F03E8000F07DB871B64FF018005FF8B0C0DCF84A
S3210050126800204FEA12434FEA0343CCF800304FF0000300F06CB8FFF7A3BFFFF74F
S32100501284A1BFFFF79FBFFFF79DBF71B64FF030005FF8F4C0DCF800204FF000031B
S321005012A000F059B8FFF790BF71B64FF038005FF80CC1DCF800204FF0000300F0AE
S321005012BC4CB871B64FF03C005FF824C1DCF800204FF0000300F041B82DE9F04F6A
S321005012D84EF68855CEF200052F684FF6FF76CFF60F7607EA06062E6082B44FF023
S321005012F4010A4FEA0A1AEFF3118B4FEA1B1B8AF311884DF804BD61B6EFF3148486
S321005013103DB524F0010484F314881EF0080F18BF1EF0040F12BFEFF30980EFF312
S3210050132C0880483069465FF874214FF080735FF89461B64508BF43F004030CB47A
S321005013482DE90F502EF0040E7047FFF739BF2DE9F04F4EF68855CEF200052F6817
S321005013644FF6FF76CFF60F7607EA06062E6082B44FF0010A4FEA0A1AEFF3118B2D
S321005013804FEA1B1B8AF311884DF804BD61B662B6EFF314843DB524F0010484F345
S3210050139C14881EF0080F18BF1EF0040F12BFEFF30980EFF30880483069465FF802
S321005013B8F821C3690CB42DE90F502EF0040E7047FFF7FEBE4FF03D0C00DFFFF753
S321005013D4F9BE04460D4628686A68AB68EF686E6987F31488A1692EF085F916F0EE
S321005013F0080F18BF16F0040F14BF0027012738462EF044FC00280FD0012807D07F
S3210050140C06A821462EF050F92FF0E4FCFFF7D6BE4FF003002FF0DEFCFFF7D0BEAA
S321005014285FF888120A6842F080020A60BFF34F8FBFF36F8F5FF89482D8F80080D4
S32100501444C8F81070AD46BDE83D4007BC12F4700F07D04EF68855CEF200052A684A
S3210050146042F470022A604FEA0010EFF311824FEA121280F3118871B6BDE8F00FF6
S3210050147C81B070470495530000F004BB00F002BB00F000BB00F0FEBA00F0FCBAD5
S3210050149800F0FABA00F0F8BA00F0F6BA00F0F4BA00F0F2BA00F0F0BA00F0EEBA90
S321005014B400F0ECBA00F0EABA00F0E8BA00F0E6BA00F0E4BA00F0E2BA00F0E0BAD6
S321005014D000F0DEBA00F0DCBA00F0DABA00F0D8BA00F0D6BA00F0D4BA00F0D2BA1C
S321005014EC00F0D0BA00F0CEBA00F0CCBA00F0CABA00F0C8BA00F0C6BA04955300E4
S3210050150800F0C2BA00F0C0BA00F0BEBA00F0BCBA00F0BABA00F0B8BA00F0B6BAA7
S3210050152472B64EF68850CEF2000003684FF6FF71CFF60F7103EA010101602DE986
S32100501540F04F0CB45FF8441009680C7C4FF0010008744FF002024FEA0212EFF368
S3210050155C11804FEA101082F3118801B462B64FF003002EF0DCFD204600F0CEFA01
S3210050157800F08ABA00F088BA00F086BA00F084BA00F082BA00F080BA00F07EBABF
S3210050159400F07CBA00F07ABA00F078BA00F076BA00F074BA00F072BA00F070BA05
S321005015B000F06EBA00F06CBA00F06ABA00F068BA00F066BA00F064BA00F062BA4B
S321005015CC00F060BA00F05EBA00F05CBA0495530000F058BA00F056BA00F054BAA9
S321005015E800F052BA00F050BA00F04EBA00F04CBA00F04ABA00F048BA00F046BAD7
S3210050160400F044BA00F042BA00F040BA00F03EBA00F03CBA00F03ABA00F038BA1C
S3210050162000F036BA00F034BA00F032BA00F030BA00F02EBA00F02CBA00F02ABA62
S3210050163C00F028BA00F026BA00F024BA00F022BA00F020BA00F01EBA00F01CBAA8
S3210050165800F01ABA0495530000F016BA00F014BA00F012BA00F010BA00F00EBAC4
S3210050167400F00CBA00F00ABA00F008BA00F006BA00F004BA00F002BA00F000BA34
S3210050169000F0FEB972B64EF68850CEF2000003684FF6FF71CFF60F7103EA0101E9
S321005016AC01602DE9F04F0CB45FF85C1009680C7C4FF0010008744FF002024FEA62
S321005016C80212EFF311804FEA101082F3118801B462B64FF000002EF024FD204611
S321005016E400F016FA72B64EF68850CEF2000003684FF6FF71CFF60F7103EA01013C
S3210050170001602DE9F04F0CB45FF8B01009680C7C4FF0010008744FF002024FEAB9
S3210050171C0212EFF311804FEA101082F3118801B462B64FF001002EF0FAFC2046E6
S3210050173800F0ECF972B64EF68850CEF2000003684FF6FF71CFF60F7103EA010112
S3210050175401602DE9F04F0CB45FF8041109680C7C4FF0010008744FF002024FEA10
S321005017700212EFF311804FEA101082F3118801B462B64FF002002EF0D0FC2046BB
S3210050178C00F0C2F900F07EB900F07CB900F07AB900F078B900F076B900F074B974
S321005017A800F072B900F070B900F06EB900F06CB900F06AB900F068B900F066B93C
S321005017C400F064B900F062B900F060B90495530000F05CB900F05AB900F058B99D
S321005017E000F056B900F054B900F052B900F050B900F04EB900F04CB900F04AB9C8
S321005017FC00F048B900F046B900F044B900F042B900F040B900F03EB900F03CB90E
S3210050181800F03AB900F038B900F036B900F034B900F032B900F030B900F02EB953
S3210050183400F02CB900F02AB900F028B900F026B900F024B900F022B900F020B999
S3210050185000F01EB90495530000F01AB900F018B900F016B900F014B900F012B9B8
S3210050186C00F010B900F00EB900F00CB900F00AB900F008B900F006B900F004B925
S3210050188800F002B900F000B900F0FEB800F0FCB800F0FAB800F0F8B800F0F6B870
S321005018A400F0F4B800F0F2B800F0F0B800F0EEB800F0ECB800F0EAB800F0E8B8B8
S321005018C000F0E6B800F0E4B800F0E2B800F0E0B800F0DEB800F0DCB80495530094
S321005018DC00F0D8B800F0D6B800F0D4B800F0D2B800F0D0B800F0CEB800F0CCB844
S321005018F800F0CAB800F0C8B800F0C6B800F0C4B800F0C2B800F0C0B800F0BEB88A
S3210050191400F0BCB800F0BAB800F0B8B800F0B6B800F0B4B800F0B2B800F0B0B8CF
S3210050193000F0AEB800F0ACB800F0AAB800F0A8B800F0A6B800F0A4B800F0A2B815
S3210050194C00F0A0B800F09EB800F09CB800F09AB80495530000F096B800F094B8AF
S3210050196800F092B800F090B800F08EB800F08CB800F08AB800F088B800F086B8A1
S3210050198400F084B800F082B800F080B800F07EB800F07CB800F07AB800F078B8E7
S321005019A048BB53000495530024ED00E071B62DE9F04F4EF68854CEF200042768B3
S321005019BC4FF6FF75CFF60F7507EA05052560E0B45FF828A0DAF8008028F0800892
S321005019D8CAF80080BFF34F8FBFF36F8F5FF844502D682E7C4FF001072F74F146D0
S321005019F461B6BCF1400F5FF85C7001DA07EB8C073F68B84771B619F0080F18BF27
S32100501A1019F0040F19BFEFF30988C8F80000EFF30888C8F83000AF7C002F14D09D
S32100501A2C30462EF02DF90746002F0ED027F08AFC009061B6012F04D06846EFF35C
S32100501A4809812DF033FE4FF003002FF0C5F971B62E745FF8B400016841F0800146
S32100501A640160BFF34F8FBFF36F8F07BC12F4700F07D04EF68850CEF2000002680A
S32100501A8042F470020260BDE8F04F70470495530072B64EF68850CEF200000368F4
S32100501A9C4FF6FF71CFF60F7103EA010101602DE9F04F0EB45FF828703F684FF0A2
S32100501AB801003E7C387427F03AFC009027F051FC62B630F0E7FD72B63E7400F02E
S32100501AD401F80000BFF32F8F71B60BBC4FEA0010EFF311824FEA121280F3118822
S32100501AF013F4700F07D04EF68850CEF20000036843F470030360BDE8F04F62B6D7
S32100501B0C7047000004955300DDF82CC01CF1030F0CBF002001205FF814502D6888
S32100501B2804462EF0AFF8012809D0022802D02C74FFF7CEFF6846EFF309812DF0A4
S32100501B44B7FD4FF004002FF049F9000000000001FDFFFFFF287C402004955300EC
S32100501B6024ED00E0D91B5000DD1B500072B65FF814502D684FF000072F745FF8DE
S32100501B7C24D040B05FF834706E7C012E02D05FF8246001E05FF83060FFB4684629
S32100501B9880F30988D5F808D04FF010004FEA0010EFF311814FEA111180F31188BF
S32100501BB471B662B6EFF305800B2809D15FF86400016841F080010160BFF34F8F45
S32100501BD0BFF36F8F5FF884F030BFFDE7FEE7000024ED00E0F1FFFFFF2D1C5000F8
S32100501BEC72B6006800281DD08546EFF305810B2909D15FF82020136843F08003D9
S32100501C081360BFF34F8FBFF36F8FBDE8FE4F5FF8300003B41FB54FEA031383F3EE
S32100501C2411885FF844E0704762B670474FF01500704700004FF00D0C00DF7047BB
S32100501C404FF00E0C00DF70474FF0030C00DF70474FF00C0C00DF70474FF0190C0E
S32100501C5C00DF70474FF01B0C00DF70474FF0020C00DF70474FF00F0C00DF7047B1
S32100501C784FF02D0C00DF70474FF02E0C00DF704724ED00E004955300BFF32F8F90
S32100501C9471B6854607BC4FEA0010EFF311824FEA121280F31188BDE8F04FEFF33C
S32100501CB005800B2809D15FF83000016841F080010160BFF34F8FBFF36F8F6B463C
S32100501CCC83F309885FF848100968D1F808D0704724ED00E0049553000000000149
S32100501CE8FDFFFFFF71B68D465FF8107006461D46FFB4684680F309885FF8240030
S32100501D040068D0F808D04FF010004FEA0010EFF311814FEA111180F3118812F0F0
S32100501D20800F07D04EF68850CEF20000016841F4700101604FEA122212F0010F20
S32100501D3CFFD1EFF305800B2809D15FF86C00016841F080010160BFF34F8FBFF370
S32100501D586F8F5FF874F0000024ED00E004955300BFF32F8F71B685464EF6885005
S32100501D74CEF20000016841F470010160BFF34F8FBFF36F8FBDEC200B03BCE1EE2B
S32100501D90100A07BC4FEA0010EFF311824FEA121280F31188BDE8F04FEFF3058092
S32100501DAC0B2809D15FF85400016841F080010160BFF34F8FBFF36F8F684680F330
S32100501DC809885FF868000068D0F808D070470000000000207047002070470020CC
S32100501DE470470021AB22425401311129FAD300207047021E01D10A2008E000201E
S32100501E00012A05D10246AB238B540132112AFAD37047C04610B5294C204600F0F2
S32100501E1C5AF9206800F05DF926492060086010BD10B5234C204600F04EF92068B6
S32100501E3800F051F920492060486010BD10B51D4C204600F042F9206800F045F92B
S32100501E541A492060086110BD10B5174C204600F036F9206800F039F914492060CF
S32100501E70486110BD10B5114C204600F02AF9206800F02DF90E492060886110BDC4
S32100501E8C10B50B4C204600F01EF9206800F021F908492060886010BD10B5054C2D
S32100501EA8204600F012F9206800F015F902492060C86010BDA8144020AC144020E5
S32100501EC400B5594821F086FC002021F06EF900F06BF825F0F7F805F0DBFF544869
S32100501EE006F0A3F8534801F02AFF534804F0E5FA524827F06FFE25F011F8514807
S32100501EFC02F044FB504803F09EFA50480EF0D1F94F4812F025FA00BD00B54E4800
S32100501F1808F02CFD00F0CFFA4C490868022801D01BF0F2FC1FF0D4FF00BD00B530
S32100501F3481B002206A46D07025F03DFF002000F022F869460331012025F0A8F9C3
S32100501F506846C07838B10021012025F01DFA0021012026F0F7FD0FF06DFE0FF02D
S32100501F6C77FB11F0C2FF394829F0DAFA01B000BD00B526F0BDFC002000F001F866
S32100501F8800BD10B581B004460720FFF7CBF869460331204625F080F96846C0784D
S32100501FA40228F3D001B010BD00B521F021FA21F045FD21F0D3F90228F7D0032833
S32100501FC0F5D000BD00B581B069460331481E20F0D9F829F077F9FFF7D1FF684620
S32100501FDC8078502803D0802801D0902803D10121002000F05CFD01B000BD00B59D
S32100501FF881B069460331481E20F0C0F868468078802801D0502802D100F028FAB9
S3210050201404E0902802D12A201FF092FF01B000BD0221002008F0F8BCE47B5300F2
S32100502030AC3853006C305300B036530064C253000833530088365300EC40530048
S3210050204C90655300883C53009C5540207CDF530020F0B8BA20F0B8BAFFF7FCBF0F
S32100502068000070470648704770477047704708B922F018BC70470000704720F000
S3210050208474B97047C47A530000B520F00EF8FFF717FF0621002000F006FDFFF76E
S321005020A059F800BD00B5002022F098FB22F0E0FB3328FBD122F0CAFB002022F029
S321005020BCABFB00BD704700B582B0684627F072F8009802B000BD10B50446FFF776
S321005020D8F4FF206010BD3221B0FBF1F07047000010B507490C682468247828F0F7
S321005020F4E1FA012C05D3032C03D80349605C28F0B3FA10BD5CDF53002D2E5300BA
S32100502110364908680068007828F0D4BA00B528F0CEFA324A116809680870012054
S3210050212C28F050FB00BD30B583B00A222D49684600F08CFB00242546214601202B
S321005021482AF021F812E00A2C15D269460A7811F10900001B0270085DF12805D1C6
S3210050216403220221012028F0E8FA01250134E4B2684628F0C1FA0028E7D07DB91F
S3210050218028F09DFA0446E107284600D1012028F0E5FA601CC0B228F095FA2046BA
S3210050219C28F095FA03B030BD70B504460E4628F004FB0546204628F003FB2819A8
S321005021B8307070BD70B504460E4628F0FEFA0546204628F0FDFA2819307070BD47
S321005021D410B528F0CFFA04460130C0B228F0CDFA204628F0CDFA10BD60DF530083
S321005021F0312E5300002070470020704700207047002070470020704700207047C1
S3210050220C002070470020704730B51988C908002403E0055D15550134A4B28C422F
S32100502228F9D3C9001980002030BD30B504461546C10703D5012028F020FB14E097
S32100502244002014F0020203D0012028F00EFB0CE014F0040203D0012028F01BFBD3
S3210050226005E014F0080102D0012028F01EFB2870002030BD0420087000207047DE
S3210050227C002070470020704700207047D0B582B0114C00266846277828F02BF9A8
S3210050229810B96846007820700D490868006807704680067102B0D0BD00B582B04D
S321005022B4074801786A46013101701170002050808DF80400104628F058F902B032
S321005022D000BDC046DD14402054DF530030B50D4D0D4C0221002008F099FB206813
S321005022EC013020602868002100B1012108201FF0CFFD2068322804D12868C043FE
S3210050230828600020206030BD7047C046140C4020E014402000B581B000206A4607
S321005023245080D01C28F081FA6846C078F02804D328F056FA6846C07805E0694641
S32100502340023128F079FA684680780E4A11684968087001B000BD00B581B0002059
S3210050235C6A465080901C28F074FA694603316846807828F073FA044A10686946DA
S321005023780068C978017001B000BDC04668DF530010B581B000246846033028F0B8
S3210050239494FA10B96846C078441C034908680068047001B010BDC04670DF53007C
S321005023B00020704700207047002070470021084629F0E5BE0021022029F0E1BE10
S321005023CC0121022029F0DDBE10B5044628F06EF9012804D3032802D81549405C1A
S321005023E82070002010BD10B5044628F061F9012201460020012905D307D00329F6
S3210050240407D301D1022105E01146104602E0014600E01146217010BD30B581B031
S3210050242004460D466846FFF754FE0098FFF757FE2168411A2960206001B030BD49
S3210050243C3A2E530000B51FF013FE002000BD1FF04ABE024908780130087070477F
S32100502458E4144020704700207047704700B586B0FFF702FE00F016FB20F0ACF8DF
S3210050247401A9002001F05CFD019810B9012101F035FD6946002001F0A4FC009843
S32100502490032807D10221002001F07EFC0121002001F07AFC02F085F924F03CFDC3
S321005024AC09F0A6F9044908780028F5D022F0F8F9FCE720201FF011BF722D402068
S321005024C800B584B0FEE7000010B5002420460022114626F0A7FD0134102CF7DB0F
S321005024E410BD70B5AD48AE4A810702D007201060FEE7AC498B0702D008201060E0
S32100502500FEE7AA4B9C0702D009201060FEE7A84CA50702D00A201060FEE7A64DB8
S3210050251CAE07B60F04D00B201060FEE704C804C19942FBD3214600E040C1A94212
S32100502538FCD370BD30B59E4C216851F480512160216851F4005121609A4C216837
S321005025549A4851F001012160016845F6F022984B11430160016819430160216872
S32100502570C907FCD4944B1968C904FBD519688904FCD592490B6A53F000530B622A
S3210050258C4B6A53F000434B624B6A8E4D53F080734B622B6853F001032B600368B2
S321005025A8864C134303600368234303602B68DB07FCD40B689B00FCD54B68002B00
S321005025C4FCD54B68DB01FCD5814C216851F000512160804C216851F001012160F2
S321005025E001681143774A01600168114301602068C007FCD4794908688000FBD5EB
S321005025FC30BD784A106810F0706003D0664913200860FEE77448754B0021016076
S321005026184160196851F000411960724B41F23C011960714B00211960043B196877
S3210050263451F0804119606C4B196851F080611960016851F4003101604168694B49
S3210050265051F480314160196851F001011960664A11680029FBD5604A116831F0DE
S3210050266C00411160624A116811F0040FFAD04FF0004201681143016041685E4B56
S32100502688114341601868D20B104318604FF44031586808435860594B18680843DD
S321005026A41860043B186810431860564B186808431860554B55481860484A10681F
S321005026C0000E0007FAD5534953480860534A1068000E00F016001628F8D1514A5A
S321005026DC106850F0004010604F4A4C4810604F4A1068000E00F016001628F8D15B
S321005026F84C4A106850F0004010604B4A106850F480301060494A4A4810604A4AD8
S321005027141068000E00F009000928F8D1434A106850F000401060454A106850F49A
S3210050273080301060434A40481060434A1068000E00F009000928F8D13D4A10688D
S3210050274C50F000401060704710B583B0FFF7C5FEFFF7EEFEFFF74DFF39483A4B99
S32100502768FE2101704FF400117E2280F873201960364B01221960027080F873205D
S321005027840021017080F87320027080F87320FFF79DFEFEF745FCFFF751FEFEE7D8
S321005027A0E0F05300E8144020000C4020A4144020A8144020287D402034C12D4041
S321005027BC04C12D4000C02D400FA5000014C12D4010C32D4004C32D4030C52D4080
S321005027D804C52D4010C52D4004832D4080002E4000002E4008002E4010002E40D3
S321005027F400402D4004402D4004002E400C832D4018832D401C832D4000832D40A3
S321005028100400000840832D400400001644832D4048832D4080832D4084832D40B0
S3210050282C88832D4088852D4080852D400400000984852D40C8852D40C0852D40E7
S32100502848C4852D401C132940BC02294070042940E1B5121F45DB4FF00305054059
S3210050286412D0C5F10405022D11F8013B00F8013B08DB11F8013B00F8013B03DD7D
S3210050288011F8013B00F8013B521B2EDB4FF003050D403DD1083A1CDB143A11DBE2
S3210050289CB1E86840A0E86840B1E86840A0E86840203AF5DA12F1100FA2BFB1E8A3
S321005028B86840A0E86840103A1432A1BFB1E82840A0E82840B2F10C02F7E708322C
S321005028D409DB121FB9BF51F8043B40F8043B28C928C0A8BF121F121D00F08F8067
S321005028F0022A11F8013B00F8013BA4BF11F8013B00F8013BC4BF11F8013B00F835
S3210050290C013B7EE021F0030151F804EB022D28DC4FD00C2A18DBA2F10C024FEA1D
S321005029281E23B1E8E04043EA05634FEA152545EA06654FEA162646EA07664FEA56
S32100502944172747EA0E67E8C0103AEADA0C3209DB4FEA1E2551F804EB45EA0E650F
S3210050296040F8045B121FF5DAA1F10301BDE70C2A18DBA2F10C024FEA1E63B1E817
S3210050297CE04043EA05234FEA156545EA06254FEA166646EA07264FEA176747EA6D
S321005029980E27E8C0103AEADA0C3209DB4FEA1E6551F804EB45EA0E2540F8045BD3
S321005029B4121FF5DAA1F1010195E70C2A18DBA2F10C024FEA1E43B1E8E04043EA57
S321005029D005434FEA154545EA06454FEA164646EA07464FEA174747EA0E47E8C069
S321005029EC103AEADA0C3209DB4FEA1E4551F804EB45EA0E4540F8045B121FF5DA5C
S32100502A08A1F102016DE7BDE8E140704761B410F0030F06D0521E3BD300F8011B67
S32100502A2410F0030FF8D101F0FF0C4CEA0C2C402A4CEA0C4C1FD3A2F14002634693
S32100502A4065466646A0E86810A0E86810403AA0E86810A0E86810F5D240321DD02D
S32100502A5C12F0200F1CBFA0E86810A0E8681012F0100F18BFA0E8681012F00F02F1
S32100502A780ED0121F06D340F804CB121F02D340F804CBF6E7121D03D000F8011BFD
S32100502A94521EFBD161BC704700B500F0ADFB002180F8371000BD30B582B0054674
S32100502AB00C4600F0A3FB90F8371001291DD1002207E00B6913EBC2018B88AB42AF
S32100502ACC0AD0013292B281680B8B9A42F3D390F83A102A20042310E00029F8D002
S32100502AE88A780192022200920123224600F038FB08E00029EDD190F83A102A2097
S32100502B04012302221FF0B3F902B030BD70B505460C4600F071FB022C94BF0122FB
S32100502B20002290F8371029B990F83A100E222A20012305E03AB990F83A100E2226
S32100502B3C2A2005231FF097F906E086680E23214601222846F668B04770BDF0B5F2
S32100502B5882B007460E4600F04DFB0546042E94BF01210021012310F137042078F5
S32100502B7408B1052329B915222A2095F83A101FF076F92078012816D1002410E09A
S32100502B90416911EBC4018888B84208D1887832460190152000900323284600F033
S32100502BACDDFA0134A4B2A868418B8C42EAD302B0F0BD70B505460C4600F01AFBC8
S32100502BC890F8371021B990F83A102A20012305E00B2C07D990F83A102A20052372
S32100502BE406221FF044F906E086682146062305222846F668B04770BD10B500F0DB
S32100502C00FDFA90F8371039B990F83A1014222A2001231FF02EF906E084681423F5
S32100502C1C042200210846E468A04710BD70B505460C4600F0E5FA062C94BF012278
S32100502C38002290F8371029B990F83A102A200123052205E0052332B990F83A1026
S32100502C541A462A201FF00BF905E08668214600222846F668B04770BD30B50446D6
S32100502C7000F0C4FA0F2C1FD3122C1BD9202C19D0222C19D3262C15D9302C13D0F7
S32100502C8C322C13D3332C0FD9402C0DD0442C0BD0492C09D04D2C09D34E2C05D9BC
S32100502CA8502C03D0802C01D0902C01D1012200E0002290F8371029B990F83A10B8
S32100502CC40F222A20012305E03AB990F83A100F222A2005231FF0CBF806E085680D
S32100502CE00F23092221460020ED68A84730BD70B505460C4600F082FA90F8371070
S32100502CFC29B990F83A1010222A20012306E0042C07D990F83A1010222A200523A6
S32100502D181FF0ABF806E0866810230A2221462846F668B04770BD000070B585B0B3
S32100502D3400F062FA04463730007860B300261122684631462AF02FFB2068804794
S32100502D50354610E08258214680180A2205FB020000F00DF94FF6FF71884202D058
S32100502D6C012669460E540135ADB294F83A10D24B3C224A4318681118C98E8D427B
S32100502D88E4D360688047012E03D12146684600F05BF805B070BDF0B583B0054633
S32100502DA40291164600220121C17080780192012833D1C3492A88086816F13A0131
S32100502DC00B78009192003C2111FB03039B68C018145A15E057681268314663003B
S32100502DDC3F18DB5B0A27121807FB032000F0C9F84FF6FF72904203D002990122AE
S32100502DF801920A540134A4B2009AB049127808683C2313FB02022F8893681B180A
S32100502E1413EB87035B889C42DAD3019803B0F0BD70B50C4610F12506325D0546E0
S32100502E302AB9A96820460968884702463055012A04D1A96820464968884700E0F2
S32100502E4C022070BDF0B586B007460C4601AE00203082410000258D530130082823
S32100502E68F9D30DE0795D012908D1C06832462146C018062305FB030000F0D8F89B
S32100502E840135ADB28E4A94F83A0013683C2111FB0030018F8D42E7D3206880472D
S32100502EA0002506E0A1686800805B896888470135ADB2308A8542F5D3606880473C
S32100502EBC2068804714F10C0514F1380660683178777800918047012F09D12068B2
S32100502ED880470022727060688047284639460CF0C8FE0098012816D12068804788
S32100502EF40022327060688047281D00210CF0BBFE206880470021685C4A191279DC
S32100502F101043685401310429F7D36068804706B0F0BD70B5674B1A6890F83A30DA
S32100502F2C3C2414FB03235B69D21811EBC1018B181A7A0C302C21012A00D12D2128
S32100502F4801220A540022197A012903D1815C9C5C21438154815CD4182579294005
S32100502F6481549E5C011D8D5C35438D5424792C408C540132042AE8D370BDF0B5F5
S32100502F8005460E464FF6FF7408466988FFF74AFF4C49012815D1AA88A24228D058
S32100502F9C096896F83A303C2717FB0313DB68C918062302FB0311097921B129886C
S32100502FB88919097D012916D014E0B8B9EA88A24211D0096896F83A303C2717FBF5
S32100502FD40313DB68C918062302FB0311097919B129888919097D01B11446298835
S32100502FF0891908752046F0BD11F120031878013018701878138880000B5240186F
S3210050300C51884180704711F12003187801301870187841F82020704710F12002B0
S3210050302811784B1E137050F821007047F0B58EB005460C46049200200390222195
S3210050304405A82AF053F92A4605A92046FFF7D2FF81E00022029205A8FFF7E2FF21
S321005030600546A9B2B1EB154F77D2164F14F13A0006783B683C2212FB0636366904
S3210050307C9B19062601FB06364B1CB178009063F30F05012903D319D0022929D033
S3210050309857E0307931880138012808D8049A168A7300701CD15210820020039046
S321005030B4D5E7A36808469B689847C2B2039242E0EC1440202A4605A92046FFF7AE
S321005030D0A0FF00983B6800783C2111FB0030C06819183088062303FB001228E051
S321005030EC21688847009800783C2242433B68D2589818338821460A2202FB03005C
S32100503108FFF739FF0190616888474FF6FF710198884216D02A4605A92046FFF786
S3210050312476FF00993B6809783C2211FB0230019AC0681918062000FB021205A994
S321005031402046FFF759FF01210291F078012801D1039810B90298002883D09DF843
S3210050315C340000287FF479AF0EB0F0BD00F08BB830B50124051E11D0406A2AF09A
S321005031787BF901280CD15C49E86A884208D15B49A86A884204D15A49286B88427C
S3210050319400D10024204630BD10B581B0002400946A4621462A2026F0DEFC00B9C9
S321005031B0009C204601B010BD30B5054600F01EF80446280001D1FFF7E9FF4C4940
S321005031CC086020B92A20022394F83A1006E0FFF7C7FF38B12A20062394F83A1037
S321005031E800221EF042FE01E000F001F830BD424800F002B84048704730B50546AB
S3210050320410F137040020207000F0B1F8284600F003F80120207030BD30B50446AD
S3210050322000250AE0415840180A216943425A12190818007A0135ADB2107594F85E
S3210050323C3A102F4B3C22514318680A18928E9542EAD3002507E001682846884762
S3210050325814F1250148550135ADB2A068818B8D42F3D30022228714F10C001146CB
S3210050327442540B18013104291A71F9D330BDF0B587B007460C46164601930025FC
S3210050329029460095112202A82AF087F838688047019B012B08D30AD0032B0BD362
S321005032AC0AD0802B0AD12546267107E02546667104E02546E68001E02546A6710D
S321005032C83A4602A92846FFF766FD012800D10090786880470099012903D139465B
S321005032E402A8FFF7B3FD07B0F0BDC0465CDB6166BD19222CC93861D7EC14402003
S32100503300540C402070B583B0D74C94F83700D74D01280ED102AEF11CB01C26F092
S3210050331CEDFFA8780190FF200090F278294680232046FFF71BFF03B070BD30B53C
S321005033380020CC4906224243CB4B545A1B5D5218FF2B0CD0C9490C68C9498D7EF2
S321005033543C2111FB0545AD696419E35C1371012300E00023D37001300528E4D37F
S3210050337030BDF0B581B0FFF7DEFF0022BF4951F82250BF4C05B3002119E006206D
S3210050338C01FB0053B7481E88865DFF2E0DD002B4B548277800683C2111FB0707BD
S321005033A8BF69C019805D5871012002BC00E00020D870013189B2B14B5000C05A12
S321005033C48142E0D301320F2AD6D3AE4AA74D1188695CFF290CD0A64B18682378B2
S321005033E049003C2616FB0303DB69C018085AD080012000E00020D0700021A44A7B
S321005033FCC800135AEB5C1218FF2B0BD09A48267800683C2717FB0606B669801993
S32100503418C05C9071012000E00020D07001310229E7D301B0F0BD00B582B08D4893
S3210050343490F837208C49012A08D10A7A0192FF220092802306310022FFF78CFE28
S3210050345002B000BD00B582B0834890F837208349012A08D10A7A0192FF22009270
S3210050346C802306310122FFF779FE02B000BD00B582B07A4890F837207949012AA0
S3210050348808D10A7A0192FF220092802306310222FFF766FE02B000BD00B582B081
S321005034A4704890F837207049012A08D10A7A0192FF220092802306310322FFF7A3
S321005034C053FE02B000BD00B582B0674890F837206649012A08D10A7A0192FF227A
S321005034DC0092802306310422FFF740FE02B000BD00B582B05D4890F837205D4938
S321005034F8012A08D10A7A0192FF220092802306310522FFF72DFE02B000BD00B54E
S3210050351482B0544890F837205349012A08D10A7A0192FF2200928023063106222C
S32100503530FFF71AFE02B000BD00B582B04A4890F837204A49012A08D10A7A0192A6
S3210050354CFF220092802306310722FFF707FE02B000BD00B582B0414890F837209E
S321005035684049012A08D10A7A0192FF220092802308220631FFF7F4FD02B000BD40
S3210050358400B582B0374890F837203749012A08D10A7A0192FF2200928023092274
S321005035A00631FFF7E1FD02B000BD00B582B02E4890F837202D49012A08D10A7A05
S321005035BC0192FF22009280230A220631FFF7CEFD02B000BD00B582B0244890F846
S321005035D837202449012A08D10A7A0192FF22009280230B220631FFF7BBFD02B088
S321005035F400BD00B582B01B4890F837201A49012A08D18A7B0192FF22009280232A
S321005036100C310122FFF7A8FD02B000BD00B582B0114890F837201149012A08D161
S3210050362C8A7B0192FF22009280230C310222FFF795FD02B000BD00B582B00848AF
S3210050364890F837200749012A08D18A7B0192FF22009280230C310322FFF782FD18
S3210050366402B000BD540C4020180C4020C42E5300EC144020740C4020EC2E53004F
S321005036808E0C4020CE2E5300360C4020440C402000B582B0DA4890F83720DA4932
S3210050369C012A08D10A7D0192FF220092802312310222FFF75BFD02B000BD00B56F
S321005036B882B0D14890F83720D049012A08D10A7D0192FF22009280231231012283
S321005036D4FFF748FD02B000BD00B582B0C74890F83720C749012A08D10A7D0192D7
S321005036F0FF220092802312310022FFF735FD02B000BD00B582B0BE4890F837204A
S3210050370CBD49012A08D18A7E0192FF220092802318310522FFF722FD02B000BD5C
S3210050372800B582B0B44890F83720B449012A08D18A7E0192FF2200928023183132
S321005037440122FFF70FFD02B000BD00B582B0AB4890F83720AA49012A08D18A7EC7
S321005037600192FF220092802318310422FFF7FCFC02B000BD00B582B0A14890F8EA
S3210050377C3720A149012A08D18A7E0192FF220092802318310622FFF7E9FC02B0A7
S3210050379800BD00B582B0984890F837209749012A08D18A7E0192FF220092802387
S321005037B418310222FFF7D6FC02B000BD00B582B08E4890F837208E49012A08D188
S321005037D08A7E0192FF220092802318310322FFF7C3FC02B000BD00B582B0854850
S321005037EC90F837208449012A08D18A7E0192FF220092802318310022FFF7B0FCBD
S3210050380802B000BD7E49487902280CBF0120002070477B49487900280CBF0120D1
S32100503824002070477749487900280CBF0120002070477348007F00280CBF0120A1
S32100503840002070477149C88800280CBF0120002070476E49C888012818BF002023
S3210050385C70476C4A917B0120042902D0012900D0002070476749887B03280CBFE7
S32100503878012000207047644A91790120042902D0012900D0002070475F49887994
S3210050389403280CBF0120002070475B49C88802280CBF0120002070475949CA7B0C
S321005038B00020022A03D10989022900D10120704750490A790020032A04D1898CCD
S321005038CC0239012900D8012070474D4AD188023901298CBF00200120704747494D
S321005038E88A8C0020042A03D10979022900D1012070474649CA7B00201AB9098987
S32100503904042900D1012070473F49C88806280CBF0120002070473A498A8C0020F9
S32100503920072A03D10979012900D1084670473649C878012818BF0020704733499C
S3210050393CC878012818BF002070473049C878012818BF002070472C48C07E012897
S3210050395818BF002070472B49C878012818BF002070472849C878012818BF0020F3
S3210050397470472649C87A012818BF002070472349C87A012818BF002070472049B4
S32100503990C878012818BF002070471D49C878012818BF002070471949C878012866
S321005039AC18BF0020704718494A7B0020012A03D14979012900D1084670470F499C
S321005039C8CA780020012A04D121310978012900D1084670470B49C878012818BFC4
S321005039E400207047064991F821200020012A03D1C978012900D108467047C0461B
S32100503A00540C4020180C40203E0C4020360C4020440C4020340C4020AB494A7BBB
S32100503A1C0020012A03D14979012900D108467047A749C878012818BF0020704750
S32100503A38A54991F821200020012A03D1C978012900D10846704700B5012100200D
S32100503A5407F0BDF8002000BD00B519F09BFF002000BD00B59A480021FFF759FA41
S32100503A70002000BD00B597480121FFF752FA002000BD00B593480221FFF74BFA44
S32100503A8C002000BD00B5FEF797FA002000BD00B5FEF7ABFA002000BD00B5FEF7FD
S32100503AA8D9F9002000BD00B5FEF7E0F9002000BD00B5FEF7F3F9002000BD00B575
S32100503AC4FEF7BEF9002000BD00B5FEF7DDF9002000BD00B5FEF79CF9002000BD8E
S32100503AE000B5FEF7A3F9002000BD00B5FEF712FA002000BD00B5FEF71CFA0020DE
S32100503AFC00BD00B574480321FFF70DFA002000BD00B571480421FFF706FA002083
S32100503B1800BD00B56D480521FFF7FFF9002000BD00B56A480621FFF7F8F900208E
S32100503B3400BD00B500210846FEF7B5FF002000BD00B502210020FEF7AEFF0020FE
S32100503B5000BD00B503210020FEF7A7FF002000BD00B504210020FEF7A0FF002027
S32100503B6C00BD00B507210020FEF799FF002000BD902000211EF0FEBA022026F0F4
S32100503B88C8BB032026F0C5BB012026F0C2BB00B527F038FB002000BD002026F0C9
S32100503BA4C6BB012026F0C3BB032026F0C0BB042026F0BDBB072026F0BABB00B5AC
S32100503BC0FEF730FA002000BD502000211EF0D8BA00B5002102201AF006F8002046
S32100503BDC00BD00B53C480721FFF79DF9002000BD00B501201AF022F8002000BD19
S32100503BF800B50021084619F0F2FF002000BD00B50021012019F0EBFF002000BD99
S32100503C1400B50121002019F0E4FF002000BD00B50121022019F0DDFF002000BDC3
S32100503C3000B50121084619F0D6FF002000BD264951F830000047244911EBC000EA
S32100503C4C40680047224951F820000047F0B585B01D4E07460491154696F83700B5
S32100503C680393012828D190001B4A8158002402911DE0029A062004FB00210A2D97
S32100503C84087906D1012282403A40100018BF012003E0B8420CBF0120002040B135
S32100503CA08878002301900398049A00903046FFF75BFA0134A4B20B4A6800805A52
S32100503CBC8442DCD3002005B0F0BDC046340C4020360C4020180C4020540C402013
S32100503CD8282F5300B82F5300EC2E5300CE2E530000B511231E223C2000211EF026
S32100503CF4BEF8012000BD00B511231F223C2000211EF0B5F8012000BD30B5012480
S32100503D10051E12D0006829F0ABFB01280DD1A949A868884209D1A84A696810682D
S32100503D2C884204D1A649E868884200D10024204630BD30B5041E02D0FFF7E2FF85
S32100503D4830B114233C20012200211EF08EF81EE09D492069E2690019486060697B
S32100503D64001908611219CA600C6000200CE0984B022543F82050974B08241C546B
S32100503D80964C002544F82050013080B2537C9842EFD30120087230BD10B5914A28
S32100503D9C1378012433B91E233C20032200211EF062F810E05268527C904201D3B0
S32100503DB80F23F3E7032905D0012903D0022901D01523EBE700F02CFA04462046C3
S32100503DD410BD70B5814A05461078012408B91E2305E05068407C0E46854204D37B
S32100503DF00F233C200422002103E029B914233C2004221EF036F808E026F003FFD2
S32100503E0C714951F82500306026F000FF0024204670BDF0B587B06B4C05460122BF
S32100503E28207A02920022019230B91E233C20052200211EF01AF854E02068C08C4F
S32100503E440F46854201D33223F2E709B1086808B91423EDE72846898800F03DFB51
S32100503E600090FF2841D0606810EB05100279867A039226F0CEFE574951F826004F
S32100503E7C012824D1564951F8260003281FD12068C169415809180C2006FB0010E4
S32100503E98007A50B14E48805D10F0080005D0616811EB0511487A01280BD1616882
S32100503EB4280106AA4058009B059093703868049015800123019326F0A5FE019924
S32100503ED001290AD126F09DFE424B04A903981A68904700B9029026F097FE02980C
S32100503EEC07B0F0BD10B53B4A1378012433B91E2309223C2000211DF0B6FF13E07C
S32100503F085268527C904201D30F23F3E7032901DC022901D11623EDE72C4B53F838
S32100503F242020012A02D100F0B7F90024204610BD10B52A4A137801240BB91E2308
S32100503F4004E05268527C904204D30F230A223C20002103E029B914230A223C209B
S32100503F5C1DF089FF04E01E4A52F8200000240860204610BD10B5174A137A012411
S32100503F7833B91E230D223C2000211DF076FF1AE0126892F82B30984201D3112341
S32100503F94F2E7022904D0012902D009B11223EBE70C234343106A8018C018427ACB
S32100503FB01C235A430C4B007AD25890470446204610BD0000102108F4C4325300FE
S32100503FCC7C2A02CDF0144020041540201015402008154020F8144020E03253005E
S32100503FE8EC32530010B587490A7A012412B91E231A4606E0096891F82B2090424F
S3210050400406D311231E223C2000211DF030FF0DE00C224243086A40188018417A87
S321005040201C2251437A4A007A8918496988470446204610BD10B575490A7A012453
S3210050403C0AB91E2305E0096891F82B20904206D311231F223C2000211DF00DFF2E
S321005040580DE00C224243086A40188018417A1C225143694A007A891889698847D8
S321005040740446204610BD30B563490446087A08B91E2304E00868C08C844206D3BF
S321005040900D2313223C2000211DF0EBFE0FE0496811EB04118D7A26F0B4FD5A49C4
S321005040AC485D00F0F700485526F0B0FD204600F0C5F930BDF0B585B0514C227AA2
S321005040C812B91E23142202E030B914231A463C2000211DF0CAFE31E04279057946
S321005040E406680F6802928A883B4628460192314600F06AF920BB2068464BC26974
S32100504100197A49194900121852681218885A4FF6FF716B469A1C5980314600F0C3
S3210050411CEBF888B9206881690918684640880C2202FB0010029B02890198314691
S32100504138ADF81000039703A800F091F905B0F0BD10B534490446087808B91E2331
S3210050415404E04868407C844206D30E2316223C2000211DF084FE0DE026F051FD44
S321005041702B49A000022242502A490122425026F04BFD204601F0D6F810BD244A2D
S3210050418C13782BB91E2317223C2000211DF06BBE5268527C904201D30E23F4E7EB
S321005041A8032905D0012903D0022901D01523ECE7194B43F8201001F0DEB8124AEE
S321005041C4137A0BB91E2305E012682B321278904205D3112318223C2000211DF00F
S321005041E048BE01F0EFB809490A7A0AB91E2305E009682B310978884205D31123EC
S321005041FC1A223C2000211DF036BE01F000B9C046F0144020EC325300101540208D
S32100504218E0325300F81440200415402008154020F0B581B0B84C05462068C26995
S3210050423401260C236B43B64F8258009312189818B44A0129407A24D307D00329EC
S321005042500BD020D247F825600221126801E0314612689047B8B9064615E003214F
S3210050426C1268904700B906462068002147F82510C169009A415809185018007A0D
S32100504288012804D1A349485D50F008004855304601B0F0BD10B504469C4821B1B7
S321005042A4A200032907D111501CE050F82410204600F019F816E0954B1146012272
S321005042C00A501868C16941580C22091804FB0210007A012808D126F09CFC90498C
S321005042DC085D50F00800085526F098FC10BD8A49002241F82020704730B5864B14
S321005042F80C46196806234343C8694018C0684FF6FF754018C31818885988A942C9
S321005043140BD0A84209D01B7923B91346224600F006F803E01080002000E00120E6
S3210050433030BD70B5884219D1044675480568A869012140190C26664335186D6858
S3210050434CAA4207D08059461C03D0954201D8904200D2002148420130C0B218B9BB
S321005043681C8001E000F001F870BDF0B581B0009301270546884222DC634B1B687B
S321005043849E694C1914EBD4746410F6180C2304FB03635B68934202D310D9611E29
S321005043A000E0651C8D42EBDD934200D9013C844209DB0C2060438059411C04D045
S321005043BC904202D3009800270480384601B0F0BD70B5504CE668367C0125B042F0
S321005043D825D211F0005605D1CE0FF60705D14E4E314002D00A23142206E0402A0D
S321005043F401D90B23F9E733B914231A463C2000211DF035FD10E02168CA69400044
S321005044105218526852184FF6FF71805A884202D010F4004001D00C23E1E705462A
S3210050442C284670BD10B50C46FF2806D03A4951F8303013B111462046984710BD16
S32100504448374B1A6812EB0012117AD088FF2905D0324A12EBC101496801B1084722
S321005044647047F0B583B01C462F4B064618680F4610EB820526F0CBFB2C4A52F83C
S3210050448024100120012907D1224A52F82410032901D0012900D10020009026F0CB
S3210050449CBDFB0099C9B9307902AA1080A978884200D911803068019026F0ADFBBA
S321005044B81848015D0A0702D501F0F701015526F0A7FB3B4601AA2988E878FFF7C2
S321005044D4ADFF03B0F0BD30B5124A136813EB00139A7B1D680820FF246D0000D576
S321005044F040209B8999422CD9D507ED0F22D012F002021DD0814224D904460B2301
S3210050450C12E0C046F014402008154020E43253001015402000F8FF3FC8325300F3
S32100504528F414402000154020041540203C20052200211DF09AFC09E01C4607E052
S321005045445A233C20052229461DF086FC00E00C46204630BD30B50124051E11D074
S32100504560006828F085FF68B16F49A868884209D16E4A69681068884204D16D490A
S3210050457CE868884200D10024204630BD70B56A4E6A4D044600203075287120000F
S3210050459804D112231F202246214609E0FFF7D8FF10B9E06A602806D91F20052302
S321005045B4002211461DF05BFC2DE05F4B2C60606A1968421804C6A26A8918401801
S321005045D00022134614461DC6012030807280B280574800F01BFB574C14F160001F
S321005045EC0622002128F0DBFE14F166000622002128F0D5FE14F16C0006220021CA
S3210050460828F0CFFE60222046002128F0CAFE0120287170BD30B54A4A1178012464
S3210050462419B901461F20234606E010B946490D7835B101461F20022322461DF09A
S3210050464018FC17E026F0DFFA3A48017D0139012908D8C17D00290CBF1730183009
S3210050465C022101702546002426F0D2FA012D03D13448072100F0F8FA204630BD0C
S3210050467810B5334A1178012421B901461F202346022207E010B92F4A117831B15F
S3210050469401461F2002231A461DF0E9FB10E026F0B0FA2348417D51F002014175E5
S321005046B0C17D01B9C47526F0A9FA0821204800F0D1FA0024204610BD000010B546
S321005046CC1E4A1178012419B901461F20234606E010B91B4A117831B101461F20A0
S321005046E8022303221DF0C1FB16E026F088FA0F48417D01F0FD014175C17D01299D
S3210050470401D0032903D1017EC1750021017626F07BFA0821094800F0A3FA00246F
S32100504720204610BD00000000F9CF43F7803653000732086A1C1540201415402024
S3210050473C84365300A033530038154020181540205E3653000000000030B5864DFF
S321005047582B78012433B90B2201461F2023461DF084FB20E010B97F4D2B7823B187
S321005047740B2201461F200223F3E701B122B912230B221F200021ECE77A4B187DA5
S32100504790022809D304D0052806D80323137000E014700870002402E0002414709F
S321005047AC0870204630BD10B56E490878012812D16E4A907D00F0FD00907500F021
S321005047C845F96D4800F085FA6C4C0121204600F0ADF92046012100F077F910BD92
S321005047E400B565490A7922B90F221F200123002107E05F4B1A8A824206D00F22ED
S32100504800FF211F2003231DF034FB09E00868016911B1008B25F022FC594801217F
S3210050481C00F022FA00BDF0B582B0554C0D46217929B910221F2001231DF01DFB60
S321005048384DE020B11022FF211F200323F6E735B1286820B12068A988C08A81426F
S3210050485405D94748017E122310221F20E8E7002726F0CFF9434EAA8829683068A0
S3210050487028F07CFD2068C07F01280AD1384600F0CAF80746012F04D130683E49D9
S3210050488C023000F0A7F926F0BBF9012F08D02068C07F28B13449487E012801D049
S321005048A8707EA0B9206890F8211001290BD101692E4BADF804103268408BD97DB9
S321005048C489180091694625F0BFFB09212B4800F0C7F902B0F0BDF0B584B0254CDC
S321005048E00E460127628A00970021824200D03946224D287930B914221F203B4644
S321005048FC00211DF0B8FA49E021B11422FF211F200323F6E70EB1306808B912238A
S3210050491806E0B18819B1286802698A4204D2232314221F20217EE6E7114F397D6A
S32100504934043901292ED8E37D7968C08A01930291ADF80C0026F05DF9B288316802
S321005049500298019B181828F009FD26F057F9286802A9808BFFF75BFAB0B90DE024
S3210050496C5E36530018154020603653001C15402014154020A0335300381540208F
S3210050498826F03DF9E089788226F03CF900220092009804B0F0BD30B582B0984C1B
S321005049A420680D46016961B1964B2A68D97D8A180092AA88511AADF80410008B6C
S321005049C0694625F047FB2068C07F012808D126F01AF928688D49023000F002F90A
S321005049DC26F016F902B030BD87490A7922B916221F200123002107E010B9864B3A
S321005049F81A782AB1162201461F2002231DF035BA0868C07F012801D1804A5076C7
S32100504A14704730B57E4B7B4D1A68AC7D0020911C125D520613D55A7E012A0FD1F9
S32100504A300246744D2B688C5C90339B5C234000D001200132D2B2062A03D200289E
S32100504A4CF1D000E0012030BD30B56F4C60896F4D013806D36081000403D10A210E
S32100504A68284600F0FBF8A089013806D3A081000403D12846062100F0F1F8608AFF
S32100504A8460B126F0BEF8608A0138608226F0BCF8608A18B92846022100F0E2F8FE
S32100504AA0208A013806D32082000403D12846032100F0D8F82089012800D1A07663
S32100504ABC013806D32081000403D12846042100F0CBF830BD30B582B00A4600243F
S32100504AD823464A490D6815EB43014FF6FF75098EA94213D04D002D5A013D0FD3A5
S32100504AF449000D522D040BD103F007040121A14010F1600414EBD3052C788C43EB
S32100504B102C7001240133302BDFD3012C08D16030009069460620ADF80400104637
S32100504B2C25F08EFA02B030BDF0B587B0044604910026039626F061F814F16C057C
S32100504B48A91F2846062228F00DFC14F166000622314628F026FC26F055F830465F
S32100504B64274B19682E5C11F19002125C0096324023D0002212EBC00311EB430341
S32100504B801E8E4FF6FF7301969E4215D0009F01239340DBB21F400FD001B414F1E9
S32100504B9C6006375C13EA070001BC03D13B43335401230393019B5B0041261E538B
S32100504BB80132082ADCD301300628CFD30398012808D160340594062006AA111FA6
S32100504BD41080049825F038FA07B0F0BD70B50023074E3268C45C9032D25C2240EF
S32100504BF0CD1815F8664F14432C700133062BF1D370BDC0461415402060365300EB
S32100504C0C381540205E3653001C154020A033530010B504464068E17E0170FF2144
S32100504C284170002105E063695A5423695A540131C9B2237E00229942F5D34280DA
S32100504C4400781421484321684018817BFF2903D0A06850F821008047204600F060
S32100504C60AEF810BD70B504460D46466825F0CBFF2069405D48B96069B17845546E
S32100504C7CB0780130B0702069415D0131415525F0BFFF70BD70B505460E464468EE
S32100504C9825F0B5FF2869805DC0B9A27806E068691118013909788154013AD2B2B1
S32100504CB4E0788242F5D8A0780130A0702869815D013181556869E1784654E078B9
S32100504CD00130E07025F09AFF70BD30B581B0054640680024C47012E025F08DFF22
S32100504CEC69462846C97800F017F825F089FF69462846897800F0AFF80121204322
S32100504D0800D121460C466A460332511E284600F06CF80128E4D0204601B030BDB8
S32100504D2470B542690469525C4368A55C013DA5540A4604E0456956197678AE540E
S32100504D40E2B29D78541CAC42F6D3681E9870D878814201D20138D87070BDF0B56A
S32100504D5C46680446C879FF2801D00D4613E00868A168007851F82000804721E04C
S32100504D781421484321684718F87BFF2803D0A16851F820008047387B3070307880
S32100504D9471788842EED1002706E02868A168C05D51F820008047013728798742A6
S32100504DB0F5D3E8793070204600F001F8F0BD70B5456804462878142148432168C7
S32100504DCC4018407B0CE02268142100FB01262870B17BFF2903D0A06850F8210065
S32100504DE88047707BFF28F0D170BDF0B584B04568074628780291142358433B6817
S32100504E040392C118009100240194FF2625F0F9FE19E000997E694B68365D012073
S32100504E20B040034004D021463846FFF77BFF0CE00B68034007D0E878A04201D830
S32100504E3C601CE8700121019104E00134E4B2A8788442E2D325F0DCFE02990E702A
S32100504E58039901980C7004B0F0BDF0B584B0466805460391002202923078009280
S32100504E747070142250432A6881180191002415E08068039910EBC407787981424F
S32100504E900BD1B879FF2805D0EA6852F820008047012802D101210091029100984A
S32100504EAC013448B90199487C84420846E4D3007B7070FF28D9D105E0012803D127
S32100504EC839462846FFF745FF029804B0F0BD000000B500F04DF9DC49002048825C
S32100504EE400F074F900F079F900F08BF900BD30B5D64C257D25F085FE0020E075B6
S32100504F00207625F083FE01202075022D03D1D149087E22F0A1F830BD00B5CE4956
S32100504F1C087E22F071F810221F20042300211CF0A2FF00BDC749487D00F0020038
S32100504F38003818BF0120704730B5C34C607DC00703D4C249088800F03CF9C04DE4
S32100504F54287E22F06AF8E07D012809D1207D0138012805D8A87D6168401804212A
S32100504F7028F0DDF900206083A07D50F00100A07530BD00F06DB900F042B900F08D
S32100504F8C4FB9B24908681030007C012806D1AD49487D10F0020001D0012000E0F5
S32100504FA800207047A849032008757047A649088900280CBF012000207047704756
S32100504FC4A44908681030007C30B9A049487D10F0020001D0012000E00020704720
S32100504FE09D490868808A00F006B99B4908681030007C30B99649487D10F00200B1
S32100504FFC01D0012000E00020704794490868808A00F0F3B8704700F0FCB800F05D
S32100505018F6B810B58D490C7E2046FDF74DF88C490868C07F012802D1204600F0DE
S3210050503447FA10BD8549487DC00701D400F029B9704700B58148018959B9407D6D
S32100505050C00708D1112313221F201CF00AFF7D49088800F0B2F800BD79490420FE
S3210050506C08757047704700F0D7B87649487D10F002000CBF012000207047724964
S32100505088487D40F3000001307047704770476E49487D10F002000CBF01200020DE
S321005050A47047704700F0BEB870B5684C684DA07D00F0FD006E88A075304600F0BD
S321005050C092F81EB1A07D50F00800A07505202075607DC1070FD4A17DC90707D0A4
S321005050DC10F0020004D0288910B1E081002002E05A490868808A00F080F8A07D15
S321005050F800F0FE00A07570BD5348817D01F0F70181750021C16070474F494A7D46
S321005051140020920702D4898901B9012070474B494A7D0020920702D5898901B93F
S321005051300120704730B525F066FD454C0020E075207625F063FD434DA88800F017
S3210050514C45F802202075287E21F09AFFA87D61684018042128F0F4F830BD3A49CE
S32100505168487D00F00200003818BF012070477047F0B5354C354E364D0023FF2111
S3210050518463752361F77D2A686068A3813818126928F009F92A682068FF213818FC
S321005051A0126928F002F92A686068717D927F42542868C07F012805D16268B17D5A
S321005051BC505C50F04000505400206076F0BD2149088170471F490020088170479C
S321005051D81D49488170471C490020488170471A49888118B91B480621FFF74EBDB2
S321005051F470471649088218B917480321FFF746BD70471249002008827047104990
S32100505210487DC00705D40F490888013880B2FFF7D4BF704700F000B8FFF7F1BFE6
S3210050522C10B5084C607DC00705D407490888013880B2FFF7C4FF25F0E0FC002065
S32100505248608225F0DFFC10BD1C1540206036530014154020A033530010B5314CEA
S32100505264607DC0070CD430490868808AFFF7C1FF2E4C2088FFF7A7FFE088FFF78F
S32100505280ABFF07E0FFF7BFFFFFF7A2FFFFF7A7FF0020E08110BD70B582B0234C30
S3210050529CA07D0126234D80071ED4214A606800901068C08A6946ADF80400002076
S321005052B8FFF771FB1B4A10686946808BFEF7ABFD061E0BD10120E07625F099FCCD
S321005052D4E889608225F098FCA07D50F00200A075E07E58B9A07E48B9A07D10F04D
S321005052F0080012D06888013080B2FFF774FF0CE0E08920B12EB90138E0810004FB
S3210050530C07D1A88906E0A07D10F0020001D1012000E06889FFF769FF02B070BD20
S321005053281C154020141540206036530010B58D490446087818B98C2001230422E4
S3210050534407E0204601F074F8012806D18C2004231A4600211CF08BFD0EE0204611
S3210050536001F068F80E214843814908180121C171204601F073F87F4903220A5485
S3210050537C10BD30B50C467A490546087810B98C20012306E0284601F04FF80128DF
S3210050539806D18C200423072200211CF066FD0CE0012C04D3032C02D87148045D2D
S321005053B400E00024284601F04FF86D490C5430BD30B50C4668490546087818B956
S321005053D009228C20012307E0284601F021F8012806D109228C20052300211CF0E5
S321005053EC42FD0BE014B1022C00D00124284601F011F80E2148435B490818847261
S3210050540830BD10B557490446087810B98C20012306E0204601F000F8012806D148
S321005054248C200523062200211CF021FD06E0204600F0F4FF00F0DEFFFFF7D2FA11
S3210050544010BD002220B98C20022311461CF011BD4A490860464882710280C272FE
S3210050545C012008714021104600F023B940490878012802D1002000F09BB87047A2
S3210050547870B50D463B4906460878012430B98C202346022200211CF0F0FC15E0A5
S32100505494304600F0B7FF10B98C200323F3E735B1012D04D0022D02D008238C2055
S321005054B0EBE7304600F096FF294600F032F80024204670BD70B52949044608781C
S321005054CC18B90B228C20012306E0204600F096FF30B90B228C20032300211CF0BA
S321005054E8C4FC19E0204600F079FF0646002525F080FB1D4CE07A20B9A0793128BC
S3210050550401D10125E57225F079FB012D06D180213046002200F0C9F80020E072FC
S3210050552070BD70B581B006460D4600206946C87025F063FB0E4CE07A50B96A4610
S3210050553C03322846A17900F0CEF86846C07808B10120E072257025F055FB6946CF
S32100505558C97829B13046002200F0A5F80020E07201B070BD281640202C16402011
S321005055742A164020A7365300241640200146002032290FD040290ED343290BD920
S3210050559050290AD3522907D9602906D3662903D9802902D3812900D80120704753
S321005055ACF0B583B0064669460025CD7025F01FFBBE4CE07A08B90125E57225F072
S321005055C81BFB012D6DD123780E2006FB0047A5790293B81C00F0F5FE6A4603328F
S321005055E4294663880298019300F079F86946C978002952D12846FFF7C1FFE179B2
S32100505600012907D1B5F13001012903D833216846C17044E0332D04D1019800280D
S3210050561C43D13521F5E7302D03D10198E8BB3621EFE7012839D16A4603322946B5
S32100505638304600F03DFC6946C97861BB381D00F0C0FEA08820BB617A304689B9BC
S3210050565400F0D0FE01460A238C2005221CF007FC322D03D0802D03D3812D01D894
S321005056704021CCE74121CAE76A460332294600F0DCFC6946C97851B9607A8C49DC
S3210050568C0138607208688088A08006E06946C97819B13046012200F004F80020C4
S321005056A8E07203B0F0BD70B581B0824B14001A680546908800D101307D4B9880E0
S321005056C49079587200206E462346F21CF070284600F02BF8F1780029F4D101B06D
S321005056E070BD00231370012803D30DD0022815D01CE0202906D0302918D33129E1
S321005056FC0CD933290AD013E0402010E0102909D030290DD3312901D9332909D129
S32100505718302006E0102901D1502002E0202901D110201070704710B501F0F00460
S32100505734102C0CD0302C0ED0402C0FD0502C10D0602C11D0802C11D100F0B8F86F
S321005057500EE0194600F0B3FA0AE000F00AF807E000F022F804E000F04FF801E034
S3210050576C00F072F810BD00B530290AD0332914D30AD035290CD30ED036290ED146
S3210050578800F043FB0BE000F07FFA08E0114600F0BAFA04E000F002FB01E000F0A8
S321005057A411FB00BD00B50346B1F14000062828D801A1D1E800F0C046050A0F1439
S321005057C0191E23001146184600F089F81BE01146184600F08EF816E01146184626
S321005057DC00F09BF811E01146184600F0AEF80CE01146184600F0C1F807E0114614
S321005057F8184600F0E0F802E0184600F0F4F800BD10B50446B1F1500004281ED81D
S3210050581401A1D1E800F0C04604090E1318001146204600F0A6F912E01146204690
S3210050583000F0AFF90DE01146204600F0C1F908E01146204600F0D4F903E0194676
S3210050584C204600F0EAF910BD00B50346B1F16000062829D801A1D1E800F0C04664
S32100505868050A0F14191E23001146184600F0D2F81CE01146184600F0E7F817E05C
S321005058841146184600F0FAF812E01146184600F00CF90DE01146184600F01FF9D5
S321005058A008E01146184600F032F903E01146184600F047F900BDC0462C164020B1
S321005058BC2416402080290BD304D0822905D307D100F0E8BA114600F0B5BA11468B
S321005058D800F0CABA704710B50C4600F089FD0021FDF79EF94120207010BD4222D8
S321005058F40A70E14B14224243186800688018C07BFF2805D0DD4A1078012801D180
S3210050591060200870704730B581B00C4600216B46DA1C0546D970022100F090FC13
S3210050592C6846C078012802D14320207003E04021284600F067FC01B030BD30B5AC
S3210050594881B00C4600216B46DA1C0546D970032100F078FC6846C078012802D1A4
S321005059644420207003E04121284600F04FFC01B030BD30B581B004460D46142169
S32100505980BE4A4143106800684018C07BFF2812D000206B46DA1C0021D870204617
S3210050599C00F0CCFC6846C078012801D1452005E04221204600F02EFC01E046208C
S321005059B8287001B030BD30B581B00C4600216B46DA1C0546D970022100F0B2FCC2
S321005059D46846C078012802D14620207003E04321284600F013FC01B030BD70B512
S321005059F0A44C06466078002500B9012525F0FDF8012060701020A07125F0FAF8EA
S32100505A0C2DB9304600F0F2FC9C4905F0FDF870BD30B581B00C4600216A46D17078
S32100505A28964A054611736946033100F0ACFC6846C078012802D16120207003E00C
S32100505A446021284600F0E2FB01B030BD30B581B00C4600216B46DA1C0546D970D2
S32100505A60022100F0F3FB6846C078012802D16220207003E06121284600F0CAFB57
S32100505A7C01B030BD30B581B00C4600216B46DA1C0546D97000F052FC6846C07832
S32100505A98012802D16320207003E06221284600F0B3FB01B030BD30B581B00C4615
S32100505AB400216B46DA1C0546D970022100F03AFC6846C078012802D164202070E5
S32100505AD003E06321284600F09BFB01B030BD30B581B00C4600216B46DA1C0546F0
S32100505AECD970032100F0ACFB6846C078012802D16520207003E06421284600F087
S32100505B0883FB01B030BD30B581B00C4600216A46D1705A4A0546517369460331FF
S32100505B2400F042FC6846C078012802D14620207003E06521284600F069FB01B02D
S32100505B4030BD30B581B00C4600216A46D1704D4A054651736946033100F028FCEF
S32100505B5C6846C078012802D16020207003E06621284600F04FFB01B030BD10B570
S32100505B78522214233F4C434320680068C018C07BFF2800D051220A7010BD30B566
S32100505B9481B00C4600216B46DA1C0546D97000F0C9FB6846C078012802D15220B8
S32100505BB0207003E05021284600F02AFB01B030BD30B581B00C4600216B46DA1C4E
S32100505BCC0546D970022100F03BFB6846C078012802D15320207003E051212846E2
S32100505BE800F012FB01B030BD30B581B00C4600216B46D970214B6A460332054691
S32100505C04D971012100F020FB6846C078012802D15420207003E05221284600F01D
S32100505C20F7FA01B030BD70B5164C0E46002105462172032100F0F5FA284600F048
S32100505C3CDDFB0221FCF7F2FF24F0D9FF0C4A032060703020A0711068006814216C
S32100505C5805FB0100417C19B9408906B90130608024F0CAFF284600F0C3FB064969
S32100505C7404F0CEFF70BDC04624164020AE3653002C16402029164020B00C40209C
S32100505C9010B5044600F0B0FB0121FCF7C5FF2046012100F0BEFAD14902204870FB
S32100505CAC20208871204600F0A1FBCE4904F0ACFF10BD30B50D46044600F098FBD3
S32100505CC80221FCF7ADFF2046032100F0A6FA24F090FFC44AC54B0320507030209A
S32100505CE4907118680068142104FB0100417C19B9408905B90130508024F080FF86
S32100505D00204600F079FBBC4904F084FF30BDF0B583B0B84C064602910020694674
S32100505D1CC8702268B24D14277743287A1268BA18928890422CBF012100210191C5
S32100505D38FF2801D001302872304600F059FB0321FCF76EFF2068006838188089AF
S32100505D5410B1032117F07EFE3046012100F05FFA24F049FF0020E8713220A87154
S32100505D702068019A00683818002A0CBFC0880089688024F03DFF6A46033230468D
S32100505D8C012100F09DFA6846C078012802D102993420087003B0F0BD10B5044644
S32100505DA824F027FF8F49022048703320887124F023FF204600F01CFB8B4904F0E6
S32100505DC427FF10BD10B50446032100F028FA24F012FF8549864B03204870302046
S32100505DE0887118680068142204FB0200427C0AB94089488024F004FF204600F0BA
S32100505DFCFDFA0221FCF712FF204600F0F7FA7B4904F002FF10BD10B5044624F027
S32100505E18F0FE7448312181710021017224F0ECFE724A11680968142004FB0010AF
S32100505E34808910B1002117F00DFE10BD30B581B00C4600216B46DA1C0546D9706E
S32100505E50022100F0FBF96846C078012802D18120207003E08021284600F0D2F919
S32100505E6C01B030BD30B581B00C4600216B46DA1C0546D970012100F0E3F96846C6
S32100505E88C078012802D18220207003E08121284600F0BAF901B030BD00B5032135
S32100505EA400F0BDF924F0A7FE4F4A3120907124F0A5FE00BD10B5144601F0F002CC
S32100505EC0402A07D0502A09D0602A0BD1224600F04EF823E0224600F022F81FE064
S32100505EDC224600F08DF81BE0322904D0802909D081290ED014E0012100F0C7F97D
S32100505EF801280FD134200CE0022100F0C0F9012808D1812005E0012100F0B9F9D7
S32100505F14012801D18220207010BD10B51446402922D313D0422918D302D043292D
S32100505F3007D01BE0002100F006FA012816D1452113E0022100F0FFF901280FD19F
S32100505F4C46210CE0022100F098F9012808D1432105E0032100F091F9012801D108
S32100505F684421217010BD10B5034614461D4AB1F16000062835D801A1D1E800F0AD
S32100505F840409111921292E00107B01282BD1612128E01846022100F074F90128BB
S32100505FA023D1622120E01846002100F0CCF901281BD1632118E01846022100F0E2
S32100505FBCC4F9012813D1642110E01846032100F05CF901280BD1652108E0507B2F
S32100505FD8012806D1462103E0507B012801D16021217010BD2C164020B10C4020A9
S32100505FF424164020B00C402010B51446502919D303D0522908D30ED014E00021E5
S3210050601000F099F901280FD152200CE0022100F032F9012808D1532005E001217B
S3210050602C00F02BF9012801D15420207010BD10B581B0144600226B46DA7001F0C4
S32100506048F003402B0AD0502B10D0602B0AD0322910D0802919D0812922D02CE079
S32100506064224600F02CF828E0224600F055F824E0224600F0A9F820E06A460332BF
S32100506080012100F023F96846C078012817D1342014E06A460332022100F018F938
S3210050609C6846C07801280CD1812009E06A460332012100F00DF96846C078012810
S321005060B801D18220207001B010BD30B581B00346144600206D46EA1C4029E870A1
S321005060D418461FD310D0422913D308D0432919D16A460332022100F038F946211B
S321005060F00DE0002100F033F9452108E0022100F0E5F8432103E0032100F0E0F8A3
S3210050610C44216846C078012800D1217001B030BD10B581B00346144600206A4644
S32100506128D070B1F1600006284AD801A1D1E800F0040F1A2530323D006946033154
S32100506144184600F022F96846C07801283AD1612137E003321846022100F0B6F879
S321005061606846C07801282FD162212CE003321846002100F0F4F86846C078012890
S3210050617C24D1632121E003321846022100F0E9F86846C078012819D1642116E03C
S32100506198662114E069460331184600F003F96846C07801280CD1462109E0694602
S321005061B40331184600F0F8F86846C078012801D16021217001B010BD10B581B0A0
S321005061D0144600226B46DA70DA1C502916D307D052290AD312D1012100F070F802
S321005061EC542008E0002100F0B4F8522003E0022100F066F853206946C9780129D5
S3210050620800D1207001B010BD10B50C4624F0F1FC6E498C7124F0F0FC10BD70B587
S3210050622405460E46002405E010583146005DFDF75DFE0134674B1A68142068438D
S3210050624012688118097C8C42F0D370BDF0B505460E461746002407E04058005DF5
S3210050625C00F0FEF85E49002201340A545B4B18681421694300680A18127C944299
S32100506278EED33A463146284600F024F8F0BDF0B581B006460F46012500240FE025
S321005062944058005D00F0E0F84F490A5C3846009200F03FF8009A824201D0002552
S321005062B009E00134484B18681421714300680A18127C9442E6D3284601B0F0BDEF
S321005062CCF0B583B001900F460292002414E08859005D00F0BDF83E490A5C3846A8
S321005062E8009200F01CF8009A824206D02868006880593946005DFDF74BFD01345C
S32100506304344D0198296814264643096873181B7C9C42E0D33946FFF7B4FF029AD1
S32100506320107003B0F0BD012804D3032802D82C49405C00E00020704710B5264C27
S3210050633C0123A37200F00DF810BD30B5224A00240846957A00F018F8854200D18A
S321005063580124204630BD70B50446164614221C4B4243186800680D468018C07B60
S32100506374FDF7FCFD29462046FFF7E3FF307070BD10B1022800D00120704710B5F8
S321005063900C461421104A4143106800684018C07BFDF724FE0B4A107B207010BD70
S321005063AC10B50C461421094A4143106800684018C07BFDF739FE044A507B207015
S321005063C810BD0188013900D3018070472C164020241640202A164020AA365300B9
S321005063E4274B1A681268927B904201D0012000E0002070471421224A41431068B4
S3210050640000684018807B70471E4B1A681268927B0021904200D00121481E18BF24
S3210050641C01207047184B1A681268D27B904201D0012000E00020704730B50146E3
S321005064380120002207E01B689B5C994201D1002007E00132D2B20D4D2B681B6873
S321005064541C7CA242F1D330BD30B501460120002207E01B689B5C994201D11046D6
S3210050647007E00132D2B2034D2B681B681C7CA242F1D330BD2416402030B50124E5
S3210050648C051E12D0006826F0EDFF01280DD1C849A868884209D1C74A6968106809
S321005064A8884204D1C549E868884200D10024204630BDF0B5050003D1232003238C
S321005064C4012206E0FFF7DEFF040006D0232001231A4600211BF0CBFC3EE0BA4ED0
S321005064E0074624F084FB3560B84D2878012802D107462C7002E0B64901240F70C6
S321005064FC24F07AFB012F10D1002709E0B249E420012207FB0010114601F073F89D
S321005065180137FFB23068303000788742F0D3012C16D100270FE0A949E42007FB0A
S321005065340014204600F011F85834E07800F0FE00E0700020A0700137FFB23068AF
S32100506550303000788742EAD301202870F0BD10F15C020021117041608160111F62
S3210050656C00235370937001231371002380F8A030D37003618382CA7802F0F902E6
S32100506588CA70FF224A7203608F4980F8A130E03043800878013800D30870704778
S321005065A4F0B581B08849074608780124012803D020230822232007E0824A106815
S321005065C0418D8F4206D308222320022300211BF050FC46E0C1691822091807FB3A
S321005065DC0210C17D01293ED1807BE42148437A49451824F0FEFA15F15A063078FF
S321005065F8002812BF002134702146009124F0F6FA009951B36889B8421CD195F875
S321005066145C00602818D31DD062280ED96A280CD0702811D3722815D97A2806D0FD
S32100506630E42811D0E82809D30ED0EA2806D8002428460122114600F0DAFF05E097
S3210050664CA0230822232000211BF00DFC284601F065FB00203070204601B0F0BD34
S3210050666830B524F0C0FA58490C7824F0BFFA5549087801281FD1F4B100240DE02E
S321005066845349E42004FB0011086828B10138086002D1204600F064FF0134E4B2B3
S321005066A0494A106890F831108C42EBD390F83040013CE5B2284600F04DF8002D8C
S321005066BCF8D130BD10B590F85C10412918D342293BD9542914D33D4A562914D9D2
S321005066D870290FD3722922D9C2291ED0CC2909D3CE2905D9E4292CD0E82903D3D0
S321005066F4EA2901D8022227E00122114625E0116842891A2353438A695218D11841
S32100506710CC7B0222012100F072FF204601F075F817E0042212E0116842891823D7
S3210050672C5343CA695218D118CC7B0222012100F060FF204601F083F805E0082222
S3210050674800E00322012100F056FF10BD70B50126E42148431D490C1824F045FAED
S3210050676414F15C05287818B1204600F033F8064624F03EFAF6B921692046013902
S3210050678006D214F15A0501212970FFF799FF0FE02161297801F06001402902D182
S3210050679C00F0BCF907E014F15A0501212970314601F068F82E70204601F0B8FA71
S321005067B870BDC046271D911134385300FE21F0463C16402044164020451640201B
S321005067D448164020014691F85A2010001FBF01208A8A01328A827047F0B592B04B
S321005067F0C84C05466A8920681A26564382691218B718387C18B1387D8DF80800E1
S3210050680C012002AA115495F85D1001301154397E013011540130ADF8040000929F
S32100506828FA7CB97C6B46284600F0C6F8206881690918885B69462861284600F07A
S32100506844A7FF12B0F0BD70B582880389D31AB04A15684489AA69521901251A26FD
S3210050686004FB0626367C9BB216B1032E00D00025C0881A2606FB0422984202D351
S3210050687C0020937D14E0537E6C4201341C1B013CE4B290FBF4F39BB24BB1927DFE
S321005068980020934201D902B11346FF2B02D3FF2300E001200B7070BD10B581B0F3
S321005068B4044641680089081A80B2B0EB114F0BD9694603312046FFF7BEFF38B9D6
S321005068D0684694F85D10C078884201D3012000E0002001B010BD90F85F1069B129
S321005068EC89490A6841891A234B43916989180269595A8A4202D8062100F05FB9D3
S32100506908704770B581490A684189002318244C43D16989180A19117CA22419B132
S32100506924127D012380F8A22010F15C010A780025602A40D312D0622A1FD33CD105
S321005069400A79041952F02005E5540133013202F00F020A7110F15C018A7801322D
S3210050695C8A702CE08188CA180132D2B2082A83BF0219D554013301F00F01021919
S32100506978995401331DE0828840F6FF7610F1A201B2420AD91024CC540133CD54B6
S321005069940133CD540133CD540133140A02E0140A54F01004CC540133CA54013397
S321005069B010F15C0101228A704A70A130037070BD30B513B19D882C4602E090F825
S321005069CCA1402546023A012A20D802291CD0082D02D801291CD11AE00C2D01D865
S321005069E80C2417E0102D01D8102413E0142D01D814240FE0182D01D818240BE053
S32100506A04202D01D8202407E0302D01D8302403E0402401E001B1082413B199885A
S32100506A209C800CE010F1A1021178147007E01D001ABF00251A6800F1A202555489
S32100506A3C0131A142F5D330BD30B533490446821D0B68818840891A2545439869C7
S32100506A58C0184019408923F001FB01280AD30BD00328204619D30BD00122114610
S32100506A7400F0C3FD012014E0C0B212E0204601220021F5E794F85C10412903D1CB
S32100506A90052100F098F8EFE70122002100F0AFFDEAE70020E08030BD70B51500C0
S32100506AAC01D1114611E00446C0880E46904205D220460022114600F00BF840B904
S32100506AC8E1880220A94204D32A463146204600F001F870BD30B583B0ADF80820C7
S32100506AE401910B49044640890B686A460232911C1A2545439869C0184019408981
S32100506B0023F0B6FA002108B969464988E18003B030BDC0463C164020F0B5044656
S32100506B1C064600275C3000785A3640284CD303D0422817D333D047E00120307067
S32100506B3814F1A1000278411C2046FFF7B1FF38B102283AD020460122114600F075
S32100506B5454FD34E020463A460121F8E70120307014F1A005A91C20466A78FFF715
S32100506B709BFF28B10228E9D12046FFF7B4FE20E020896978401820816F7014F1E7
S32100506B8C5D012046FFF75BFE0028EFD10FE0012030703A4639462046FFF79AFFF8
S32100506BA810B10228E4D0CDE72046FFF77DFE0028DED02046042100F002F837705F
S32100506BC4F0BD10B5CE4A136842891A2454439A69D2181219D37B0022FF2B0AD02E
S32100506BE0E4246343C84C1B195C331B7803F09803102B00D1012204291AD0062928
S32100506BFC08D00021C180012A18D04D2280F85C2032210CE0012A01D1CE2110E05C
S32100506C184E2280F85C20312103E04C2280F85C203021FFF7DFFD06E0012AF6D114
S32100506C34CC2100E0CD2180F85C1010BDF0B583B00C46B14905460878012803D097
S32100506C5020234222232005E00CB1216831B942222320032300211BF004F99BE062
S32100506C6CA54E3068008D854201D34023EBE7A088022846D300206F467B1CBA1C21
S32100506C8878807870284600F041F9002800F0868032685069116980186B00891893
S32100506CA4595A7B7810EBC10178880191002102910826302B07BFD569182795690B
S32100506CC01A27AD1800FB0755AD7BE4277D438E4FED19302B06D1019AA1881279AE
S32100506CDC00F000FC014605E093699B181A2202FB0030467E6B465B78102B0CD1B6
S32100506CF8019800790138012802D8A088032802D3A088B04205D980239FE7302B38
S32100506D14F8D10129F9D12268694628464988127800F0FFFB071E3BD123F05FFFC2
S32100506D3015F15806B07870B16B465B7833B1102B04D0202B0BD0302B0DD004E08B
S32100506D4C95F8E30010F0040007D10120B070029009E0F078C00700D001276A46F6
S32100506D6821462846528800F052F823F03FFF012F05D142222320042300211BF07F
S32100506D8476F8029801280BD16846437842882146284600F056F8284600F0C4FF29
S32100506DA00020B07003B0F0BDF0B593B005461021044601A826F065FA0027009757
S32100506DBC3E461197ADF8487023F013FF5834E078C10713D5394603E04B195B7E84
S32100506DD8535401312B7E01AA9942F7D31192ADF8483000F0FE00E989E0700127DF
S32100506DF46678009123F0FCFE4FB10120009AA070334611A9284600F01CF8002021
S32100506E10A07013B0F0BDF0B581B00E4600921F460546044619308A88096826F0F8
S32100506E2C9FFA5834009BE07850F00100E070EB81B0882876677001B0F0BD70B5AF
S32100506E4804460D46164633B1102B17D0202B28D0302B34D03AE000F03AF894F86F
S32100506E645C00A8BB668123F0C0FE284801780131017023F0BDFE2146284600F026
